{
	"auction/contracts/AucEngine.sol": {
		"AucEngine": {
			"abi": [
				{
					"inputs": [],
					"stateMutability": "nonpayable",
					"type": "constructor"
				},
				{
					"anonymous": false,
					"inputs": [
						{
							"indexed": false,
							"internalType": "uint256",
							"name": "index",
							"type": "uint256"
						},
						{
							"indexed": false,
							"internalType": "string",
							"name": "item",
							"type": "string"
						},
						{
							"indexed": false,
							"internalType": "uint256",
							"name": "_startingPrice",
							"type": "uint256"
						},
						{
							"indexed": false,
							"internalType": "uint256",
							"name": "duration",
							"type": "uint256"
						}
					],
					"name": "AuctionCreated",
					"type": "event"
				},
				{
					"anonymous": false,
					"inputs": [
						{
							"indexed": false,
							"internalType": "uint256",
							"name": "finalPrice",
							"type": "uint256"
						},
						{
							"indexed": false,
							"internalType": "uint256",
							"name": "price",
							"type": "uint256"
						},
						{
							"indexed": false,
							"internalType": "address",
							"name": "winner",
							"type": "address"
						}
					],
					"name": "AuctionEnded",
					"type": "event"
				},
				{
					"inputs": [
						{
							"internalType": "uint256",
							"name": "",
							"type": "uint256"
						}
					],
					"name": "auctions",
					"outputs": [
						{
							"internalType": "address payable",
							"name": "seller",
							"type": "address"
						},
						{
							"internalType": "uint256",
							"name": "startPrice",
							"type": "uint256"
						},
						{
							"internalType": "uint256",
							"name": "finalPrice",
							"type": "uint256"
						},
						{
							"internalType": "uint256",
							"name": "startAt",
							"type": "uint256"
						},
						{
							"internalType": "uint256",
							"name": "endsAt",
							"type": "uint256"
						},
						{
							"internalType": "uint256",
							"name": "discountRate",
							"type": "uint256"
						},
						{
							"internalType": "string",
							"name": "item",
							"type": "string"
						},
						{
							"internalType": "bool",
							"name": "stopped",
							"type": "bool"
						}
					],
					"stateMutability": "view",
					"type": "function"
				},
				{
					"inputs": [
						{
							"internalType": "uint256",
							"name": "index",
							"type": "uint256"
						}
					],
					"name": "buy",
					"outputs": [],
					"stateMutability": "payable",
					"type": "function"
				},
				{
					"inputs": [
						{
							"internalType": "uint256",
							"name": "_startingPrice",
							"type": "uint256"
						},
						{
							"internalType": "uint256",
							"name": "_discountRate",
							"type": "uint256"
						},
						{
							"internalType": "string",
							"name": "_item",
							"type": "string"
						},
						{
							"internalType": "uint256",
							"name": "_duration",
							"type": "uint256"
						}
					],
					"name": "createAuction",
					"outputs": [],
					"stateMutability": "nonpayable",
					"type": "function"
				},
				{
					"inputs": [
						{
							"internalType": "uint256",
							"name": "index",
							"type": "uint256"
						}
					],
					"name": "getPriceFor",
					"outputs": [
						{
							"internalType": "uint256",
							"name": "",
							"type": "uint256"
						}
					],
					"stateMutability": "view",
					"type": "function"
				},
				{
					"inputs": [],
					"name": "owner",
					"outputs": [
						{
							"internalType": "address",
							"name": "",
							"type": "address"
						}
					],
					"stateMutability": "view",
					"type": "function"
				},
				{
					"inputs": [],
					"name": "withdrawAll",
					"outputs": [],
					"stateMutability": "nonpayable",
					"type": "function"
				}
			],
			"devdoc": {
				"kind": "dev",
				"methods": {},
				"version": 1
			},
			"evm": {
				"assembly": "    /* \"auction/contracts/AucEngine.sol\":60:2882  contract AucEngine{... */\n  mstore(0x40, 0x80)\n    /* \"auction/contracts/AucEngine.sol\":799:849  constructor(){... */\n  callvalue\n  dup1\n  iszero\n  tag_1\n  jumpi\n  0x00\n  dup1\n  revert\ntag_1:\n  pop\n    /* \"auction/contracts/AucEngine.sol\":831:841  msg.sender */\n  caller\n    /* \"auction/contracts/AucEngine.sol\":823:828  owner */\n  0x00\n  dup1\n    /* \"auction/contracts/AucEngine.sol\":823:841  owner = msg.sender */\n  0x0100\n  exp\n  dup2\n  sload\n  dup2\n  0xffffffffffffffffffffffffffffffffffffffff\n  mul\n  not\n  and\n  swap1\n  dup4\n  0xffffffffffffffffffffffffffffffffffffffff\n  and\n  mul\n  or\n  swap1\n  sstore\n  pop\n    /* \"auction/contracts/AucEngine.sol\":60:2882  contract AucEngine{... */\n  dataSize(sub_0)\n  dup1\n  dataOffset(sub_0)\n  0x00\n  codecopy\n  0x00\n  return\nstop\n\nsub_0: assembly {\n        /* \"auction/contracts/AucEngine.sol\":60:2882  contract AucEngine{... */\n      mstore(0x40, 0x80)\n      jumpi(tag_1, lt(calldatasize, 0x04))\n      shr(0xe0, calldataload(0x00))\n      dup1\n      0x4534cd9c\n      eq\n      tag_2\n      jumpi\n      dup1\n      0x571a26a0\n      eq\n      tag_3\n      jumpi\n      dup1\n      0x853828b6\n      eq\n      tag_4\n      jumpi\n      dup1\n      0x8da5cb5b\n      eq\n      tag_5\n      jumpi\n      dup1\n      0xd96a094a\n      eq\n      tag_6\n      jumpi\n      dup1\n      0xe9835d15\n      eq\n      tag_7\n      jumpi\n    tag_1:\n      0x00\n      dup1\n      revert\n        /* \"auction/contracts/AucEngine.sol\":1635:2055  function getPriceFor(uint index) public view returns(uint){... */\n    tag_2:\n      callvalue\n      dup1\n      iszero\n      tag_8\n      jumpi\n      0x00\n      dup1\n      revert\n    tag_8:\n      pop\n      tag_9\n      0x04\n      dup1\n      calldatasize\n      sub\n      dup2\n      add\n      swap1\n      tag_10\n      swap2\n      swap1\n      tag_11\n      jump\t// in\n    tag_10:\n      tag_12\n      jump\t// in\n    tag_9:\n      mload(0x40)\n      tag_13\n      swap2\n      swap1\n      tag_14\n      jump\t// in\n    tag_13:\n      mload(0x40)\n      dup1\n      swap2\n      sub\n      swap1\n      return\n        /* \"auction/contracts/AucEngine.sol\":435:460  Auction[] public auctions */\n    tag_3:\n      callvalue\n      dup1\n      iszero\n      tag_15\n      jumpi\n      0x00\n      dup1\n      revert\n    tag_15:\n      pop\n      tag_16\n      0x04\n      dup1\n      calldatasize\n      sub\n      dup2\n      add\n      swap1\n      tag_17\n      swap2\n      swap1\n      tag_11\n      jump\t// in\n    tag_17:\n      tag_18\n      jump\t// in\n    tag_16:\n      mload(0x40)\n      tag_19\n      swap9\n      swap8\n      swap7\n      swap6\n      swap5\n      swap4\n      swap3\n      swap2\n      swap1\n      tag_20\n      jump\t// in\n    tag_19:\n      mload(0x40)\n      dup1\n      swap2\n      sub\n      swap1\n      return\n        /* \"auction/contracts/AucEngine.sol\":2762:2879  function withdrawAll() external onlyOwner{... */\n    tag_4:\n      callvalue\n      dup1\n      iszero\n      tag_21\n      jumpi\n      0x00\n      dup1\n      revert\n    tag_21:\n      pop\n      tag_22\n      tag_23\n      jump\t// in\n    tag_22:\n      stop\n        /* \"auction/contracts/AucEngine.sol\":85:105  address public owner */\n    tag_5:\n      callvalue\n      dup1\n      iszero\n      tag_24\n      jumpi\n      0x00\n      dup1\n      revert\n    tag_24:\n      pop\n      tag_25\n      tag_26\n      jump\t// in\n    tag_25:\n      mload(0x40)\n      tag_27\n      swap2\n      swap1\n      tag_28\n      jump\t// in\n    tag_27:\n      mload(0x40)\n      dup1\n      swap2\n      sub\n      swap1\n      return\n        /* \"auction/contracts/AucEngine.sol\":2063:2754  function buy(uint index) external payable {... */\n    tag_6:\n      tag_29\n      0x04\n      dup1\n      calldatasize\n      sub\n      dup2\n      add\n      swap1\n      tag_30\n      swap2\n      swap1\n      tag_11\n      jump\t// in\n    tag_30:\n      tag_31\n      jump\t// in\n    tag_29:\n      stop\n        /* \"auction/contracts/AucEngine.sol\":857:1625  function createAuction(uint _startingPrice, uint _discountRate, string calldata _item, uint _duration) external {... */\n    tag_7:\n      callvalue\n      dup1\n      iszero\n      tag_32\n      jumpi\n      0x00\n      dup1\n      revert\n    tag_32:\n      pop\n      tag_33\n      0x04\n      dup1\n      calldatasize\n      sub\n      dup2\n      add\n      swap1\n      tag_34\n      swap2\n      swap1\n      tag_35\n      jump\t// in\n    tag_34:\n      tag_36\n      jump\t// in\n    tag_33:\n      stop\n        /* \"auction/contracts/AucEngine.sol\":1635:2055  function getPriceFor(uint index) public view returns(uint){... */\n    tag_12:\n        /* \"auction/contracts/AucEngine.sol\":1688:1692  uint */\n      0x00\n        /* \"auction/contracts/AucEngine.sol\":1704:1726  Auction memory auction */\n      dup1\n        /* \"auction/contracts/AucEngine.sol\":1729:1737  auctions */\n      0x01\n        /* \"auction/contracts/AucEngine.sol\":1738:1743  index */\n      dup4\n        /* \"auction/contracts/AucEngine.sol\":1729:1744  auctions[index] */\n      dup2\n      sload\n      dup2\n      lt\n      tag_38\n      jumpi\n      tag_39\n      tag_40\n      jump\t// in\n    tag_39:\n    tag_38:\n      swap1\n      0x00\n      mstore\n      keccak256(0x00, 0x20)\n      swap1\n      0x08\n      mul\n      add\n        /* \"auction/contracts/AucEngine.sol\":1704:1744  Auction memory auction = auctions[index] */\n      mload(0x40)\n      dup1\n      0x0100\n      add\n      0x40\n      mstore\n      swap1\n      dup2\n      0x00\n      dup3\n      add\n      0x00\n      swap1\n      sload\n      swap1\n      0x0100\n      exp\n      swap1\n      div\n      0xffffffffffffffffffffffffffffffffffffffff\n      and\n      0xffffffffffffffffffffffffffffffffffffffff\n      and\n      0xffffffffffffffffffffffffffffffffffffffff\n      and\n      dup2\n      mstore\n      0x20\n      add\n      0x01\n      dup3\n      add\n      sload\n      dup2\n      mstore\n      0x20\n      add\n      0x02\n      dup3\n      add\n      sload\n      dup2\n      mstore\n      0x20\n      add\n      0x03\n      dup3\n      add\n      sload\n      dup2\n      mstore\n      0x20\n      add\n      0x04\n      dup3\n      add\n      sload\n      dup2\n      mstore\n      0x20\n      add\n      0x05\n      dup3\n      add\n      sload\n      dup2\n      mstore\n      0x20\n      add\n      0x06\n      dup3\n      add\n      dup1\n      sload\n      tag_42\n      swap1\n      tag_43\n      jump\t// in\n    tag_42:\n      dup1\n      0x1f\n      add\n      0x20\n      dup1\n      swap2\n      div\n      mul\n      0x20\n      add\n      mload(0x40)\n      swap1\n      dup2\n      add\n      0x40\n      mstore\n      dup1\n      swap3\n      swap2\n      swap1\n      dup2\n      dup2\n      mstore\n      0x20\n      add\n      dup3\n      dup1\n      sload\n      tag_44\n      swap1\n      tag_43\n      jump\t// in\n    tag_44:\n      dup1\n      iszero\n      tag_45\n      jumpi\n      dup1\n      0x1f\n      lt\n      tag_46\n      jumpi\n      0x0100\n      dup1\n      dup4\n      sload\n      div\n      mul\n      dup4\n      mstore\n      swap2\n      0x20\n      add\n      swap2\n      jump(tag_45)\n    tag_46:\n      dup3\n      add\n      swap2\n      swap1\n      0x00\n      mstore\n      keccak256(0x00, 0x20)\n      swap1\n    tag_47:\n      dup2\n      sload\n      dup2\n      mstore\n      swap1\n      0x01\n      add\n      swap1\n      0x20\n      add\n      dup1\n      dup4\n      gt\n      tag_47\n      jumpi\n      dup3\n      swap1\n      sub\n      0x1f\n      and\n      dup3\n      add\n      swap2\n    tag_45:\n      pop\n      pop\n      pop\n      pop\n      pop\n      dup2\n      mstore\n      0x20\n      add\n      0x07\n      dup3\n      add\n      0x00\n      swap1\n      sload\n      swap1\n      0x0100\n      exp\n      swap1\n      div\n      0xff\n      and\n      iszero\n      iszero\n      iszero\n      iszero\n      dup2\n      mstore\n      pop\n      pop\n      swap1\n      pop\n        /* \"auction/contracts/AucEngine.sol\":1764:1771  auction */\n      dup1\n        /* \"auction/contracts/AucEngine.sol\":1764:1779  auction.stopped */\n      0xe0\n      add\n      mload\n        /* \"auction/contracts/AucEngine.sol\":1763:1779  !auction.stopped */\n      iszero\n        /* \"auction/contracts/AucEngine.sol\":1755:1807  require(!auction.stopped, \"auction already stopped\") */\n      tag_48\n      jumpi\n      mload(0x40)\n      0x08c379a000000000000000000000000000000000000000000000000000000000\n      dup2\n      mstore\n      0x04\n      add\n      tag_49\n      swap1\n      tag_50\n      jump\t// in\n    tag_49:\n      mload(0x40)\n      dup1\n      swap2\n      sub\n      swap1\n      revert\n    tag_48:\n        /* \"auction/contracts/AucEngine.sol\":1844:1851  auction */\n      dup1\n        /* \"auction/contracts/AucEngine.sol\":1844:1858  auction.endsAt */\n      0x80\n      add\n      mload\n        /* \"auction/contracts/AucEngine.sol\":1826:1841  block.timestamp */\n      timestamp\n        /* \"auction/contracts/AucEngine.sol\":1826:1858  block.timestamp < auction.endsAt */\n      lt\n        /* \"auction/contracts/AucEngine.sol\":1818:1884  require(block.timestamp < auction.endsAt, \"auction already ended\") */\n      tag_51\n      jumpi\n      mload(0x40)\n      0x08c379a000000000000000000000000000000000000000000000000000000000\n      dup2\n      mstore\n      0x04\n      add\n      tag_52\n      swap1\n      tag_53\n      jump\t// in\n    tag_52:\n      mload(0x40)\n      dup1\n      swap2\n      sub\n      swap1\n      revert\n    tag_51:\n        /* \"auction/contracts/AucEngine.sol\":1895:1907  uint elapsed */\n      0x00\n        /* \"auction/contracts/AucEngine.sol\":1928:1935  auction */\n      dup2\n        /* \"auction/contracts/AucEngine.sol\":1928:1943  auction.startAt */\n      0x60\n      add\n      mload\n        /* \"auction/contracts/AucEngine.sol\":1910:1925  block.timestamp */\n      timestamp\n        /* \"auction/contracts/AucEngine.sol\":1910:1943  block.timestamp - auction.startAt */\n      tag_54\n      swap2\n      swap1\n      tag_55\n      jump\t// in\n    tag_54:\n        /* \"auction/contracts/AucEngine.sol\":1895:1943  uint elapsed = block.timestamp - auction.startAt */\n      swap1\n      pop\n        /* \"auction/contracts/AucEngine.sol\":1954:1967  uint discount */\n      0x00\n        /* \"auction/contracts/AucEngine.sol\":1980:1987  auction */\n      dup3\n        /* \"auction/contracts/AucEngine.sol\":1980:2000  auction.discountRate */\n      0xa0\n      add\n      mload\n        /* \"auction/contracts/AucEngine.sol\":1970:1977  elapsed */\n      dup3\n        /* \"auction/contracts/AucEngine.sol\":1970:2000  elapsed * auction.discountRate */\n      tag_56\n      swap2\n      swap1\n      tag_57\n      jump\t// in\n    tag_56:\n        /* \"auction/contracts/AucEngine.sol\":1954:2000  uint discount = elapsed * auction.discountRate */\n      swap1\n      pop\n        /* \"auction/contracts/AucEngine.sol\":2039:2047  discount */\n      dup1\n        /* \"auction/contracts/AucEngine.sol\":2018:2025  auction */\n      dup4\n        /* \"auction/contracts/AucEngine.sol\":2018:2036  auction.startPrice */\n      0x20\n      add\n      mload\n        /* \"auction/contracts/AucEngine.sol\":2018:2047  auction.startPrice - discount */\n      tag_58\n      swap2\n      swap1\n      tag_55\n      jump\t// in\n    tag_58:\n        /* \"auction/contracts/AucEngine.sol\":2011:2047  return auction.startPrice - discount */\n      swap4\n      pop\n      pop\n      pop\n      pop\n        /* \"auction/contracts/AucEngine.sol\":1635:2055  function getPriceFor(uint index) public view returns(uint){... */\n      swap2\n      swap1\n      pop\n      jump\t// out\n        /* \"auction/contracts/AucEngine.sol\":435:460  Auction[] public auctions */\n    tag_18:\n      0x01\n      dup2\n      dup2\n      sload\n      dup2\n      lt\n      tag_59\n      jumpi\n      0x00\n      dup1\n      revert\n    tag_59:\n      swap1\n      0x00\n      mstore\n      keccak256(0x00, 0x20)\n      swap1\n      0x08\n      mul\n      add\n      0x00\n      swap2\n      pop\n      swap1\n      pop\n      dup1\n      0x00\n      add\n      0x00\n      swap1\n      sload\n      swap1\n      0x0100\n      exp\n      swap1\n      div\n      0xffffffffffffffffffffffffffffffffffffffff\n      and\n      swap1\n      dup1\n      0x01\n      add\n      sload\n      swap1\n      dup1\n      0x02\n      add\n      sload\n      swap1\n      dup1\n      0x03\n      add\n      sload\n      swap1\n      dup1\n      0x04\n      add\n      sload\n      swap1\n      dup1\n      0x05\n      add\n      sload\n      swap1\n      dup1\n      0x06\n      add\n      dup1\n      sload\n      tag_61\n      swap1\n      tag_43\n      jump\t// in\n    tag_61:\n      dup1\n      0x1f\n      add\n      0x20\n      dup1\n      swap2\n      div\n      mul\n      0x20\n      add\n      mload(0x40)\n      swap1\n      dup2\n      add\n      0x40\n      mstore\n      dup1\n      swap3\n      swap2\n      swap1\n      dup2\n      dup2\n      mstore\n      0x20\n      add\n      dup3\n      dup1\n      sload\n      tag_62\n      swap1\n      tag_43\n      jump\t// in\n    tag_62:\n      dup1\n      iszero\n      tag_63\n      jumpi\n      dup1\n      0x1f\n      lt\n      tag_64\n      jumpi\n      0x0100\n      dup1\n      dup4\n      sload\n      div\n      mul\n      dup4\n      mstore\n      swap2\n      0x20\n      add\n      swap2\n      jump(tag_63)\n    tag_64:\n      dup3\n      add\n      swap2\n      swap1\n      0x00\n      mstore\n      keccak256(0x00, 0x20)\n      swap1\n    tag_65:\n      dup2\n      sload\n      dup2\n      mstore\n      swap1\n      0x01\n      add\n      swap1\n      0x20\n      add\n      dup1\n      dup4\n      gt\n      tag_65\n      jumpi\n      dup3\n      swap1\n      sub\n      0x1f\n      and\n      dup3\n      add\n      swap2\n    tag_63:\n      pop\n      pop\n      pop\n      pop\n      pop\n      swap1\n      dup1\n      0x07\n      add\n      0x00\n      swap1\n      sload\n      swap1\n      0x0100\n      exp\n      swap1\n      div\n      0xff\n      and\n      swap1\n      pop\n      dup9\n      jump\t// out\n        /* \"auction/contracts/AucEngine.sol\":2762:2879  function withdrawAll() external onlyOwner{... */\n    tag_23:\n        /* \"auction/contracts/AucEngine.sol\":729:734  owner */\n      0x00\n      dup1\n      sload\n      swap1\n      0x0100\n      exp\n      swap1\n      div\n      0xffffffffffffffffffffffffffffffffffffffff\n      and\n        /* \"auction/contracts/AucEngine.sol\":715:734  msg.sender == owner */\n      0xffffffffffffffffffffffffffffffffffffffff\n      and\n        /* \"auction/contracts/AucEngine.sol\":715:725  msg.sender */\n      caller\n        /* \"auction/contracts/AucEngine.sol\":715:734  msg.sender == owner */\n      0xffffffffffffffffffffffffffffffffffffffff\n      and\n      eq\n        /* \"auction/contracts/AucEngine.sol\":707:769  require(msg.sender == owner, \"You are not allowed to do this\") */\n      tag_67\n      jumpi\n      mload(0x40)\n      0x08c379a000000000000000000000000000000000000000000000000000000000\n      dup2\n      mstore\n      0x04\n      add\n      tag_68\n      swap1\n      tag_69\n      jump\t// in\n    tag_68:\n      mload(0x40)\n      dup1\n      swap2\n      sub\n      swap1\n      revert\n    tag_67:\n        /* \"auction/contracts/AucEngine.sol\":2833:2838  owner */\n      0x00\n      dup1\n      sload\n      swap1\n      0x0100\n      exp\n      swap1\n      div\n      0xffffffffffffffffffffffffffffffffffffffff\n      and\n        /* \"auction/contracts/AucEngine.sol\":2824:2848  payable (owner).transfer */\n      0xffffffffffffffffffffffffffffffffffffffff\n      and\n        /* \"auction/contracts/AucEngine.sol\":2824:2871  payable (owner).transfer(address(this).balance) */\n      0x08fc\n        /* \"auction/contracts/AucEngine.sol\":2849:2870  address(this).balance */\n      selfbalance\n        /* \"auction/contracts/AucEngine.sol\":2824:2871  payable (owner).transfer(address(this).balance) */\n      swap1\n      dup2\n      iszero\n      mul\n      swap1\n      mload(0x40)\n      0x00\n      mload(0x40)\n      dup1\n      dup4\n      sub\n      dup2\n      dup6\n      dup9\n      dup9\n      call\n      swap4\n      pop\n      pop\n      pop\n      pop\n      iszero\n      dup1\n      iszero\n      tag_72\n      jumpi\n      returndatasize\n      0x00\n      dup1\n      returndatacopy\n      revert(0x00, returndatasize)\n    tag_72:\n      pop\n        /* \"auction/contracts/AucEngine.sol\":2762:2879  function withdrawAll() external onlyOwner{... */\n      jump\t// out\n        /* \"auction/contracts/AucEngine.sol\":85:105  address public owner */\n    tag_26:\n      0x00\n      dup1\n      sload\n      swap1\n      0x0100\n      exp\n      swap1\n      div\n      0xffffffffffffffffffffffffffffffffffffffff\n      and\n      dup2\n      jump\t// out\n        /* \"auction/contracts/AucEngine.sol\":2063:2754  function buy(uint index) external payable {... */\n    tag_31:\n        /* \"auction/contracts/AucEngine.sol\":2116:2139  Auction storage auction */\n      0x00\n        /* \"auction/contracts/AucEngine.sol\":2142:2150  auctions */\n      0x01\n        /* \"auction/contracts/AucEngine.sol\":2151:2156  index */\n      dup3\n        /* \"auction/contracts/AucEngine.sol\":2142:2157  auctions[index] */\n      dup2\n      sload\n      dup2\n      lt\n      tag_74\n      jumpi\n      tag_75\n      tag_40\n      jump\t// in\n    tag_75:\n    tag_74:\n      swap1\n      0x00\n      mstore\n      keccak256(0x00, 0x20)\n      swap1\n      0x08\n      mul\n      add\n        /* \"auction/contracts/AucEngine.sol\":2116:2157  Auction storage auction = auctions[index] */\n      swap1\n      pop\n        /* \"auction/contracts/AucEngine.sol\":2194:2201  auction */\n      dup1\n        /* \"auction/contracts/AucEngine.sol\":2194:2208  auction.endsAt */\n      0x04\n      add\n      sload\n        /* \"auction/contracts/AucEngine.sol\":2176:2191  block.timestamp */\n      timestamp\n        /* \"auction/contracts/AucEngine.sol\":2176:2208  block.timestamp < auction.endsAt */\n      lt\n        /* \"auction/contracts/AucEngine.sol\":2168:2234  require(block.timestamp < auction.endsAt, \"Auction already ended\") */\n      tag_77\n      jumpi\n      mload(0x40)\n      0x08c379a000000000000000000000000000000000000000000000000000000000\n      dup2\n      mstore\n      0x04\n      add\n      tag_78\n      swap1\n      tag_79\n      jump\t// in\n    tag_78:\n      mload(0x40)\n      dup1\n      swap2\n      sub\n      swap1\n      revert\n    tag_77:\n        /* \"auction/contracts/AucEngine.sol\":2254:2261  auction */\n      dup1\n        /* \"auction/contracts/AucEngine.sol\":2254:2269  auction.stopped */\n      0x07\n      add\n      0x00\n      swap1\n      sload\n      swap1\n      0x0100\n      exp\n      swap1\n      div\n      0xff\n      and\n        /* \"auction/contracts/AucEngine.sol\":2253:2269  !auction.stopped */\n      iszero\n        /* \"auction/contracts/AucEngine.sol\":2245:2297  require(!auction.stopped, \"Auction already stopped\") */\n      tag_80\n      jumpi\n      mload(0x40)\n      0x08c379a000000000000000000000000000000000000000000000000000000000\n      dup2\n      mstore\n      0x04\n      add\n      tag_81\n      swap1\n      tag_82\n      jump\t// in\n    tag_81:\n      mload(0x40)\n      dup1\n      swap2\n      sub\n      swap1\n      revert\n    tag_80:\n        /* \"auction/contracts/AucEngine.sol\":2308:2318  uint price */\n      0x00\n        /* \"auction/contracts/AucEngine.sol\":2321:2339  getPriceFor(index) */\n      tag_83\n        /* \"auction/contracts/AucEngine.sol\":2333:2338  index */\n      dup4\n        /* \"auction/contracts/AucEngine.sol\":2321:2332  getPriceFor */\n      tag_12\n        /* \"auction/contracts/AucEngine.sol\":2321:2339  getPriceFor(index) */\n      jump\t// in\n    tag_83:\n        /* \"auction/contracts/AucEngine.sol\":2308:2339  uint price = getPriceFor(index) */\n      swap1\n      pop\n        /* \"auction/contracts/AucEngine.sol\":2371:2376  price */\n      dup1\n        /* \"auction/contracts/AucEngine.sol\":2358:2367  msg.value */\n      callvalue\n        /* \"auction/contracts/AucEngine.sol\":2358:2376  msg.value >= price */\n      lt\n      iszero\n        /* \"auction/contracts/AucEngine.sol\":2350:2414  require(msg.value >= price, \"Not enough funds to buy this item\") */\n      tag_84\n      jumpi\n      mload(0x40)\n      0x08c379a000000000000000000000000000000000000000000000000000000000\n      dup2\n      mstore\n      0x04\n      add\n      tag_85\n      swap1\n      tag_86\n      jump\t// in\n    tag_85:\n      mload(0x40)\n      dup1\n      swap2\n      sub\n      swap1\n      revert\n    tag_84:\n        /* \"auction/contracts/AucEngine.sol\":2443:2447  true */\n      0x01\n        /* \"auction/contracts/AucEngine.sol\":2425:2432  auction */\n      dup3\n        /* \"auction/contracts/AucEngine.sol\":2425:2440  auction.stopped */\n      0x07\n      add\n      0x00\n        /* \"auction/contracts/AucEngine.sol\":2425:2447  auction.stopped = true */\n      0x0100\n      exp\n      dup2\n      sload\n      dup2\n      0xff\n      mul\n      not\n      and\n      swap1\n      dup4\n      iszero\n      iszero\n      mul\n      or\n      swap1\n      sstore\n      pop\n        /* \"auction/contracts/AucEngine.sol\":2479:2484  price */\n      dup1\n        /* \"auction/contracts/AucEngine.sol\":2458:2465  auction */\n      dup3\n        /* \"auction/contracts/AucEngine.sol\":2458:2476  auction.finalPrice */\n      0x02\n      add\n        /* \"auction/contracts/AucEngine.sol\":2458:2484  auction.finalPrice = price */\n      dup2\n      swap1\n      sstore\n      pop\n        /* \"auction/contracts/AucEngine.sol\":2495:2506  uint refund */\n      0x00\n        /* \"auction/contracts/AucEngine.sol\":2521:2526  price */\n      dup2\n        /* \"auction/contracts/AucEngine.sol\":2509:2518  msg.value */\n      callvalue\n        /* \"auction/contracts/AucEngine.sol\":2509:2526  msg.value - price */\n      tag_87\n      swap2\n      swap1\n      tag_55\n      jump\t// in\n    tag_87:\n        /* \"auction/contracts/AucEngine.sol\":2495:2526  uint refund = msg.value - price */\n      swap1\n      pop\n        /* \"auction/contracts/AucEngine.sol\":2550:2551  0 */\n      0x00\n        /* \"auction/contracts/AucEngine.sol\":2541:2547  refund */\n      dup2\n        /* \"auction/contracts/AucEngine.sol\":2541:2551  refund > 0 */\n      gt\n        /* \"auction/contracts/AucEngine.sol\":2537:2616  if (refund > 0){... */\n      iszero\n      tag_88\n      jumpi\n        /* \"auction/contracts/AucEngine.sol\":2576:2586  msg.sender */\n      caller\n        /* \"auction/contracts/AucEngine.sol\":2567:2596  payable (msg.sender).transfer */\n      0xffffffffffffffffffffffffffffffffffffffff\n      and\n        /* \"auction/contracts/AucEngine.sol\":2567:2604  payable (msg.sender).transfer(refund) */\n      0x08fc\n        /* \"auction/contracts/AucEngine.sol\":2597:2603  refund */\n      dup3\n        /* \"auction/contracts/AucEngine.sol\":2567:2604  payable (msg.sender).transfer(refund) */\n      swap1\n      dup2\n      iszero\n      mul\n      swap1\n      mload(0x40)\n      0x00\n      mload(0x40)\n      dup1\n      dup4\n      sub\n      dup2\n      dup6\n      dup9\n      dup9\n      call\n      swap4\n      pop\n      pop\n      pop\n      pop\n      iszero\n      dup1\n      iszero\n      tag_90\n      jumpi\n      returndatasize\n      0x00\n      dup1\n      returndatacopy\n      revert(0x00, returndatasize)\n    tag_90:\n      pop\n        /* \"auction/contracts/AucEngine.sol\":2537:2616  if (refund > 0){... */\n    tag_88:\n        /* \"auction/contracts/AucEngine.sol\":2637:2644  auction */\n      dup3\n        /* \"auction/contracts/AucEngine.sol\":2637:2651  auction.seller */\n      0x00\n      add\n      0x00\n      swap1\n      sload\n      swap1\n      0x0100\n      exp\n      swap1\n      div\n      0xffffffffffffffffffffffffffffffffffffffff\n      and\n        /* \"auction/contracts/AucEngine.sol\":2628:2661  payable (auction.seller).transfer */\n      0xffffffffffffffffffffffffffffffffffffffff\n      and\n        /* \"auction/contracts/AucEngine.sol\":2628:2692  payable (auction.seller).transfer(price - ((price * FEE) / 100)) */\n      0x08fc\n        /* \"auction/contracts/AucEngine.sol\":2687:2690  100 */\n      0x64\n        /* \"auction/contracts/AucEngine.sol\":170:172  10 */\n      0x0a\n        /* \"auction/contracts/AucEngine.sol\":2672:2677  price */\n      dup6\n        /* \"auction/contracts/AucEngine.sol\":2672:2683  price * FEE */\n      tag_91\n      swap2\n      swap1\n      tag_57\n      jump\t// in\n    tag_91:\n        /* \"auction/contracts/AucEngine.sol\":2671:2690  (price * FEE) / 100 */\n      tag_92\n      swap2\n      swap1\n      tag_93\n      jump\t// in\n    tag_92:\n        /* \"auction/contracts/AucEngine.sol\":2662:2667  price */\n      dup5\n        /* \"auction/contracts/AucEngine.sol\":2662:2691  price - ((price * FEE) / 100) */\n      tag_94\n      swap2\n      swap1\n      tag_55\n      jump\t// in\n    tag_94:\n        /* \"auction/contracts/AucEngine.sol\":2628:2692  payable (auction.seller).transfer(price - ((price * FEE) / 100)) */\n      swap1\n      dup2\n      iszero\n      mul\n      swap1\n      mload(0x40)\n      0x00\n      mload(0x40)\n      dup1\n      dup4\n      sub\n      dup2\n      dup6\n      dup9\n      dup9\n      call\n      swap4\n      pop\n      pop\n      pop\n      pop\n      iszero\n      dup1\n      iszero\n      tag_96\n      jumpi\n      returndatasize\n      0x00\n      dup1\n      returndatacopy\n      revert(0x00, returndatasize)\n    tag_96:\n      pop\n        /* \"auction/contracts/AucEngine.sol\":2708:2746  AuctionEnded(index, price, msg.sender) */\n      0xbafc4bda865d4d1f8d5b16f883e996fde0fe71112fac81503876d35375694400\n        /* \"auction/contracts/AucEngine.sol\":2721:2726  index */\n      dup5\n        /* \"auction/contracts/AucEngine.sol\":2728:2733  price */\n      dup4\n        /* \"auction/contracts/AucEngine.sol\":2735:2745  msg.sender */\n      caller\n        /* \"auction/contracts/AucEngine.sol\":2708:2746  AuctionEnded(index, price, msg.sender) */\n      mload(0x40)\n      tag_97\n      swap4\n      swap3\n      swap2\n      swap1\n      tag_98\n      jump\t// in\n    tag_97:\n      mload(0x40)\n      dup1\n      swap2\n      sub\n      swap1\n      log1\n        /* \"auction/contracts/AucEngine.sol\":2105:2754  {... */\n      pop\n      pop\n      pop\n        /* \"auction/contracts/AucEngine.sol\":2063:2754  function buy(uint index) external payable {... */\n      pop\n      jump\t// out\n        /* \"auction/contracts/AucEngine.sol\":857:1625  function createAuction(uint _startingPrice, uint _discountRate, string calldata _item, uint _duration) external {... */\n    tag_36:\n        /* \"auction/contracts/AucEngine.sol\":980:993  uint duration */\n      0x00\n        /* \"auction/contracts/AucEngine.sol\":1009:1010  0 */\n      dup1\n        /* \"auction/contracts/AucEngine.sol\":996:1005  _duration */\n      dup3\n        /* \"auction/contracts/AucEngine.sol\":996:1010  _duration == 0 */\n      eq\n        /* \"auction/contracts/AucEngine.sol\":996:1033  _duration == 0 ? DURATION : _duration */\n      tag_100\n      jumpi\n        /* \"auction/contracts/AucEngine.sol\":1024:1033  _duration */\n      dup2\n        /* \"auction/contracts/AucEngine.sol\":996:1033  _duration == 0 ? DURATION : _duration */\n      jump(tag_101)\n    tag_100:\n        /* \"auction/contracts/AucEngine.sol\":137:143  2 days */\n      0x02a300\n        /* \"auction/contracts/AucEngine.sol\":996:1033  _duration == 0 ? DURATION : _duration */\n    tag_101:\n        /* \"auction/contracts/AucEngine.sol\":980:1033  uint duration = _duration == 0 ? DURATION : _duration */\n      swap1\n      pop\n        /* \"auction/contracts/AucEngine.sol\":1086:1095  _duration */\n      dup2\n        /* \"auction/contracts/AucEngine.sol\":1070:1083  _discountRate */\n      dup6\n        /* \"auction/contracts/AucEngine.sol\":1070:1095  _discountRate * _duration */\n      tag_102\n      swap2\n      swap1\n      tag_57\n      jump\t// in\n    tag_102:\n        /* \"auction/contracts/AucEngine.sol\":1052:1066  _startingPrice */\n      dup7\n        /* \"auction/contracts/AucEngine.sol\":1052:1095  _startingPrice >= _discountRate * _duration */\n      lt\n      iszero\n        /* \"auction/contracts/AucEngine.sol\":1044:1124  require(_startingPrice >= _discountRate * _duration, \"incorrect starting price\") */\n      tag_103\n      jumpi\n      mload(0x40)\n      0x08c379a000000000000000000000000000000000000000000000000000000000\n      dup2\n      mstore\n      0x04\n      add\n      tag_104\n      swap1\n      tag_105\n      jump\t// in\n    tag_104:\n      mload(0x40)\n      dup1\n      swap2\n      sub\n      swap1\n      revert\n    tag_103:\n        /* \"auction/contracts/AucEngine.sol\":1135:1161  Auction memory newAauction */\n      0x00\n        /* \"auction/contracts/AucEngine.sol\":1165:1495  Auction({... */\n      mload(0x40)\n      dup1\n      0x0100\n      add\n      0x40\n      mstore\n      dup1\n        /* \"auction/contracts/AucEngine.sol\":1204:1214  msg.sender */\n      caller\n        /* \"auction/contracts/AucEngine.sol\":1165:1495  Auction({... */\n      0xffffffffffffffffffffffffffffffffffffffff\n      and\n      dup2\n      mstore\n      0x20\n      add\n        /* \"auction/contracts/AucEngine.sol\":1242:1256  _startingPrice */\n      dup9\n        /* \"auction/contracts/AucEngine.sol\":1165:1495  Auction({... */\n      dup2\n      mstore\n      0x20\n      add\n        /* \"auction/contracts/AucEngine.sol\":1283:1297  _startingPrice */\n      dup9\n        /* \"auction/contracts/AucEngine.sol\":1165:1495  Auction({... */\n      dup2\n      mstore\n      0x20\n      add\n        /* \"auction/contracts/AucEngine.sol\":1321:1336  block.timestamp */\n      timestamp\n        /* \"auction/contracts/AucEngine.sol\":1165:1495  Auction({... */\n      dup2\n      mstore\n      0x20\n      add\n        /* \"auction/contracts/AucEngine.sol\":1377:1386  _duration */\n      dup5\n        /* \"auction/contracts/AucEngine.sol\":1359:1374  block.timestamp */\n      timestamp\n        /* \"auction/contracts/AucEngine.sol\":1359:1386  block.timestamp + _duration */\n      tag_106\n      swap2\n      swap1\n      tag_107\n      jump\t// in\n    tag_106:\n        /* \"auction/contracts/AucEngine.sol\":1165:1495  Auction({... */\n      dup2\n      mstore\n      0x20\n      add\n        /* \"auction/contracts/AucEngine.sol\":1415:1428  _discountRate */\n      dup8\n        /* \"auction/contracts/AucEngine.sol\":1165:1495  Auction({... */\n      dup2\n      mstore\n      0x20\n      add\n        /* \"auction/contracts/AucEngine.sol\":1449:1454  _item */\n      dup7\n      dup7\n        /* \"auction/contracts/AucEngine.sol\":1165:1495  Auction({... */\n      dup1\n      dup1\n      0x1f\n      add\n      0x20\n      dup1\n      swap2\n      div\n      mul\n      0x20\n      add\n      mload(0x40)\n      swap1\n      dup2\n      add\n      0x40\n      mstore\n      dup1\n      swap4\n      swap3\n      swap2\n      swap1\n      dup2\n      dup2\n      mstore\n      0x20\n      add\n      dup4\n      dup4\n      dup1\n      dup3\n      dup5\n      calldatacopy\n      0x00\n      dup2\n      dup5\n      add\n      mstore\n      not(0x1f)\n      0x1f\n      dup3\n      add\n      and\n      swap1\n      pop\n      dup1\n      dup4\n      add\n      swap3\n      pop\n      pop\n      pop\n      pop\n      pop\n      pop\n      pop\n      dup2\n      mstore\n      0x20\n      add\n        /* \"auction/contracts/AucEngine.sol\":1478:1483  false */\n      0x00\n        /* \"auction/contracts/AucEngine.sol\":1165:1495  Auction({... */\n      iszero\n      iszero\n      dup2\n      mstore\n      pop\n        /* \"auction/contracts/AucEngine.sol\":1135:1495  Auction memory newAauction  = Auction({... */\n      swap1\n      pop\n        /* \"auction/contracts/AucEngine.sol\":1506:1514  auctions */\n      0x01\n        /* \"auction/contracts/AucEngine.sol\":1520:1531  newAauction */\n      dup2\n        /* \"auction/contracts/AucEngine.sol\":1506:1532  auctions.push(newAauction) */\n      swap1\n      dup1\n      0x01\n      dup2\n      sload\n      add\n      dup1\n      dup3\n      sstore\n      dup1\n      swap2\n      pop\n      pop\n      0x01\n      swap1\n      sub\n      swap1\n      0x00\n      mstore\n      keccak256(0x00, 0x20)\n      swap1\n      0x08\n      mul\n      add\n      0x00\n      swap1\n      swap2\n      swap1\n      swap2\n      swap1\n      swap2\n      pop\n      0x00\n      dup3\n      add\n      mload\n      dup2\n      0x00\n      add\n      exp(0x0100, 0x00)\n      dup2\n      sload\n      dup2\n      0xffffffffffffffffffffffffffffffffffffffff\n      mul\n      not\n      and\n      swap1\n      dup4\n      0xffffffffffffffffffffffffffffffffffffffff\n      and\n      mul\n      or\n      swap1\n      sstore\n      pop\n      0x20\n      dup3\n      add\n      mload\n      dup2\n      0x01\n      add\n      sstore\n      0x40\n      dup3\n      add\n      mload\n      dup2\n      0x02\n      add\n      sstore\n      0x60\n      dup3\n      add\n      mload\n      dup2\n      0x03\n      add\n      sstore\n      0x80\n      dup3\n      add\n      mload\n      dup2\n      0x04\n      add\n      sstore\n      0xa0\n      dup3\n      add\n      mload\n      dup2\n      0x05\n      add\n      sstore\n      0xc0\n      dup3\n      add\n      mload\n      dup2\n      0x06\n      add\n      swap1\n      dup2\n      tag_109\n      swap2\n      swap1\n      tag_110\n      jump\t// in\n    tag_109:\n      pop\n      0xe0\n      dup3\n      add\n      mload\n      dup2\n      0x07\n      add\n      exp(0x0100, 0x00)\n      dup2\n      sload\n      dup2\n      0xff\n      mul\n      not\n      and\n      swap1\n      dup4\n      iszero\n      iszero\n      mul\n      or\n      swap1\n      sstore\n      pop\n      pop\n      pop\n        /* \"auction/contracts/AucEngine.sol\":1550:1617  AuctionCreated(auctions.length -1, _item, _startingPrice, duration) */\n      0x5bf34ed94988e5dcdc7d1faaa54eb1d3b55f45d5f11457e235afb21a8ebbe73c\n        /* \"auction/contracts/AucEngine.sol\":1582:1583  1 */\n      0x01\n        /* \"auction/contracts/AucEngine.sol\":1565:1573  auctions */\n      dup1\n        /* \"auction/contracts/AucEngine.sol\":1565:1580  auctions.length */\n      dup1\n      sload\n      swap1\n      pop\n        /* \"auction/contracts/AucEngine.sol\":1565:1583  auctions.length -1 */\n      tag_111\n      swap2\n      swap1\n      tag_55\n      jump\t// in\n    tag_111:\n        /* \"auction/contracts/AucEngine.sol\":1585:1590  _item */\n      dup7\n      dup7\n        /* \"auction/contracts/AucEngine.sol\":1592:1606  _startingPrice */\n      dup11\n        /* \"auction/contracts/AucEngine.sol\":1608:1616  duration */\n      dup7\n        /* \"auction/contracts/AucEngine.sol\":1550:1617  AuctionCreated(auctions.length -1, _item, _startingPrice, duration) */\n      mload(0x40)\n      tag_112\n      swap6\n      swap5\n      swap4\n      swap3\n      swap2\n      swap1\n      tag_113\n      jump\t// in\n    tag_112:\n      mload(0x40)\n      dup1\n      swap2\n      sub\n      swap1\n      log1\n        /* \"auction/contracts/AucEngine.sol\":969:1625  {... */\n      pop\n      pop\n        /* \"auction/contracts/AucEngine.sol\":857:1625  function createAuction(uint _startingPrice, uint _discountRate, string calldata _item, uint _duration) external {... */\n      pop\n      pop\n      pop\n      pop\n      pop\n      jump\t// out\n        /* \"#utility.yul\":88:205   */\n    tag_115:\n        /* \"#utility.yul\":197:198   */\n      0x00\n        /* \"#utility.yul\":194:195   */\n      dup1\n        /* \"#utility.yul\":187:199   */\n      revert\n        /* \"#utility.yul\":211:328   */\n    tag_116:\n        /* \"#utility.yul\":320:321   */\n      0x00\n        /* \"#utility.yul\":317:318   */\n      dup1\n        /* \"#utility.yul\":310:322   */\n      revert\n        /* \"#utility.yul\":334:411   */\n    tag_117:\n        /* \"#utility.yul\":371:378   */\n      0x00\n        /* \"#utility.yul\":400:405   */\n      dup2\n        /* \"#utility.yul\":389:405   */\n      swap1\n      pop\n        /* \"#utility.yul\":334:411   */\n      swap2\n      swap1\n      pop\n      jump\t// out\n        /* \"#utility.yul\":417:539   */\n    tag_118:\n        /* \"#utility.yul\":490:514   */\n      tag_178\n        /* \"#utility.yul\":508:513   */\n      dup2\n        /* \"#utility.yul\":490:514   */\n      tag_117\n      jump\t// in\n    tag_178:\n        /* \"#utility.yul\":483:488   */\n      dup2\n        /* \"#utility.yul\":480:515   */\n      eq\n        /* \"#utility.yul\":470:533   */\n      tag_179\n      jumpi\n        /* \"#utility.yul\":529:530   */\n      0x00\n        /* \"#utility.yul\":526:527   */\n      dup1\n        /* \"#utility.yul\":519:531   */\n      revert\n        /* \"#utility.yul\":470:533   */\n    tag_179:\n        /* \"#utility.yul\":417:539   */\n      pop\n      jump\t// out\n        /* \"#utility.yul\":545:684   */\n    tag_119:\n        /* \"#utility.yul\":591:596   */\n      0x00\n        /* \"#utility.yul\":629:635   */\n      dup2\n        /* \"#utility.yul\":616:636   */\n      calldataload\n        /* \"#utility.yul\":607:636   */\n      swap1\n      pop\n        /* \"#utility.yul\":645:678   */\n      tag_181\n        /* \"#utility.yul\":672:677   */\n      dup2\n        /* \"#utility.yul\":645:678   */\n      tag_118\n      jump\t// in\n    tag_181:\n        /* \"#utility.yul\":545:684   */\n      swap3\n      swap2\n      pop\n      pop\n      jump\t// out\n        /* \"#utility.yul\":690:1019   */\n    tag_11:\n        /* \"#utility.yul\":749:755   */\n      0x00\n        /* \"#utility.yul\":798:800   */\n      0x20\n        /* \"#utility.yul\":786:795   */\n      dup3\n        /* \"#utility.yul\":777:784   */\n      dup5\n        /* \"#utility.yul\":773:796   */\n      sub\n        /* \"#utility.yul\":769:801   */\n      slt\n        /* \"#utility.yul\":766:885   */\n      iszero\n      tag_183\n      jumpi\n        /* \"#utility.yul\":804:883   */\n      tag_184\n      tag_115\n      jump\t// in\n    tag_184:\n        /* \"#utility.yul\":766:885   */\n    tag_183:\n        /* \"#utility.yul\":924:925   */\n      0x00\n        /* \"#utility.yul\":949:1002   */\n      tag_185\n        /* \"#utility.yul\":994:1001   */\n      dup5\n        /* \"#utility.yul\":985:991   */\n      dup3\n        /* \"#utility.yul\":974:983   */\n      dup6\n        /* \"#utility.yul\":970:992   */\n      add\n        /* \"#utility.yul\":949:1002   */\n      tag_119\n      jump\t// in\n    tag_185:\n        /* \"#utility.yul\":939:1002   */\n      swap2\n      pop\n        /* \"#utility.yul\":895:1012   */\n      pop\n        /* \"#utility.yul\":690:1019   */\n      swap3\n      swap2\n      pop\n      pop\n      jump\t// out\n        /* \"#utility.yul\":1025:1143   */\n    tag_120:\n        /* \"#utility.yul\":1112:1136   */\n      tag_187\n        /* \"#utility.yul\":1130:1135   */\n      dup2\n        /* \"#utility.yul\":1112:1136   */\n      tag_117\n      jump\t// in\n    tag_187:\n        /* \"#utility.yul\":1107:1110   */\n      dup3\n        /* \"#utility.yul\":1100:1137   */\n      mstore\n        /* \"#utility.yul\":1025:1143   */\n      pop\n      pop\n      jump\t// out\n        /* \"#utility.yul\":1149:1371   */\n    tag_14:\n        /* \"#utility.yul\":1242:1246   */\n      0x00\n        /* \"#utility.yul\":1280:1282   */\n      0x20\n        /* \"#utility.yul\":1269:1278   */\n      dup3\n        /* \"#utility.yul\":1265:1283   */\n      add\n        /* \"#utility.yul\":1257:1283   */\n      swap1\n      pop\n        /* \"#utility.yul\":1293:1364   */\n      tag_189\n        /* \"#utility.yul\":1361:1362   */\n      0x00\n        /* \"#utility.yul\":1350:1359   */\n      dup4\n        /* \"#utility.yul\":1346:1363   */\n      add\n        /* \"#utility.yul\":1337:1343   */\n      dup5\n        /* \"#utility.yul\":1293:1364   */\n      tag_120\n      jump\t// in\n    tag_189:\n        /* \"#utility.yul\":1149:1371   */\n      swap3\n      swap2\n      pop\n      pop\n      jump\t// out\n        /* \"#utility.yul\":1377:1503   */\n    tag_121:\n        /* \"#utility.yul\":1414:1421   */\n      0x00\n        /* \"#utility.yul\":1454:1496   */\n      0xffffffffffffffffffffffffffffffffffffffff\n        /* \"#utility.yul\":1447:1452   */\n      dup3\n        /* \"#utility.yul\":1443:1497   */\n      and\n        /* \"#utility.yul\":1432:1497   */\n      swap1\n      pop\n        /* \"#utility.yul\":1377:1503   */\n      swap2\n      swap1\n      pop\n      jump\t// out\n        /* \"#utility.yul\":1509:1613   */\n    tag_122:\n        /* \"#utility.yul\":1554:1561   */\n      0x00\n        /* \"#utility.yul\":1583:1607   */\n      tag_192\n        /* \"#utility.yul\":1601:1606   */\n      dup3\n        /* \"#utility.yul\":1583:1607   */\n      tag_121\n      jump\t// in\n    tag_192:\n        /* \"#utility.yul\":1572:1607   */\n      swap1\n      pop\n        /* \"#utility.yul\":1509:1613   */\n      swap2\n      swap1\n      pop\n      jump\t// out\n        /* \"#utility.yul\":1619:1761   */\n    tag_123:\n        /* \"#utility.yul\":1722:1754   */\n      tag_194\n        /* \"#utility.yul\":1748:1753   */\n      dup2\n        /* \"#utility.yul\":1722:1754   */\n      tag_122\n      jump\t// in\n    tag_194:\n        /* \"#utility.yul\":1717:1720   */\n      dup3\n        /* \"#utility.yul\":1710:1755   */\n      mstore\n        /* \"#utility.yul\":1619:1761   */\n      pop\n      pop\n      jump\t// out\n        /* \"#utility.yul\":1767:1866   */\n    tag_124:\n        /* \"#utility.yul\":1819:1825   */\n      0x00\n        /* \"#utility.yul\":1853:1858   */\n      dup2\n        /* \"#utility.yul\":1847:1859   */\n      mload\n        /* \"#utility.yul\":1837:1859   */\n      swap1\n      pop\n        /* \"#utility.yul\":1767:1866   */\n      swap2\n      swap1\n      pop\n      jump\t// out\n        /* \"#utility.yul\":1872:2041   */\n    tag_125:\n        /* \"#utility.yul\":1956:1967   */\n      0x00\n        /* \"#utility.yul\":1990:1996   */\n      dup3\n        /* \"#utility.yul\":1985:1988   */\n      dup3\n        /* \"#utility.yul\":1978:1997   */\n      mstore\n        /* \"#utility.yul\":2030:2034   */\n      0x20\n        /* \"#utility.yul\":2025:2028   */\n      dup3\n        /* \"#utility.yul\":2021:2035   */\n      add\n        /* \"#utility.yul\":2006:2035   */\n      swap1\n      pop\n        /* \"#utility.yul\":1872:2041   */\n      swap3\n      swap2\n      pop\n      pop\n      jump\t// out\n        /* \"#utility.yul\":2047:2293   */\n    tag_126:\n        /* \"#utility.yul\":2128:2129   */\n      0x00\n        /* \"#utility.yul\":2138:2251   */\n    tag_198:\n        /* \"#utility.yul\":2152:2158   */\n      dup4\n        /* \"#utility.yul\":2149:2150   */\n      dup2\n        /* \"#utility.yul\":2146:2159   */\n      lt\n        /* \"#utility.yul\":2138:2251   */\n      iszero\n      tag_200\n      jumpi\n        /* \"#utility.yul\":2237:2238   */\n      dup1\n        /* \"#utility.yul\":2232:2235   */\n      dup3\n        /* \"#utility.yul\":2228:2239   */\n      add\n        /* \"#utility.yul\":2222:2240   */\n      mload\n        /* \"#utility.yul\":2218:2219   */\n      dup2\n        /* \"#utility.yul\":2213:2216   */\n      dup5\n        /* \"#utility.yul\":2209:2220   */\n      add\n        /* \"#utility.yul\":2202:2241   */\n      mstore\n        /* \"#utility.yul\":2174:2176   */\n      0x20\n        /* \"#utility.yul\":2171:2172   */\n      dup2\n        /* \"#utility.yul\":2167:2177   */\n      add\n        /* \"#utility.yul\":2162:2177   */\n      swap1\n      pop\n        /* \"#utility.yul\":2138:2251   */\n      jump(tag_198)\n    tag_200:\n        /* \"#utility.yul\":2285:2286   */\n      0x00\n        /* \"#utility.yul\":2276:2282   */\n      dup5\n        /* \"#utility.yul\":2271:2274   */\n      dup5\n        /* \"#utility.yul\":2267:2283   */\n      add\n        /* \"#utility.yul\":2260:2287   */\n      mstore\n        /* \"#utility.yul\":2109:2293   */\n      pop\n        /* \"#utility.yul\":2047:2293   */\n      pop\n      pop\n      pop\n      jump\t// out\n        /* \"#utility.yul\":2299:2401   */\n    tag_127:\n        /* \"#utility.yul\":2340:2346   */\n      0x00\n        /* \"#utility.yul\":2391:2393   */\n      0x1f\n        /* \"#utility.yul\":2387:2394   */\n      not\n        /* \"#utility.yul\":2382:2384   */\n      0x1f\n        /* \"#utility.yul\":2375:2380   */\n      dup4\n        /* \"#utility.yul\":2371:2385   */\n      add\n        /* \"#utility.yul\":2367:2395   */\n      and\n        /* \"#utility.yul\":2357:2395   */\n      swap1\n      pop\n        /* \"#utility.yul\":2299:2401   */\n      swap2\n      swap1\n      pop\n      jump\t// out\n        /* \"#utility.yul\":2407:2784   */\n    tag_128:\n        /* \"#utility.yul\":2495:2498   */\n      0x00\n        /* \"#utility.yul\":2523:2562   */\n      tag_203\n        /* \"#utility.yul\":2556:2561   */\n      dup3\n        /* \"#utility.yul\":2523:2562   */\n      tag_124\n      jump\t// in\n    tag_203:\n        /* \"#utility.yul\":2578:2649   */\n      tag_204\n        /* \"#utility.yul\":2642:2648   */\n      dup2\n        /* \"#utility.yul\":2637:2640   */\n      dup6\n        /* \"#utility.yul\":2578:2649   */\n      tag_125\n      jump\t// in\n    tag_204:\n        /* \"#utility.yul\":2571:2649   */\n      swap4\n      pop\n        /* \"#utility.yul\":2658:2723   */\n      tag_205\n        /* \"#utility.yul\":2716:2722   */\n      dup2\n        /* \"#utility.yul\":2711:2714   */\n      dup6\n        /* \"#utility.yul\":2704:2708   */\n      0x20\n        /* \"#utility.yul\":2697:2702   */\n      dup7\n        /* \"#utility.yul\":2693:2709   */\n      add\n        /* \"#utility.yul\":2658:2723   */\n      tag_126\n      jump\t// in\n    tag_205:\n        /* \"#utility.yul\":2748:2777   */\n      tag_206\n        /* \"#utility.yul\":2770:2776   */\n      dup2\n        /* \"#utility.yul\":2748:2777   */\n      tag_127\n      jump\t// in\n    tag_206:\n        /* \"#utility.yul\":2743:2746   */\n      dup5\n        /* \"#utility.yul\":2739:2778   */\n      add\n        /* \"#utility.yul\":2732:2778   */\n      swap2\n      pop\n        /* \"#utility.yul\":2499:2784   */\n      pop\n        /* \"#utility.yul\":2407:2784   */\n      swap3\n      swap2\n      pop\n      pop\n      jump\t// out\n        /* \"#utility.yul\":2790:2880   */\n    tag_129:\n        /* \"#utility.yul\":2824:2831   */\n      0x00\n        /* \"#utility.yul\":2867:2872   */\n      dup2\n        /* \"#utility.yul\":2860:2873   */\n      iszero\n        /* \"#utility.yul\":2853:2874   */\n      iszero\n        /* \"#utility.yul\":2842:2874   */\n      swap1\n      pop\n        /* \"#utility.yul\":2790:2880   */\n      swap2\n      swap1\n      pop\n      jump\t// out\n        /* \"#utility.yul\":2886:2995   */\n    tag_130:\n        /* \"#utility.yul\":2967:2988   */\n      tag_209\n        /* \"#utility.yul\":2982:2987   */\n      dup2\n        /* \"#utility.yul\":2967:2988   */\n      tag_129\n      jump\t// in\n    tag_209:\n        /* \"#utility.yul\":2962:2965   */\n      dup3\n        /* \"#utility.yul\":2955:2989   */\n      mstore\n        /* \"#utility.yul\":2886:2995   */\n      pop\n      pop\n      jump\t// out\n        /* \"#utility.yul\":3001:4109   */\n    tag_20:\n        /* \"#utility.yul\":3320:3324   */\n      0x00\n        /* \"#utility.yul\":3358:3361   */\n      0x0100\n        /* \"#utility.yul\":3347:3356   */\n      dup3\n        /* \"#utility.yul\":3343:3362   */\n      add\n        /* \"#utility.yul\":3335:3362   */\n      swap1\n      pop\n        /* \"#utility.yul\":3372:3459   */\n      tag_211\n        /* \"#utility.yul\":3456:3457   */\n      0x00\n        /* \"#utility.yul\":3445:3454   */\n      dup4\n        /* \"#utility.yul\":3441:3458   */\n      add\n        /* \"#utility.yul\":3432:3438   */\n      dup12\n        /* \"#utility.yul\":3372:3459   */\n      tag_123\n      jump\t// in\n    tag_211:\n        /* \"#utility.yul\":3469:3541   */\n      tag_212\n        /* \"#utility.yul\":3537:3539   */\n      0x20\n        /* \"#utility.yul\":3526:3535   */\n      dup4\n        /* \"#utility.yul\":3522:3540   */\n      add\n        /* \"#utility.yul\":3513:3519   */\n      dup11\n        /* \"#utility.yul\":3469:3541   */\n      tag_120\n      jump\t// in\n    tag_212:\n        /* \"#utility.yul\":3551:3623   */\n      tag_213\n        /* \"#utility.yul\":3619:3621   */\n      0x40\n        /* \"#utility.yul\":3608:3617   */\n      dup4\n        /* \"#utility.yul\":3604:3622   */\n      add\n        /* \"#utility.yul\":3595:3601   */\n      dup10\n        /* \"#utility.yul\":3551:3623   */\n      tag_120\n      jump\t// in\n    tag_213:\n        /* \"#utility.yul\":3633:3705   */\n      tag_214\n        /* \"#utility.yul\":3701:3703   */\n      0x60\n        /* \"#utility.yul\":3690:3699   */\n      dup4\n        /* \"#utility.yul\":3686:3704   */\n      add\n        /* \"#utility.yul\":3677:3683   */\n      dup9\n        /* \"#utility.yul\":3633:3705   */\n      tag_120\n      jump\t// in\n    tag_214:\n        /* \"#utility.yul\":3715:3788   */\n      tag_215\n        /* \"#utility.yul\":3783:3786   */\n      0x80\n        /* \"#utility.yul\":3772:3781   */\n      dup4\n        /* \"#utility.yul\":3768:3787   */\n      add\n        /* \"#utility.yul\":3759:3765   */\n      dup8\n        /* \"#utility.yul\":3715:3788   */\n      tag_120\n      jump\t// in\n    tag_215:\n        /* \"#utility.yul\":3798:3871   */\n      tag_216\n        /* \"#utility.yul\":3866:3869   */\n      0xa0\n        /* \"#utility.yul\":3855:3864   */\n      dup4\n        /* \"#utility.yul\":3851:3870   */\n      add\n        /* \"#utility.yul\":3842:3848   */\n      dup7\n        /* \"#utility.yul\":3798:3871   */\n      tag_120\n      jump\t// in\n    tag_216:\n        /* \"#utility.yul\":3919:3928   */\n      dup2\n        /* \"#utility.yul\":3913:3917   */\n      dup2\n        /* \"#utility.yul\":3909:3929   */\n      sub\n        /* \"#utility.yul\":3903:3906   */\n      0xc0\n        /* \"#utility.yul\":3892:3901   */\n      dup4\n        /* \"#utility.yul\":3888:3907   */\n      add\n        /* \"#utility.yul\":3881:3930   */\n      mstore\n        /* \"#utility.yul\":3947:4025   */\n      tag_217\n        /* \"#utility.yul\":4020:4024   */\n      dup2\n        /* \"#utility.yul\":4011:4017   */\n      dup6\n        /* \"#utility.yul\":3947:4025   */\n      tag_128\n      jump\t// in\n    tag_217:\n        /* \"#utility.yul\":3939:4025   */\n      swap1\n      pop\n        /* \"#utility.yul\":4035:4102   */\n      tag_218\n        /* \"#utility.yul\":4097:4100   */\n      0xe0\n        /* \"#utility.yul\":4086:4095   */\n      dup4\n        /* \"#utility.yul\":4082:4101   */\n      add\n        /* \"#utility.yul\":4073:4079   */\n      dup5\n        /* \"#utility.yul\":4035:4102   */\n      tag_130\n      jump\t// in\n    tag_218:\n        /* \"#utility.yul\":3001:4109   */\n      swap10\n      swap9\n      pop\n      pop\n      pop\n      pop\n      pop\n      pop\n      pop\n      pop\n      pop\n      jump\t// out\n        /* \"#utility.yul\":4115:4211   */\n    tag_131:\n        /* \"#utility.yul\":4152:4159   */\n      0x00\n        /* \"#utility.yul\":4181:4205   */\n      tag_220\n        /* \"#utility.yul\":4199:4204   */\n      dup3\n        /* \"#utility.yul\":4181:4205   */\n      tag_121\n      jump\t// in\n    tag_220:\n        /* \"#utility.yul\":4170:4205   */\n      swap1\n      pop\n        /* \"#utility.yul\":4115:4211   */\n      swap2\n      swap1\n      pop\n      jump\t// out\n        /* \"#utility.yul\":4217:4335   */\n    tag_132:\n        /* \"#utility.yul\":4304:4328   */\n      tag_222\n        /* \"#utility.yul\":4322:4327   */\n      dup2\n        /* \"#utility.yul\":4304:4328   */\n      tag_131\n      jump\t// in\n    tag_222:\n        /* \"#utility.yul\":4299:4302   */\n      dup3\n        /* \"#utility.yul\":4292:4329   */\n      mstore\n        /* \"#utility.yul\":4217:4335   */\n      pop\n      pop\n      jump\t// out\n        /* \"#utility.yul\":4341:4563   */\n    tag_28:\n        /* \"#utility.yul\":4434:4438   */\n      0x00\n        /* \"#utility.yul\":4472:4474   */\n      0x20\n        /* \"#utility.yul\":4461:4470   */\n      dup3\n        /* \"#utility.yul\":4457:4475   */\n      add\n        /* \"#utility.yul\":4449:4475   */\n      swap1\n      pop\n        /* \"#utility.yul\":4485:4556   */\n      tag_224\n        /* \"#utility.yul\":4553:4554   */\n      0x00\n        /* \"#utility.yul\":4542:4551   */\n      dup4\n        /* \"#utility.yul\":4538:4555   */\n      add\n        /* \"#utility.yul\":4529:4535   */\n      dup5\n        /* \"#utility.yul\":4485:4556   */\n      tag_132\n      jump\t// in\n    tag_224:\n        /* \"#utility.yul\":4341:4563   */\n      swap3\n      swap2\n      pop\n      pop\n      jump\t// out\n        /* \"#utility.yul\":4569:4686   */\n    tag_133:\n        /* \"#utility.yul\":4678:4679   */\n      0x00\n        /* \"#utility.yul\":4675:4676   */\n      dup1\n        /* \"#utility.yul\":4668:4680   */\n      revert\n        /* \"#utility.yul\":4692:4809   */\n    tag_134:\n        /* \"#utility.yul\":4801:4802   */\n      0x00\n        /* \"#utility.yul\":4798:4799   */\n      dup1\n        /* \"#utility.yul\":4791:4803   */\n      revert\n        /* \"#utility.yul\":4815:4932   */\n    tag_135:\n        /* \"#utility.yul\":4924:4925   */\n      0x00\n        /* \"#utility.yul\":4921:4922   */\n      dup1\n        /* \"#utility.yul\":4914:4926   */\n      revert\n        /* \"#utility.yul\":4952:5505   */\n    tag_136:\n        /* \"#utility.yul\":5010:5018   */\n      0x00\n        /* \"#utility.yul\":5020:5026   */\n      dup1\n        /* \"#utility.yul\":5070:5073   */\n      dup4\n        /* \"#utility.yul\":5063:5067   */\n      0x1f\n        /* \"#utility.yul\":5055:5061   */\n      dup5\n        /* \"#utility.yul\":5051:5068   */\n      add\n        /* \"#utility.yul\":5047:5074   */\n      slt\n        /* \"#utility.yul\":5037:5159   */\n      tag_229\n      jumpi\n        /* \"#utility.yul\":5078:5157   */\n      tag_230\n      tag_133\n      jump\t// in\n    tag_230:\n        /* \"#utility.yul\":5037:5159   */\n    tag_229:\n        /* \"#utility.yul\":5191:5197   */\n      dup3\n        /* \"#utility.yul\":5178:5198   */\n      calldataload\n        /* \"#utility.yul\":5168:5198   */\n      swap1\n      pop\n        /* \"#utility.yul\":5221:5239   */\n      0xffffffffffffffff\n        /* \"#utility.yul\":5213:5219   */\n      dup2\n        /* \"#utility.yul\":5210:5240   */\n      gt\n        /* \"#utility.yul\":5207:5324   */\n      iszero\n      tag_231\n      jumpi\n        /* \"#utility.yul\":5243:5322   */\n      tag_232\n      tag_134\n      jump\t// in\n    tag_232:\n        /* \"#utility.yul\":5207:5324   */\n    tag_231:\n        /* \"#utility.yul\":5357:5361   */\n      0x20\n        /* \"#utility.yul\":5349:5355   */\n      dup4\n        /* \"#utility.yul\":5345:5362   */\n      add\n        /* \"#utility.yul\":5333:5362   */\n      swap2\n      pop\n        /* \"#utility.yul\":5411:5414   */\n      dup4\n        /* \"#utility.yul\":5403:5407   */\n      0x01\n        /* \"#utility.yul\":5395:5401   */\n      dup3\n        /* \"#utility.yul\":5391:5408   */\n      mul\n        /* \"#utility.yul\":5381:5389   */\n      dup4\n        /* \"#utility.yul\":5377:5409   */\n      add\n        /* \"#utility.yul\":5374:5415   */\n      gt\n        /* \"#utility.yul\":5371:5499   */\n      iszero\n      tag_233\n      jumpi\n        /* \"#utility.yul\":5418:5497   */\n      tag_234\n      tag_135\n      jump\t// in\n    tag_234:\n        /* \"#utility.yul\":5371:5499   */\n    tag_233:\n        /* \"#utility.yul\":4952:5505   */\n      swap3\n      pop\n      swap3\n      swap1\n      pop\n      jump\t// out\n        /* \"#utility.yul\":5511:6476   */\n    tag_35:\n        /* \"#utility.yul\":5609:5615   */\n      0x00\n        /* \"#utility.yul\":5617:5623   */\n      dup1\n        /* \"#utility.yul\":5625:5631   */\n      0x00\n        /* \"#utility.yul\":5633:5639   */\n      dup1\n        /* \"#utility.yul\":5641:5647   */\n      0x00\n        /* \"#utility.yul\":5690:5693   */\n      0x80\n        /* \"#utility.yul\":5678:5687   */\n      dup7\n        /* \"#utility.yul\":5669:5676   */\n      dup9\n        /* \"#utility.yul\":5665:5688   */\n      sub\n        /* \"#utility.yul\":5661:5694   */\n      slt\n        /* \"#utility.yul\":5658:5778   */\n      iszero\n      tag_236\n      jumpi\n        /* \"#utility.yul\":5697:5776   */\n      tag_237\n      tag_115\n      jump\t// in\n    tag_237:\n        /* \"#utility.yul\":5658:5778   */\n    tag_236:\n        /* \"#utility.yul\":5817:5818   */\n      0x00\n        /* \"#utility.yul\":5842:5895   */\n      tag_238\n        /* \"#utility.yul\":5887:5894   */\n      dup9\n        /* \"#utility.yul\":5878:5884   */\n      dup3\n        /* \"#utility.yul\":5867:5876   */\n      dup10\n        /* \"#utility.yul\":5863:5885   */\n      add\n        /* \"#utility.yul\":5842:5895   */\n      tag_119\n      jump\t// in\n    tag_238:\n        /* \"#utility.yul\":5832:5895   */\n      swap6\n      pop\n        /* \"#utility.yul\":5788:5905   */\n      pop\n        /* \"#utility.yul\":5944:5946   */\n      0x20\n        /* \"#utility.yul\":5970:6023   */\n      tag_239\n        /* \"#utility.yul\":6015:6022   */\n      dup9\n        /* \"#utility.yul\":6006:6012   */\n      dup3\n        /* \"#utility.yul\":5995:6004   */\n      dup10\n        /* \"#utility.yul\":5991:6013   */\n      add\n        /* \"#utility.yul\":5970:6023   */\n      tag_119\n      jump\t// in\n    tag_239:\n        /* \"#utility.yul\":5960:6023   */\n      swap5\n      pop\n        /* \"#utility.yul\":5915:6033   */\n      pop\n        /* \"#utility.yul\":6100:6102   */\n      0x40\n        /* \"#utility.yul\":6089:6098   */\n      dup7\n        /* \"#utility.yul\":6085:6103   */\n      add\n        /* \"#utility.yul\":6072:6104   */\n      calldataload\n        /* \"#utility.yul\":6131:6149   */\n      0xffffffffffffffff\n        /* \"#utility.yul\":6123:6129   */\n      dup2\n        /* \"#utility.yul\":6120:6150   */\n      gt\n        /* \"#utility.yul\":6117:6234   */\n      iszero\n      tag_240\n      jumpi\n        /* \"#utility.yul\":6153:6232   */\n      tag_241\n      tag_116\n      jump\t// in\n    tag_241:\n        /* \"#utility.yul\":6117:6234   */\n    tag_240:\n        /* \"#utility.yul\":6266:6331   */\n      tag_242\n        /* \"#utility.yul\":6323:6330   */\n      dup9\n        /* \"#utility.yul\":6314:6320   */\n      dup3\n        /* \"#utility.yul\":6303:6312   */\n      dup10\n        /* \"#utility.yul\":6299:6321   */\n      add\n        /* \"#utility.yul\":6266:6331   */\n      tag_136\n      jump\t// in\n    tag_242:\n        /* \"#utility.yul\":6248:6331   */\n      swap4\n      pop\n      swap4\n      pop\n        /* \"#utility.yul\":6043:6341   */\n      pop\n        /* \"#utility.yul\":6380:6382   */\n      0x60\n        /* \"#utility.yul\":6406:6459   */\n      tag_243\n        /* \"#utility.yul\":6451:6458   */\n      dup9\n        /* \"#utility.yul\":6442:6448   */\n      dup3\n        /* \"#utility.yul\":6431:6440   */\n      dup10\n        /* \"#utility.yul\":6427:6449   */\n      add\n        /* \"#utility.yul\":6406:6459   */\n      tag_119\n      jump\t// in\n    tag_243:\n        /* \"#utility.yul\":6396:6459   */\n      swap2\n      pop\n        /* \"#utility.yul\":6351:6469   */\n      pop\n        /* \"#utility.yul\":5511:6476   */\n      swap3\n      swap6\n      pop\n      swap3\n      swap6\n      swap1\n      swap4\n      pop\n      jump\t// out\n        /* \"#utility.yul\":6482:6662   */\n    tag_40:\n        /* \"#utility.yul\":6530:6607   */\n      0x4e487b7100000000000000000000000000000000000000000000000000000000\n        /* \"#utility.yul\":6527:6528   */\n      0x00\n        /* \"#utility.yul\":6520:6608   */\n      mstore\n        /* \"#utility.yul\":6627:6631   */\n      0x32\n        /* \"#utility.yul\":6624:6625   */\n      0x04\n        /* \"#utility.yul\":6617:6632   */\n      mstore\n        /* \"#utility.yul\":6651:6655   */\n      0x24\n        /* \"#utility.yul\":6648:6649   */\n      0x00\n        /* \"#utility.yul\":6641:6656   */\n      revert\n        /* \"#utility.yul\":6668:6848   */\n    tag_137:\n        /* \"#utility.yul\":6716:6793   */\n      0x4e487b7100000000000000000000000000000000000000000000000000000000\n        /* \"#utility.yul\":6713:6714   */\n      0x00\n        /* \"#utility.yul\":6706:6794   */\n      mstore\n        /* \"#utility.yul\":6813:6817   */\n      0x22\n        /* \"#utility.yul\":6810:6811   */\n      0x04\n        /* \"#utility.yul\":6803:6818   */\n      mstore\n        /* \"#utility.yul\":6837:6841   */\n      0x24\n        /* \"#utility.yul\":6834:6835   */\n      0x00\n        /* \"#utility.yul\":6827:6842   */\n      revert\n        /* \"#utility.yul\":6854:7174   */\n    tag_43:\n        /* \"#utility.yul\":6898:6904   */\n      0x00\n        /* \"#utility.yul\":6935:6936   */\n      0x02\n        /* \"#utility.yul\":6929:6933   */\n      dup3\n        /* \"#utility.yul\":6925:6937   */\n      div\n        /* \"#utility.yul\":6915:6937   */\n      swap1\n      pop\n        /* \"#utility.yul\":6982:6983   */\n      0x01\n        /* \"#utility.yul\":6976:6980   */\n      dup3\n        /* \"#utility.yul\":6972:6984   */\n      and\n        /* \"#utility.yul\":7003:7021   */\n      dup1\n        /* \"#utility.yul\":6993:7074   */\n      tag_247\n      jumpi\n        /* \"#utility.yul\":7059:7063   */\n      0x7f\n        /* \"#utility.yul\":7051:7057   */\n      dup3\n        /* \"#utility.yul\":7047:7064   */\n      and\n        /* \"#utility.yul\":7037:7064   */\n      swap2\n      pop\n        /* \"#utility.yul\":6993:7074   */\n    tag_247:\n        /* \"#utility.yul\":7121:7123   */\n      0x20\n        /* \"#utility.yul\":7113:7119   */\n      dup3\n        /* \"#utility.yul\":7110:7124   */\n      lt\n        /* \"#utility.yul\":7090:7108   */\n      dup2\n        /* \"#utility.yul\":7087:7125   */\n      sub\n        /* \"#utility.yul\":7084:7168   */\n      tag_248\n      jumpi\n        /* \"#utility.yul\":7140:7158   */\n      tag_249\n      tag_137\n      jump\t// in\n    tag_249:\n        /* \"#utility.yul\":7084:7168   */\n    tag_248:\n        /* \"#utility.yul\":6905:7174   */\n      pop\n        /* \"#utility.yul\":6854:7174   */\n      swap2\n      swap1\n      pop\n      jump\t// out\n        /* \"#utility.yul\":7180:7353   */\n    tag_138:\n        /* \"#utility.yul\":7320:7345   */\n      0x61756374696f6e20616c72656164792073746f70706564000000000000000000\n        /* \"#utility.yul\":7316:7317   */\n      0x00\n        /* \"#utility.yul\":7308:7314   */\n      dup3\n        /* \"#utility.yul\":7304:7318   */\n      add\n        /* \"#utility.yul\":7297:7346   */\n      mstore\n        /* \"#utility.yul\":7180:7353   */\n      pop\n      jump\t// out\n        /* \"#utility.yul\":7359:7725   */\n    tag_139:\n        /* \"#utility.yul\":7501:7504   */\n      0x00\n        /* \"#utility.yul\":7522:7589   */\n      tag_252\n        /* \"#utility.yul\":7586:7588   */\n      0x17\n        /* \"#utility.yul\":7581:7584   */\n      dup4\n        /* \"#utility.yul\":7522:7589   */\n      tag_125\n      jump\t// in\n    tag_252:\n        /* \"#utility.yul\":7515:7589   */\n      swap2\n      pop\n        /* \"#utility.yul\":7598:7691   */\n      tag_253\n        /* \"#utility.yul\":7687:7690   */\n      dup3\n        /* \"#utility.yul\":7598:7691   */\n      tag_138\n      jump\t// in\n    tag_253:\n        /* \"#utility.yul\":7716:7718   */\n      0x20\n        /* \"#utility.yul\":7711:7714   */\n      dup3\n        /* \"#utility.yul\":7707:7719   */\n      add\n        /* \"#utility.yul\":7700:7719   */\n      swap1\n      pop\n        /* \"#utility.yul\":7359:7725   */\n      swap2\n      swap1\n      pop\n      jump\t// out\n        /* \"#utility.yul\":7731:8150   */\n    tag_50:\n        /* \"#utility.yul\":7897:7901   */\n      0x00\n        /* \"#utility.yul\":7935:7937   */\n      0x20\n        /* \"#utility.yul\":7924:7933   */\n      dup3\n        /* \"#utility.yul\":7920:7938   */\n      add\n        /* \"#utility.yul\":7912:7938   */\n      swap1\n      pop\n        /* \"#utility.yul\":7984:7993   */\n      dup2\n        /* \"#utility.yul\":7978:7982   */\n      dup2\n        /* \"#utility.yul\":7974:7994   */\n      sub\n        /* \"#utility.yul\":7970:7971   */\n      0x00\n        /* \"#utility.yul\":7959:7968   */\n      dup4\n        /* \"#utility.yul\":7955:7972   */\n      add\n        /* \"#utility.yul\":7948:7995   */\n      mstore\n        /* \"#utility.yul\":8012:8143   */\n      tag_255\n        /* \"#utility.yul\":8138:8142   */\n      dup2\n        /* \"#utility.yul\":8012:8143   */\n      tag_139\n      jump\t// in\n    tag_255:\n        /* \"#utility.yul\":8004:8143   */\n      swap1\n      pop\n        /* \"#utility.yul\":7731:8150   */\n      swap2\n      swap1\n      pop\n      jump\t// out\n        /* \"#utility.yul\":8156:8327   */\n    tag_140:\n        /* \"#utility.yul\":8296:8319   */\n      0x61756374696f6e20616c726561647920656e6465640000000000000000000000\n        /* \"#utility.yul\":8292:8293   */\n      0x00\n        /* \"#utility.yul\":8284:8290   */\n      dup3\n        /* \"#utility.yul\":8280:8294   */\n      add\n        /* \"#utility.yul\":8273:8320   */\n      mstore\n        /* \"#utility.yul\":8156:8327   */\n      pop\n      jump\t// out\n        /* \"#utility.yul\":8333:8699   */\n    tag_141:\n        /* \"#utility.yul\":8475:8478   */\n      0x00\n        /* \"#utility.yul\":8496:8563   */\n      tag_258\n        /* \"#utility.yul\":8560:8562   */\n      0x15\n        /* \"#utility.yul\":8555:8558   */\n      dup4\n        /* \"#utility.yul\":8496:8563   */\n      tag_125\n      jump\t// in\n    tag_258:\n        /* \"#utility.yul\":8489:8563   */\n      swap2\n      pop\n        /* \"#utility.yul\":8572:8665   */\n      tag_259\n        /* \"#utility.yul\":8661:8664   */\n      dup3\n        /* \"#utility.yul\":8572:8665   */\n      tag_140\n      jump\t// in\n    tag_259:\n        /* \"#utility.yul\":8690:8692   */\n      0x20\n        /* \"#utility.yul\":8685:8688   */\n      dup3\n        /* \"#utility.yul\":8681:8693   */\n      add\n        /* \"#utility.yul\":8674:8693   */\n      swap1\n      pop\n        /* \"#utility.yul\":8333:8699   */\n      swap2\n      swap1\n      pop\n      jump\t// out\n        /* \"#utility.yul\":8705:9124   */\n    tag_53:\n        /* \"#utility.yul\":8871:8875   */\n      0x00\n        /* \"#utility.yul\":8909:8911   */\n      0x20\n        /* \"#utility.yul\":8898:8907   */\n      dup3\n        /* \"#utility.yul\":8894:8912   */\n      add\n        /* \"#utility.yul\":8886:8912   */\n      swap1\n      pop\n        /* \"#utility.yul\":8958:8967   */\n      dup2\n        /* \"#utility.yul\":8952:8956   */\n      dup2\n        /* \"#utility.yul\":8948:8968   */\n      sub\n        /* \"#utility.yul\":8944:8945   */\n      0x00\n        /* \"#utility.yul\":8933:8942   */\n      dup4\n        /* \"#utility.yul\":8929:8946   */\n      add\n        /* \"#utility.yul\":8922:8969   */\n      mstore\n        /* \"#utility.yul\":8986:9117   */\n      tag_261\n        /* \"#utility.yul\":9112:9116   */\n      dup2\n        /* \"#utility.yul\":8986:9117   */\n      tag_141\n      jump\t// in\n    tag_261:\n        /* \"#utility.yul\":8978:9117   */\n      swap1\n      pop\n        /* \"#utility.yul\":8705:9124   */\n      swap2\n      swap1\n      pop\n      jump\t// out\n        /* \"#utility.yul\":9130:9310   */\n    tag_142:\n        /* \"#utility.yul\":9178:9255   */\n      0x4e487b7100000000000000000000000000000000000000000000000000000000\n        /* \"#utility.yul\":9175:9176   */\n      0x00\n        /* \"#utility.yul\":9168:9256   */\n      mstore\n        /* \"#utility.yul\":9275:9279   */\n      0x11\n        /* \"#utility.yul\":9272:9273   */\n      0x04\n        /* \"#utility.yul\":9265:9280   */\n      mstore\n        /* \"#utility.yul\":9299:9303   */\n      0x24\n        /* \"#utility.yul\":9296:9297   */\n      0x00\n        /* \"#utility.yul\":9289:9304   */\n      revert\n        /* \"#utility.yul\":9316:9510   */\n    tag_55:\n        /* \"#utility.yul\":9356:9360   */\n      0x00\n        /* \"#utility.yul\":9376:9396   */\n      tag_264\n        /* \"#utility.yul\":9394:9395   */\n      dup3\n        /* \"#utility.yul\":9376:9396   */\n      tag_117\n      jump\t// in\n    tag_264:\n        /* \"#utility.yul\":9371:9396   */\n      swap2\n      pop\n        /* \"#utility.yul\":9410:9430   */\n      tag_265\n        /* \"#utility.yul\":9428:9429   */\n      dup4\n        /* \"#utility.yul\":9410:9430   */\n      tag_117\n      jump\t// in\n    tag_265:\n        /* \"#utility.yul\":9405:9430   */\n      swap3\n      pop\n        /* \"#utility.yul\":9454:9455   */\n      dup3\n        /* \"#utility.yul\":9451:9452   */\n      dup3\n        /* \"#utility.yul\":9447:9456   */\n      sub\n        /* \"#utility.yul\":9439:9456   */\n      swap1\n      pop\n        /* \"#utility.yul\":9478:9479   */\n      dup2\n        /* \"#utility.yul\":9472:9476   */\n      dup2\n        /* \"#utility.yul\":9469:9480   */\n      gt\n        /* \"#utility.yul\":9466:9503   */\n      iszero\n      tag_266\n      jumpi\n        /* \"#utility.yul\":9483:9501   */\n      tag_267\n      tag_142\n      jump\t// in\n    tag_267:\n        /* \"#utility.yul\":9466:9503   */\n    tag_266:\n        /* \"#utility.yul\":9316:9510   */\n      swap3\n      swap2\n      pop\n      pop\n      jump\t// out\n        /* \"#utility.yul\":9516:9926   */\n    tag_57:\n        /* \"#utility.yul\":9556:9563   */\n      0x00\n        /* \"#utility.yul\":9579:9599   */\n      tag_269\n        /* \"#utility.yul\":9597:9598   */\n      dup3\n        /* \"#utility.yul\":9579:9599   */\n      tag_117\n      jump\t// in\n    tag_269:\n        /* \"#utility.yul\":9574:9599   */\n      swap2\n      pop\n        /* \"#utility.yul\":9613:9633   */\n      tag_270\n        /* \"#utility.yul\":9631:9632   */\n      dup4\n        /* \"#utility.yul\":9613:9633   */\n      tag_117\n      jump\t// in\n    tag_270:\n        /* \"#utility.yul\":9608:9633   */\n      swap3\n      pop\n        /* \"#utility.yul\":9668:9669   */\n      dup3\n        /* \"#utility.yul\":9665:9666   */\n      dup3\n        /* \"#utility.yul\":9661:9670   */\n      mul\n        /* \"#utility.yul\":9690:9720   */\n      tag_271\n        /* \"#utility.yul\":9708:9719   */\n      dup2\n        /* \"#utility.yul\":9690:9720   */\n      tag_117\n      jump\t// in\n    tag_271:\n        /* \"#utility.yul\":9679:9720   */\n      swap2\n      pop\n        /* \"#utility.yul\":9869:9870   */\n      dup3\n        /* \"#utility.yul\":9860:9867   */\n      dup3\n        /* \"#utility.yul\":9856:9871   */\n      div\n        /* \"#utility.yul\":9853:9854   */\n      dup5\n        /* \"#utility.yul\":9850:9872   */\n      eq\n        /* \"#utility.yul\":9830:9831   */\n      dup4\n        /* \"#utility.yul\":9823:9832   */\n      iszero\n        /* \"#utility.yul\":9803:9886   */\n      or\n        /* \"#utility.yul\":9780:9919   */\n      tag_272\n      jumpi\n        /* \"#utility.yul\":9899:9917   */\n      tag_273\n      tag_142\n      jump\t// in\n    tag_273:\n        /* \"#utility.yul\":9780:9919   */\n    tag_272:\n        /* \"#utility.yul\":9564:9926   */\n      pop\n        /* \"#utility.yul\":9516:9926   */\n      swap3\n      swap2\n      pop\n      pop\n      jump\t// out\n        /* \"#utility.yul\":9932:10112   */\n    tag_143:\n        /* \"#utility.yul\":10072:10104   */\n      0x596f7520617265206e6f7420616c6c6f77656420746f20646f20746869730000\n        /* \"#utility.yul\":10068:10069   */\n      0x00\n        /* \"#utility.yul\":10060:10066   */\n      dup3\n        /* \"#utility.yul\":10056:10070   */\n      add\n        /* \"#utility.yul\":10049:10105   */\n      mstore\n        /* \"#utility.yul\":9932:10112   */\n      pop\n      jump\t// out\n        /* \"#utility.yul\":10118:10484   */\n    tag_144:\n        /* \"#utility.yul\":10260:10263   */\n      0x00\n        /* \"#utility.yul\":10281:10348   */\n      tag_276\n        /* \"#utility.yul\":10345:10347   */\n      0x1e\n        /* \"#utility.yul\":10340:10343   */\n      dup4\n        /* \"#utility.yul\":10281:10348   */\n      tag_125\n      jump\t// in\n    tag_276:\n        /* \"#utility.yul\":10274:10348   */\n      swap2\n      pop\n        /* \"#utility.yul\":10357:10450   */\n      tag_277\n        /* \"#utility.yul\":10446:10449   */\n      dup3\n        /* \"#utility.yul\":10357:10450   */\n      tag_143\n      jump\t// in\n    tag_277:\n        /* \"#utility.yul\":10475:10477   */\n      0x20\n        /* \"#utility.yul\":10470:10473   */\n      dup3\n        /* \"#utility.yul\":10466:10478   */\n      add\n        /* \"#utility.yul\":10459:10478   */\n      swap1\n      pop\n        /* \"#utility.yul\":10118:10484   */\n      swap2\n      swap1\n      pop\n      jump\t// out\n        /* \"#utility.yul\":10490:10909   */\n    tag_69:\n        /* \"#utility.yul\":10656:10660   */\n      0x00\n        /* \"#utility.yul\":10694:10696   */\n      0x20\n        /* \"#utility.yul\":10683:10692   */\n      dup3\n        /* \"#utility.yul\":10679:10697   */\n      add\n        /* \"#utility.yul\":10671:10697   */\n      swap1\n      pop\n        /* \"#utility.yul\":10743:10752   */\n      dup2\n        /* \"#utility.yul\":10737:10741   */\n      dup2\n        /* \"#utility.yul\":10733:10753   */\n      sub\n        /* \"#utility.yul\":10729:10730   */\n      0x00\n        /* \"#utility.yul\":10718:10727   */\n      dup4\n        /* \"#utility.yul\":10714:10731   */\n      add\n        /* \"#utility.yul\":10707:10754   */\n      mstore\n        /* \"#utility.yul\":10771:10902   */\n      tag_279\n        /* \"#utility.yul\":10897:10901   */\n      dup2\n        /* \"#utility.yul\":10771:10902   */\n      tag_144\n      jump\t// in\n    tag_279:\n        /* \"#utility.yul\":10763:10902   */\n      swap1\n      pop\n        /* \"#utility.yul\":10490:10909   */\n      swap2\n      swap1\n      pop\n      jump\t// out\n        /* \"#utility.yul\":10915:11086   */\n    tag_145:\n        /* \"#utility.yul\":11055:11078   */\n      0x41756374696f6e20616c726561647920656e6465640000000000000000000000\n        /* \"#utility.yul\":11051:11052   */\n      0x00\n        /* \"#utility.yul\":11043:11049   */\n      dup3\n        /* \"#utility.yul\":11039:11053   */\n      add\n        /* \"#utility.yul\":11032:11079   */\n      mstore\n        /* \"#utility.yul\":10915:11086   */\n      pop\n      jump\t// out\n        /* \"#utility.yul\":11092:11458   */\n    tag_146:\n        /* \"#utility.yul\":11234:11237   */\n      0x00\n        /* \"#utility.yul\":11255:11322   */\n      tag_282\n        /* \"#utility.yul\":11319:11321   */\n      0x15\n        /* \"#utility.yul\":11314:11317   */\n      dup4\n        /* \"#utility.yul\":11255:11322   */\n      tag_125\n      jump\t// in\n    tag_282:\n        /* \"#utility.yul\":11248:11322   */\n      swap2\n      pop\n        /* \"#utility.yul\":11331:11424   */\n      tag_283\n        /* \"#utility.yul\":11420:11423   */\n      dup3\n        /* \"#utility.yul\":11331:11424   */\n      tag_145\n      jump\t// in\n    tag_283:\n        /* \"#utility.yul\":11449:11451   */\n      0x20\n        /* \"#utility.yul\":11444:11447   */\n      dup3\n        /* \"#utility.yul\":11440:11452   */\n      add\n        /* \"#utility.yul\":11433:11452   */\n      swap1\n      pop\n        /* \"#utility.yul\":11092:11458   */\n      swap2\n      swap1\n      pop\n      jump\t// out\n        /* \"#utility.yul\":11464:11883   */\n    tag_79:\n        /* \"#utility.yul\":11630:11634   */\n      0x00\n        /* \"#utility.yul\":11668:11670   */\n      0x20\n        /* \"#utility.yul\":11657:11666   */\n      dup3\n        /* \"#utility.yul\":11653:11671   */\n      add\n        /* \"#utility.yul\":11645:11671   */\n      swap1\n      pop\n        /* \"#utility.yul\":11717:11726   */\n      dup2\n        /* \"#utility.yul\":11711:11715   */\n      dup2\n        /* \"#utility.yul\":11707:11727   */\n      sub\n        /* \"#utility.yul\":11703:11704   */\n      0x00\n        /* \"#utility.yul\":11692:11701   */\n      dup4\n        /* \"#utility.yul\":11688:11705   */\n      add\n        /* \"#utility.yul\":11681:11728   */\n      mstore\n        /* \"#utility.yul\":11745:11876   */\n      tag_285\n        /* \"#utility.yul\":11871:11875   */\n      dup2\n        /* \"#utility.yul\":11745:11876   */\n      tag_146\n      jump\t// in\n    tag_285:\n        /* \"#utility.yul\":11737:11876   */\n      swap1\n      pop\n        /* \"#utility.yul\":11464:11883   */\n      swap2\n      swap1\n      pop\n      jump\t// out\n        /* \"#utility.yul\":11889:12062   */\n    tag_147:\n        /* \"#utility.yul\":12029:12054   */\n      0x41756374696f6e20616c72656164792073746f70706564000000000000000000\n        /* \"#utility.yul\":12025:12026   */\n      0x00\n        /* \"#utility.yul\":12017:12023   */\n      dup3\n        /* \"#utility.yul\":12013:12027   */\n      add\n        /* \"#utility.yul\":12006:12055   */\n      mstore\n        /* \"#utility.yul\":11889:12062   */\n      pop\n      jump\t// out\n        /* \"#utility.yul\":12068:12434   */\n    tag_148:\n        /* \"#utility.yul\":12210:12213   */\n      0x00\n        /* \"#utility.yul\":12231:12298   */\n      tag_288\n        /* \"#utility.yul\":12295:12297   */\n      0x17\n        /* \"#utility.yul\":12290:12293   */\n      dup4\n        /* \"#utility.yul\":12231:12298   */\n      tag_125\n      jump\t// in\n    tag_288:\n        /* \"#utility.yul\":12224:12298   */\n      swap2\n      pop\n        /* \"#utility.yul\":12307:12400   */\n      tag_289\n        /* \"#utility.yul\":12396:12399   */\n      dup3\n        /* \"#utility.yul\":12307:12400   */\n      tag_147\n      jump\t// in\n    tag_289:\n        /* \"#utility.yul\":12425:12427   */\n      0x20\n        /* \"#utility.yul\":12420:12423   */\n      dup3\n        /* \"#utility.yul\":12416:12428   */\n      add\n        /* \"#utility.yul\":12409:12428   */\n      swap1\n      pop\n        /* \"#utility.yul\":12068:12434   */\n      swap2\n      swap1\n      pop\n      jump\t// out\n        /* \"#utility.yul\":12440:12859   */\n    tag_82:\n        /* \"#utility.yul\":12606:12610   */\n      0x00\n        /* \"#utility.yul\":12644:12646   */\n      0x20\n        /* \"#utility.yul\":12633:12642   */\n      dup3\n        /* \"#utility.yul\":12629:12647   */\n      add\n        /* \"#utility.yul\":12621:12647   */\n      swap1\n      pop\n        /* \"#utility.yul\":12693:12702   */\n      dup2\n        /* \"#utility.yul\":12687:12691   */\n      dup2\n        /* \"#utility.yul\":12683:12703   */\n      sub\n        /* \"#utility.yul\":12679:12680   */\n      0x00\n        /* \"#utility.yul\":12668:12677   */\n      dup4\n        /* \"#utility.yul\":12664:12681   */\n      add\n        /* \"#utility.yul\":12657:12704   */\n      mstore\n        /* \"#utility.yul\":12721:12852   */\n      tag_291\n        /* \"#utility.yul\":12847:12851   */\n      dup2\n        /* \"#utility.yul\":12721:12852   */\n      tag_148\n      jump\t// in\n    tag_291:\n        /* \"#utility.yul\":12713:12852   */\n      swap1\n      pop\n        /* \"#utility.yul\":12440:12859   */\n      swap2\n      swap1\n      pop\n      jump\t// out\n        /* \"#utility.yul\":12865:13085   */\n    tag_149:\n        /* \"#utility.yul\":13005:13039   */\n      0x4e6f7420656e6f7567682066756e647320746f20627579207468697320697465\n        /* \"#utility.yul\":13001:13002   */\n      0x00\n        /* \"#utility.yul\":12993:12999   */\n      dup3\n        /* \"#utility.yul\":12989:13003   */\n      add\n        /* \"#utility.yul\":12982:13040   */\n      mstore\n        /* \"#utility.yul\":13074:13077   */\n      0x6d00000000000000000000000000000000000000000000000000000000000000\n        /* \"#utility.yul\":13069:13071   */\n      0x20\n        /* \"#utility.yul\":13061:13067   */\n      dup3\n        /* \"#utility.yul\":13057:13072   */\n      add\n        /* \"#utility.yul\":13050:13078   */\n      mstore\n        /* \"#utility.yul\":12865:13085   */\n      pop\n      jump\t// out\n        /* \"#utility.yul\":13091:13457   */\n    tag_150:\n        /* \"#utility.yul\":13233:13236   */\n      0x00\n        /* \"#utility.yul\":13254:13321   */\n      tag_294\n        /* \"#utility.yul\":13318:13320   */\n      0x21\n        /* \"#utility.yul\":13313:13316   */\n      dup4\n        /* \"#utility.yul\":13254:13321   */\n      tag_125\n      jump\t// in\n    tag_294:\n        /* \"#utility.yul\":13247:13321   */\n      swap2\n      pop\n        /* \"#utility.yul\":13330:13423   */\n      tag_295\n        /* \"#utility.yul\":13419:13422   */\n      dup3\n        /* \"#utility.yul\":13330:13423   */\n      tag_149\n      jump\t// in\n    tag_295:\n        /* \"#utility.yul\":13448:13450   */\n      0x40\n        /* \"#utility.yul\":13443:13446   */\n      dup3\n        /* \"#utility.yul\":13439:13451   */\n      add\n        /* \"#utility.yul\":13432:13451   */\n      swap1\n      pop\n        /* \"#utility.yul\":13091:13457   */\n      swap2\n      swap1\n      pop\n      jump\t// out\n        /* \"#utility.yul\":13463:13882   */\n    tag_86:\n        /* \"#utility.yul\":13629:13633   */\n      0x00\n        /* \"#utility.yul\":13667:13669   */\n      0x20\n        /* \"#utility.yul\":13656:13665   */\n      dup3\n        /* \"#utility.yul\":13652:13670   */\n      add\n        /* \"#utility.yul\":13644:13670   */\n      swap1\n      pop\n        /* \"#utility.yul\":13716:13725   */\n      dup2\n        /* \"#utility.yul\":13710:13714   */\n      dup2\n        /* \"#utility.yul\":13706:13726   */\n      sub\n        /* \"#utility.yul\":13702:13703   */\n      0x00\n        /* \"#utility.yul\":13691:13700   */\n      dup4\n        /* \"#utility.yul\":13687:13704   */\n      add\n        /* \"#utility.yul\":13680:13727   */\n      mstore\n        /* \"#utility.yul\":13744:13875   */\n      tag_297\n        /* \"#utility.yul\":13870:13874   */\n      dup2\n        /* \"#utility.yul\":13744:13875   */\n      tag_150\n      jump\t// in\n    tag_297:\n        /* \"#utility.yul\":13736:13875   */\n      swap1\n      pop\n        /* \"#utility.yul\":13463:13882   */\n      swap2\n      swap1\n      pop\n      jump\t// out\n        /* \"#utility.yul\":13888:14068   */\n    tag_151:\n        /* \"#utility.yul\":13936:14013   */\n      0x4e487b7100000000000000000000000000000000000000000000000000000000\n        /* \"#utility.yul\":13933:13934   */\n      0x00\n        /* \"#utility.yul\":13926:14014   */\n      mstore\n        /* \"#utility.yul\":14033:14037   */\n      0x12\n        /* \"#utility.yul\":14030:14031   */\n      0x04\n        /* \"#utility.yul\":14023:14038   */\n      mstore\n        /* \"#utility.yul\":14057:14061   */\n      0x24\n        /* \"#utility.yul\":14054:14055   */\n      0x00\n        /* \"#utility.yul\":14047:14062   */\n      revert\n        /* \"#utility.yul\":14074:14259   */\n    tag_93:\n        /* \"#utility.yul\":14114:14115   */\n      0x00\n        /* \"#utility.yul\":14131:14151   */\n      tag_300\n        /* \"#utility.yul\":14149:14150   */\n      dup3\n        /* \"#utility.yul\":14131:14151   */\n      tag_117\n      jump\t// in\n    tag_300:\n        /* \"#utility.yul\":14126:14151   */\n      swap2\n      pop\n        /* \"#utility.yul\":14165:14185   */\n      tag_301\n        /* \"#utility.yul\":14183:14184   */\n      dup4\n        /* \"#utility.yul\":14165:14185   */\n      tag_117\n      jump\t// in\n    tag_301:\n        /* \"#utility.yul\":14160:14185   */\n      swap3\n      pop\n        /* \"#utility.yul\":14204:14205   */\n      dup3\n        /* \"#utility.yul\":14194:14229   */\n      tag_302\n      jumpi\n        /* \"#utility.yul\":14209:14227   */\n      tag_303\n      tag_151\n      jump\t// in\n    tag_303:\n        /* \"#utility.yul\":14194:14229   */\n    tag_302:\n        /* \"#utility.yul\":14251:14252   */\n      dup3\n        /* \"#utility.yul\":14248:14249   */\n      dup3\n        /* \"#utility.yul\":14244:14253   */\n      div\n        /* \"#utility.yul\":14239:14253   */\n      swap1\n      pop\n        /* \"#utility.yul\":14074:14259   */\n      swap3\n      swap2\n      pop\n      pop\n      jump\t// out\n        /* \"#utility.yul\":14265:14707   */\n    tag_98:\n        /* \"#utility.yul\":14414:14418   */\n      0x00\n        /* \"#utility.yul\":14452:14454   */\n      0x60\n        /* \"#utility.yul\":14441:14450   */\n      dup3\n        /* \"#utility.yul\":14437:14455   */\n      add\n        /* \"#utility.yul\":14429:14455   */\n      swap1\n      pop\n        /* \"#utility.yul\":14465:14536   */\n      tag_305\n        /* \"#utility.yul\":14533:14534   */\n      0x00\n        /* \"#utility.yul\":14522:14531   */\n      dup4\n        /* \"#utility.yul\":14518:14535   */\n      add\n        /* \"#utility.yul\":14509:14515   */\n      dup7\n        /* \"#utility.yul\":14465:14536   */\n      tag_120\n      jump\t// in\n    tag_305:\n        /* \"#utility.yul\":14546:14618   */\n      tag_306\n        /* \"#utility.yul\":14614:14616   */\n      0x20\n        /* \"#utility.yul\":14603:14612   */\n      dup4\n        /* \"#utility.yul\":14599:14617   */\n      add\n        /* \"#utility.yul\":14590:14596   */\n      dup6\n        /* \"#utility.yul\":14546:14618   */\n      tag_120\n      jump\t// in\n    tag_306:\n        /* \"#utility.yul\":14628:14700   */\n      tag_307\n        /* \"#utility.yul\":14696:14698   */\n      0x40\n        /* \"#utility.yul\":14685:14694   */\n      dup4\n        /* \"#utility.yul\":14681:14699   */\n      add\n        /* \"#utility.yul\":14672:14678   */\n      dup5\n        /* \"#utility.yul\":14628:14700   */\n      tag_132\n      jump\t// in\n    tag_307:\n        /* \"#utility.yul\":14265:14707   */\n      swap5\n      swap4\n      pop\n      pop\n      pop\n      pop\n      jump\t// out\n        /* \"#utility.yul\":14713:14887   */\n    tag_152:\n        /* \"#utility.yul\":14853:14879   */\n      0x696e636f7272656374207374617274696e672070726963650000000000000000\n        /* \"#utility.yul\":14849:14850   */\n      0x00\n        /* \"#utility.yul\":14841:14847   */\n      dup3\n        /* \"#utility.yul\":14837:14851   */\n      add\n        /* \"#utility.yul\":14830:14880   */\n      mstore\n        /* \"#utility.yul\":14713:14887   */\n      pop\n      jump\t// out\n        /* \"#utility.yul\":14893:15259   */\n    tag_153:\n        /* \"#utility.yul\":15035:15038   */\n      0x00\n        /* \"#utility.yul\":15056:15123   */\n      tag_310\n        /* \"#utility.yul\":15120:15122   */\n      0x18\n        /* \"#utility.yul\":15115:15118   */\n      dup4\n        /* \"#utility.yul\":15056:15123   */\n      tag_125\n      jump\t// in\n    tag_310:\n        /* \"#utility.yul\":15049:15123   */\n      swap2\n      pop\n        /* \"#utility.yul\":15132:15225   */\n      tag_311\n        /* \"#utility.yul\":15221:15224   */\n      dup3\n        /* \"#utility.yul\":15132:15225   */\n      tag_152\n      jump\t// in\n    tag_311:\n        /* \"#utility.yul\":15250:15252   */\n      0x20\n        /* \"#utility.yul\":15245:15248   */\n      dup3\n        /* \"#utility.yul\":15241:15253   */\n      add\n        /* \"#utility.yul\":15234:15253   */\n      swap1\n      pop\n        /* \"#utility.yul\":14893:15259   */\n      swap2\n      swap1\n      pop\n      jump\t// out\n        /* \"#utility.yul\":15265:15684   */\n    tag_105:\n        /* \"#utility.yul\":15431:15435   */\n      0x00\n        /* \"#utility.yul\":15469:15471   */\n      0x20\n        /* \"#utility.yul\":15458:15467   */\n      dup3\n        /* \"#utility.yul\":15454:15472   */\n      add\n        /* \"#utility.yul\":15446:15472   */\n      swap1\n      pop\n        /* \"#utility.yul\":15518:15527   */\n      dup2\n        /* \"#utility.yul\":15512:15516   */\n      dup2\n        /* \"#utility.yul\":15508:15528   */\n      sub\n        /* \"#utility.yul\":15504:15505   */\n      0x00\n        /* \"#utility.yul\":15493:15502   */\n      dup4\n        /* \"#utility.yul\":15489:15506   */\n      add\n        /* \"#utility.yul\":15482:15529   */\n      mstore\n        /* \"#utility.yul\":15546:15677   */\n      tag_313\n        /* \"#utility.yul\":15672:15676   */\n      dup2\n        /* \"#utility.yul\":15546:15677   */\n      tag_153\n      jump\t// in\n    tag_313:\n        /* \"#utility.yul\":15538:15677   */\n      swap1\n      pop\n        /* \"#utility.yul\":15265:15684   */\n      swap2\n      swap1\n      pop\n      jump\t// out\n        /* \"#utility.yul\":15690:15881   */\n    tag_107:\n        /* \"#utility.yul\":15730:15733   */\n      0x00\n        /* \"#utility.yul\":15749:15769   */\n      tag_315\n        /* \"#utility.yul\":15767:15768   */\n      dup3\n        /* \"#utility.yul\":15749:15769   */\n      tag_117\n      jump\t// in\n    tag_315:\n        /* \"#utility.yul\":15744:15769   */\n      swap2\n      pop\n        /* \"#utility.yul\":15783:15803   */\n      tag_316\n        /* \"#utility.yul\":15801:15802   */\n      dup4\n        /* \"#utility.yul\":15783:15803   */\n      tag_117\n      jump\t// in\n    tag_316:\n        /* \"#utility.yul\":15778:15803   */\n      swap3\n      pop\n        /* \"#utility.yul\":15826:15827   */\n      dup3\n        /* \"#utility.yul\":15823:15824   */\n      dup3\n        /* \"#utility.yul\":15819:15828   */\n      add\n        /* \"#utility.yul\":15812:15828   */\n      swap1\n      pop\n        /* \"#utility.yul\":15847:15850   */\n      dup1\n        /* \"#utility.yul\":15844:15845   */\n      dup3\n        /* \"#utility.yul\":15841:15851   */\n      gt\n        /* \"#utility.yul\":15838:15874   */\n      iszero\n      tag_317\n      jumpi\n        /* \"#utility.yul\":15854:15872   */\n      tag_318\n      tag_142\n      jump\t// in\n    tag_318:\n        /* \"#utility.yul\":15838:15874   */\n    tag_317:\n        /* \"#utility.yul\":15690:15881   */\n      swap3\n      swap2\n      pop\n      pop\n      jump\t// out\n        /* \"#utility.yul\":15887:16067   */\n    tag_154:\n        /* \"#utility.yul\":15935:16012   */\n      0x4e487b7100000000000000000000000000000000000000000000000000000000\n        /* \"#utility.yul\":15932:15933   */\n      0x00\n        /* \"#utility.yul\":15925:16013   */\n      mstore\n        /* \"#utility.yul\":16032:16036   */\n      0x41\n        /* \"#utility.yul\":16029:16030   */\n      0x04\n        /* \"#utility.yul\":16022:16037   */\n      mstore\n        /* \"#utility.yul\":16056:16060   */\n      0x24\n        /* \"#utility.yul\":16053:16054   */\n      0x00\n        /* \"#utility.yul\":16046:16061   */\n      revert\n        /* \"#utility.yul\":16073:16214   */\n    tag_155:\n        /* \"#utility.yul\":16122:16126   */\n      0x00\n        /* \"#utility.yul\":16145:16148   */\n      dup2\n        /* \"#utility.yul\":16137:16148   */\n      swap1\n      pop\n        /* \"#utility.yul\":16168:16171   */\n      dup2\n        /* \"#utility.yul\":16165:16166   */\n      0x00\n        /* \"#utility.yul\":16158:16172   */\n      mstore\n        /* \"#utility.yul\":16202:16206   */\n      0x20\n        /* \"#utility.yul\":16199:16200   */\n      0x00\n        /* \"#utility.yul\":16189:16207   */\n      keccak256\n        /* \"#utility.yul\":16181:16207   */\n      swap1\n      pop\n        /* \"#utility.yul\":16073:16214   */\n      swap2\n      swap1\n      pop\n      jump\t// out\n        /* \"#utility.yul\":16220:16313   */\n    tag_156:\n        /* \"#utility.yul\":16257:16263   */\n      0x00\n        /* \"#utility.yul\":16304:16306   */\n      0x20\n        /* \"#utility.yul\":16299:16301   */\n      0x1f\n        /* \"#utility.yul\":16292:16297   */\n      dup4\n        /* \"#utility.yul\":16288:16302   */\n      add\n        /* \"#utility.yul\":16284:16307   */\n      div\n        /* \"#utility.yul\":16274:16307   */\n      swap1\n      pop\n        /* \"#utility.yul\":16220:16313   */\n      swap2\n      swap1\n      pop\n      jump\t// out\n        /* \"#utility.yul\":16319:16426   */\n    tag_157:\n        /* \"#utility.yul\":16363:16371   */\n      0x00\n        /* \"#utility.yul\":16413:16418   */\n      dup3\n        /* \"#utility.yul\":16407:16411   */\n      dup3\n        /* \"#utility.yul\":16403:16419   */\n      shl\n        /* \"#utility.yul\":16382:16419   */\n      swap1\n      pop\n        /* \"#utility.yul\":16319:16426   */\n      swap3\n      swap2\n      pop\n      pop\n      jump\t// out\n        /* \"#utility.yul\":16432:16825   */\n    tag_158:\n        /* \"#utility.yul\":16501:16507   */\n      0x00\n        /* \"#utility.yul\":16551:16552   */\n      0x08\n        /* \"#utility.yul\":16539:16549   */\n      dup4\n        /* \"#utility.yul\":16535:16553   */\n      mul\n        /* \"#utility.yul\":16574:16671   */\n      tag_324\n        /* \"#utility.yul\":16604:16670   */\n      0xffffffffffffffffffffffffffffffffffffffffffffffffffffffffffffffff\n        /* \"#utility.yul\":16593:16602   */\n      dup3\n        /* \"#utility.yul\":16574:16671   */\n      tag_157\n      jump\t// in\n    tag_324:\n        /* \"#utility.yul\":16692:16731   */\n      tag_325\n        /* \"#utility.yul\":16722:16730   */\n      dup7\n        /* \"#utility.yul\":16711:16720   */\n      dup4\n        /* \"#utility.yul\":16692:16731   */\n      tag_157\n      jump\t// in\n    tag_325:\n        /* \"#utility.yul\":16680:16731   */\n      swap6\n      pop\n        /* \"#utility.yul\":16764:16768   */\n      dup1\n        /* \"#utility.yul\":16760:16769   */\n      not\n        /* \"#utility.yul\":16753:16758   */\n      dup5\n        /* \"#utility.yul\":16749:16770   */\n      and\n        /* \"#utility.yul\":16740:16770   */\n      swap4\n      pop\n        /* \"#utility.yul\":16813:16817   */\n      dup1\n        /* \"#utility.yul\":16803:16811   */\n      dup7\n        /* \"#utility.yul\":16799:16818   */\n      and\n        /* \"#utility.yul\":16792:16797   */\n      dup5\n        /* \"#utility.yul\":16789:16819   */\n      or\n        /* \"#utility.yul\":16779:16819   */\n      swap3\n      pop\n        /* \"#utility.yul\":16508:16825   */\n      pop\n      pop\n        /* \"#utility.yul\":16432:16825   */\n      swap4\n      swap3\n      pop\n      pop\n      pop\n      jump\t// out\n        /* \"#utility.yul\":16831:16891   */\n    tag_159:\n        /* \"#utility.yul\":16859:16862   */\n      0x00\n        /* \"#utility.yul\":16880:16885   */\n      dup2\n        /* \"#utility.yul\":16873:16885   */\n      swap1\n      pop\n        /* \"#utility.yul\":16831:16891   */\n      swap2\n      swap1\n      pop\n      jump\t// out\n        /* \"#utility.yul\":16897:17039   */\n    tag_160:\n        /* \"#utility.yul\":16947:16956   */\n      0x00\n        /* \"#utility.yul\":16980:17033   */\n      tag_328\n        /* \"#utility.yul\":16998:17032   */\n      tag_329\n        /* \"#utility.yul\":17007:17031   */\n      tag_330\n        /* \"#utility.yul\":17025:17030   */\n      dup5\n        /* \"#utility.yul\":17007:17031   */\n      tag_117\n      jump\t// in\n    tag_330:\n        /* \"#utility.yul\":16998:17032   */\n      tag_159\n      jump\t// in\n    tag_329:\n        /* \"#utility.yul\":16980:17033   */\n      tag_117\n      jump\t// in\n    tag_328:\n        /* \"#utility.yul\":16967:17033   */\n      swap1\n      pop\n        /* \"#utility.yul\":16897:17039   */\n      swap2\n      swap1\n      pop\n      jump\t// out\n        /* \"#utility.yul\":17045:17120   */\n    tag_161:\n        /* \"#utility.yul\":17088:17091   */\n      0x00\n        /* \"#utility.yul\":17109:17114   */\n      dup2\n        /* \"#utility.yul\":17102:17114   */\n      swap1\n      pop\n        /* \"#utility.yul\":17045:17120   */\n      swap2\n      swap1\n      pop\n      jump\t// out\n        /* \"#utility.yul\":17126:17395   */\n    tag_162:\n        /* \"#utility.yul\":17236:17275   */\n      tag_333\n        /* \"#utility.yul\":17267:17274   */\n      dup4\n        /* \"#utility.yul\":17236:17275   */\n      tag_160\n      jump\t// in\n    tag_333:\n        /* \"#utility.yul\":17297:17388   */\n      tag_334\n        /* \"#utility.yul\":17346:17387   */\n      tag_335\n        /* \"#utility.yul\":17370:17386   */\n      dup3\n        /* \"#utility.yul\":17346:17387   */\n      tag_161\n      jump\t// in\n    tag_335:\n        /* \"#utility.yul\":17338:17344   */\n      dup5\n        /* \"#utility.yul\":17331:17335   */\n      dup5\n        /* \"#utility.yul\":17325:17336   */\n      sload\n        /* \"#utility.yul\":17297:17388   */\n      tag_158\n      jump\t// in\n    tag_334:\n        /* \"#utility.yul\":17291:17295   */\n      dup3\n        /* \"#utility.yul\":17284:17389   */\n      sstore\n        /* \"#utility.yul\":17202:17395   */\n      pop\n        /* \"#utility.yul\":17126:17395   */\n      pop\n      pop\n      pop\n      jump\t// out\n        /* \"#utility.yul\":17401:17474   */\n    tag_163:\n        /* \"#utility.yul\":17446:17449   */\n      0x00\n        /* \"#utility.yul\":17401:17474   */\n      swap1\n      jump\t// out\n        /* \"#utility.yul\":17480:17669   */\n    tag_164:\n        /* \"#utility.yul\":17557:17589   */\n      tag_338\n      tag_163\n      jump\t// in\n    tag_338:\n        /* \"#utility.yul\":17598:17663   */\n      tag_339\n        /* \"#utility.yul\":17656:17662   */\n      dup2\n        /* \"#utility.yul\":17648:17654   */\n      dup5\n        /* \"#utility.yul\":17642:17646   */\n      dup5\n        /* \"#utility.yul\":17598:17663   */\n      tag_162\n      jump\t// in\n    tag_339:\n        /* \"#utility.yul\":17533:17669   */\n      pop\n        /* \"#utility.yul\":17480:17669   */\n      pop\n      pop\n      jump\t// out\n        /* \"#utility.yul\":17675:17861   */\n    tag_165:\n        /* \"#utility.yul\":17735:17855   */\n    tag_341:\n        /* \"#utility.yul\":17752:17755   */\n      dup2\n        /* \"#utility.yul\":17745:17750   */\n      dup2\n        /* \"#utility.yul\":17742:17756   */\n      lt\n        /* \"#utility.yul\":17735:17855   */\n      iszero\n      tag_343\n      jumpi\n        /* \"#utility.yul\":17806:17845   */\n      tag_344\n        /* \"#utility.yul\":17843:17844   */\n      0x00\n        /* \"#utility.yul\":17836:17841   */\n      dup3\n        /* \"#utility.yul\":17806:17845   */\n      tag_164\n      jump\t// in\n    tag_344:\n        /* \"#utility.yul\":17779:17780   */\n      0x01\n        /* \"#utility.yul\":17772:17777   */\n      dup2\n        /* \"#utility.yul\":17768:17781   */\n      add\n        /* \"#utility.yul\":17759:17781   */\n      swap1\n      pop\n        /* \"#utility.yul\":17735:17855   */\n      jump(tag_341)\n    tag_343:\n        /* \"#utility.yul\":17675:17861   */\n      pop\n      pop\n      jump\t// out\n        /* \"#utility.yul\":17867:18410   */\n    tag_166:\n        /* \"#utility.yul\":17968:17970   */\n      0x1f\n        /* \"#utility.yul\":17963:17966   */\n      dup3\n        /* \"#utility.yul\":17960:17971   */\n      gt\n        /* \"#utility.yul\":17957:18403   */\n      iszero\n      tag_346\n      jumpi\n        /* \"#utility.yul\":18002:18040   */\n      tag_347\n        /* \"#utility.yul\":18034:18039   */\n      dup2\n        /* \"#utility.yul\":18002:18040   */\n      tag_155\n      jump\t// in\n    tag_347:\n        /* \"#utility.yul\":18086:18115   */\n      tag_348\n        /* \"#utility.yul\":18104:18114   */\n      dup5\n        /* \"#utility.yul\":18086:18115   */\n      tag_156\n      jump\t// in\n    tag_348:\n        /* \"#utility.yul\":18076:18084   */\n      dup2\n        /* \"#utility.yul\":18072:18116   */\n      add\n        /* \"#utility.yul\":18269:18271   */\n      0x20\n        /* \"#utility.yul\":18257:18267   */\n      dup6\n        /* \"#utility.yul\":18254:18272   */\n      lt\n        /* \"#utility.yul\":18251:18300   */\n      iszero\n      tag_349\n      jumpi\n        /* \"#utility.yul\":18290:18298   */\n      dup2\n        /* \"#utility.yul\":18275:18298   */\n      swap1\n      pop\n        /* \"#utility.yul\":18251:18300   */\n    tag_349:\n        /* \"#utility.yul\":18313:18393   */\n      tag_350\n        /* \"#utility.yul\":18369:18391   */\n      tag_351\n        /* \"#utility.yul\":18387:18390   */\n      dup6\n        /* \"#utility.yul\":18369:18391   */\n      tag_156\n      jump\t// in\n    tag_351:\n        /* \"#utility.yul\":18359:18367   */\n      dup4\n        /* \"#utility.yul\":18355:18392   */\n      add\n        /* \"#utility.yul\":18342:18353   */\n      dup3\n        /* \"#utility.yul\":18313:18393   */\n      tag_165\n      jump\t// in\n    tag_350:\n        /* \"#utility.yul\":17972:18403   */\n      pop\n      pop\n        /* \"#utility.yul\":17957:18403   */\n    tag_346:\n        /* \"#utility.yul\":17867:18410   */\n      pop\n      pop\n      pop\n      jump\t// out\n        /* \"#utility.yul\":18416:18533   */\n    tag_167:\n        /* \"#utility.yul\":18470:18478   */\n      0x00\n        /* \"#utility.yul\":18520:18525   */\n      dup3\n        /* \"#utility.yul\":18514:18518   */\n      dup3\n        /* \"#utility.yul\":18510:18526   */\n      shr\n        /* \"#utility.yul\":18489:18526   */\n      swap1\n      pop\n        /* \"#utility.yul\":18416:18533   */\n      swap3\n      swap2\n      pop\n      pop\n      jump\t// out\n        /* \"#utility.yul\":18539:18708   */\n    tag_168:\n        /* \"#utility.yul\":18583:18589   */\n      0x00\n        /* \"#utility.yul\":18616:18667   */\n      tag_354\n        /* \"#utility.yul\":18664:18665   */\n      0x00\n        /* \"#utility.yul\":18660:18666   */\n      not\n        /* \"#utility.yul\":18652:18657   */\n      dup5\n        /* \"#utility.yul\":18649:18650   */\n      0x08\n        /* \"#utility.yul\":18645:18658   */\n      mul\n        /* \"#utility.yul\":18616:18667   */\n      tag_167\n      jump\t// in\n    tag_354:\n        /* \"#utility.yul\":18612:18668   */\n      not\n        /* \"#utility.yul\":18697:18701   */\n      dup1\n        /* \"#utility.yul\":18691:18695   */\n      dup4\n        /* \"#utility.yul\":18687:18702   */\n      and\n        /* \"#utility.yul\":18677:18702   */\n      swap2\n      pop\n        /* \"#utility.yul\":18590:18708   */\n      pop\n        /* \"#utility.yul\":18539:18708   */\n      swap3\n      swap2\n      pop\n      pop\n      jump\t// out\n        /* \"#utility.yul\":18713:19008   */\n    tag_169:\n        /* \"#utility.yul\":18789:18793   */\n      0x00\n        /* \"#utility.yul\":18935:18964   */\n      tag_356\n        /* \"#utility.yul\":18960:18963   */\n      dup4\n        /* \"#utility.yul\":18954:18958   */\n      dup4\n        /* \"#utility.yul\":18935:18964   */\n      tag_168\n      jump\t// in\n    tag_356:\n        /* \"#utility.yul\":18927:18964   */\n      swap2\n      pop\n        /* \"#utility.yul\":18997:19000   */\n      dup3\n        /* \"#utility.yul\":18994:18995   */\n      0x02\n        /* \"#utility.yul\":18990:19001   */\n      mul\n        /* \"#utility.yul\":18984:18988   */\n      dup3\n        /* \"#utility.yul\":18981:19002   */\n      or\n        /* \"#utility.yul\":18973:19002   */\n      swap1\n      pop\n        /* \"#utility.yul\":18713:19008   */\n      swap3\n      swap2\n      pop\n      pop\n      jump\t// out\n        /* \"#utility.yul\":19013:20408   */\n    tag_110:\n        /* \"#utility.yul\":19130:19167   */\n      tag_358\n        /* \"#utility.yul\":19163:19166   */\n      dup3\n        /* \"#utility.yul\":19130:19167   */\n      tag_124\n      jump\t// in\n    tag_358:\n        /* \"#utility.yul\":19232:19250   */\n      0xffffffffffffffff\n        /* \"#utility.yul\":19224:19230   */\n      dup2\n        /* \"#utility.yul\":19221:19251   */\n      gt\n        /* \"#utility.yul\":19218:19274   */\n      iszero\n      tag_359\n      jumpi\n        /* \"#utility.yul\":19254:19272   */\n      tag_360\n      tag_154\n      jump\t// in\n    tag_360:\n        /* \"#utility.yul\":19218:19274   */\n    tag_359:\n        /* \"#utility.yul\":19298:19336   */\n      tag_361\n        /* \"#utility.yul\":19330:19334   */\n      dup3\n        /* \"#utility.yul\":19324:19335   */\n      sload\n        /* \"#utility.yul\":19298:19336   */\n      tag_43\n      jump\t// in\n    tag_361:\n        /* \"#utility.yul\":19383:19450   */\n      tag_362\n        /* \"#utility.yul\":19443:19449   */\n      dup3\n        /* \"#utility.yul\":19435:19441   */\n      dup3\n        /* \"#utility.yul\":19429:19433   */\n      dup6\n        /* \"#utility.yul\":19383:19450   */\n      tag_166\n      jump\t// in\n    tag_362:\n        /* \"#utility.yul\":19477:19478   */\n      0x00\n        /* \"#utility.yul\":19501:19505   */\n      0x20\n        /* \"#utility.yul\":19488:19505   */\n      swap1\n      pop\n        /* \"#utility.yul\":19533:19535   */\n      0x1f\n        /* \"#utility.yul\":19525:19531   */\n      dup4\n        /* \"#utility.yul\":19522:19536   */\n      gt\n        /* \"#utility.yul\":19550:19551   */\n      0x01\n        /* \"#utility.yul\":19545:20163   */\n      dup2\n      eq\n      tag_364\n      jumpi\n        /* \"#utility.yul\":20207:20208   */\n      0x00\n        /* \"#utility.yul\":20224:20230   */\n      dup5\n        /* \"#utility.yul\":20221:20298   */\n      iszero\n      tag_365\n      jumpi\n        /* \"#utility.yul\":20273:20282   */\n      dup3\n        /* \"#utility.yul\":20268:20271   */\n      dup8\n        /* \"#utility.yul\":20264:20283   */\n      add\n        /* \"#utility.yul\":20258:20284   */\n      mload\n        /* \"#utility.yul\":20249:20284   */\n      swap1\n      pop\n        /* \"#utility.yul\":20221:20298   */\n    tag_365:\n        /* \"#utility.yul\":20324:20391   */\n      tag_366\n        /* \"#utility.yul\":20384:20390   */\n      dup6\n        /* \"#utility.yul\":20377:20382   */\n      dup3\n        /* \"#utility.yul\":20324:20391   */\n      tag_169\n      jump\t// in\n    tag_366:\n        /* \"#utility.yul\":20318:20322   */\n      dup7\n        /* \"#utility.yul\":20311:20392   */\n      sstore\n        /* \"#utility.yul\":20180:20402   */\n      pop\n        /* \"#utility.yul\":19515:20402   */\n      jump(tag_363)\n        /* \"#utility.yul\":19545:20163   */\n    tag_364:\n        /* \"#utility.yul\":19597:19601   */\n      0x1f\n        /* \"#utility.yul\":19593:19602   */\n      not\n        /* \"#utility.yul\":19585:19591   */\n      dup5\n        /* \"#utility.yul\":19581:19603   */\n      and\n        /* \"#utility.yul\":19631:19668   */\n      tag_367\n        /* \"#utility.yul\":19663:19667   */\n      dup7\n        /* \"#utility.yul\":19631:19668   */\n      tag_155\n      jump\t// in\n    tag_367:\n        /* \"#utility.yul\":19690:19691   */\n      0x00\n        /* \"#utility.yul\":19704:19912   */\n    tag_368:\n        /* \"#utility.yul\":19718:19725   */\n      dup3\n        /* \"#utility.yul\":19715:19716   */\n      dup2\n        /* \"#utility.yul\":19712:19726   */\n      lt\n        /* \"#utility.yul\":19704:19912   */\n      iszero\n      tag_370\n      jumpi\n        /* \"#utility.yul\":19797:19806   */\n      dup5\n        /* \"#utility.yul\":19792:19795   */\n      dup10\n        /* \"#utility.yul\":19788:19807   */\n      add\n        /* \"#utility.yul\":19782:19808   */\n      mload\n        /* \"#utility.yul\":19774:19780   */\n      dup3\n        /* \"#utility.yul\":19767:19809   */\n      sstore\n        /* \"#utility.yul\":19848:19849   */\n      0x01\n        /* \"#utility.yul\":19840:19846   */\n      dup3\n        /* \"#utility.yul\":19836:19850   */\n      add\n        /* \"#utility.yul\":19826:19850   */\n      swap2\n      pop\n        /* \"#utility.yul\":19895:19897   */\n      0x20\n        /* \"#utility.yul\":19884:19893   */\n      dup6\n        /* \"#utility.yul\":19880:19898   */\n      add\n        /* \"#utility.yul\":19867:19898   */\n      swap5\n      pop\n        /* \"#utility.yul\":19741:19745   */\n      0x20\n        /* \"#utility.yul\":19738:19739   */\n      dup2\n        /* \"#utility.yul\":19734:19746   */\n      add\n        /* \"#utility.yul\":19729:19746   */\n      swap1\n      pop\n        /* \"#utility.yul\":19704:19912   */\n      jump(tag_368)\n    tag_370:\n        /* \"#utility.yul\":19940:19946   */\n      dup7\n        /* \"#utility.yul\":19931:19938   */\n      dup4\n        /* \"#utility.yul\":19928:19947   */\n      lt\n        /* \"#utility.yul\":19925:20104   */\n      iszero\n      tag_371\n      jumpi\n        /* \"#utility.yul\":19998:20007   */\n      dup5\n        /* \"#utility.yul\":19993:19996   */\n      dup10\n        /* \"#utility.yul\":19989:20008   */\n      add\n        /* \"#utility.yul\":19983:20009   */\n      mload\n        /* \"#utility.yul\":20041:20089   */\n      tag_372\n        /* \"#utility.yul\":20083:20087   */\n      0x1f\n        /* \"#utility.yul\":20075:20081   */\n      dup10\n        /* \"#utility.yul\":20071:20088   */\n      and\n        /* \"#utility.yul\":20060:20069   */\n      dup3\n        /* \"#utility.yul\":20041:20089   */\n      tag_168\n      jump\t// in\n    tag_372:\n        /* \"#utility.yul\":20033:20039   */\n      dup4\n        /* \"#utility.yul\":20026:20090   */\n      sstore\n        /* \"#utility.yul\":19948:20104   */\n      pop\n        /* \"#utility.yul\":19925:20104   */\n    tag_371:\n        /* \"#utility.yul\":20150:20151   */\n      0x01\n        /* \"#utility.yul\":20146:20147   */\n      0x02\n        /* \"#utility.yul\":20138:20144   */\n      dup9\n        /* \"#utility.yul\":20134:20148   */\n      mul\n        /* \"#utility.yul\":20130:20152   */\n      add\n        /* \"#utility.yul\":20124:20128   */\n      dup9\n        /* \"#utility.yul\":20117:20153   */\n      sstore\n        /* \"#utility.yul\":19552:20163   */\n      pop\n      pop\n      pop\n        /* \"#utility.yul\":19515:20402   */\n    tag_363:\n      pop\n        /* \"#utility.yul\":19105:20408   */\n      pop\n      pop\n      pop\n        /* \"#utility.yul\":19013:20408   */\n      pop\n      pop\n      jump\t// out\n        /* \"#utility.yul\":20414:20560   */\n    tag_170:\n        /* \"#utility.yul\":20511:20517   */\n      dup3\n        /* \"#utility.yul\":20506:20509   */\n      dup2\n        /* \"#utility.yul\":20501:20504   */\n      dup4\n        /* \"#utility.yul\":20488:20518   */\n      calldatacopy\n        /* \"#utility.yul\":20552:20553   */\n      0x00\n        /* \"#utility.yul\":20543:20549   */\n      dup4\n        /* \"#utility.yul\":20538:20541   */\n      dup4\n        /* \"#utility.yul\":20534:20550   */\n      add\n        /* \"#utility.yul\":20527:20554   */\n      mstore\n        /* \"#utility.yul\":20414:20560   */\n      pop\n      pop\n      pop\n      jump\t// out\n        /* \"#utility.yul\":20590:20907   */\n    tag_171:\n        /* \"#utility.yul\":20688:20691   */\n      0x00\n        /* \"#utility.yul\":20709:20780   */\n      tag_375\n        /* \"#utility.yul\":20773:20779   */\n      dup4\n        /* \"#utility.yul\":20768:20771   */\n      dup6\n        /* \"#utility.yul\":20709:20780   */\n      tag_125\n      jump\t// in\n    tag_375:\n        /* \"#utility.yul\":20702:20780   */\n      swap4\n      pop\n        /* \"#utility.yul\":20790:20846   */\n      tag_376\n        /* \"#utility.yul\":20839:20845   */\n      dup4\n        /* \"#utility.yul\":20834:20837   */\n      dup6\n        /* \"#utility.yul\":20827:20832   */\n      dup5\n        /* \"#utility.yul\":20790:20846   */\n      tag_170\n      jump\t// in\n    tag_376:\n        /* \"#utility.yul\":20871:20900   */\n      tag_377\n        /* \"#utility.yul\":20893:20899   */\n      dup4\n        /* \"#utility.yul\":20871:20900   */\n      tag_127\n      jump\t// in\n    tag_377:\n        /* \"#utility.yul\":20866:20869   */\n      dup5\n        /* \"#utility.yul\":20862:20901   */\n      add\n        /* \"#utility.yul\":20855:20901   */\n      swap1\n      pop\n        /* \"#utility.yul\":20590:20907   */\n      swap4\n      swap3\n      pop\n      pop\n      pop\n      jump\t// out\n        /* \"#utility.yul\":20913:21577   */\n    tag_113:\n        /* \"#utility.yul\":21120:21124   */\n      0x00\n        /* \"#utility.yul\":21158:21161   */\n      0x80\n        /* \"#utility.yul\":21147:21156   */\n      dup3\n        /* \"#utility.yul\":21143:21162   */\n      add\n        /* \"#utility.yul\":21135:21162   */\n      swap1\n      pop\n        /* \"#utility.yul\":21172:21243   */\n      tag_379\n        /* \"#utility.yul\":21240:21241   */\n      0x00\n        /* \"#utility.yul\":21229:21238   */\n      dup4\n        /* \"#utility.yul\":21225:21242   */\n      add\n        /* \"#utility.yul\":21216:21222   */\n      dup9\n        /* \"#utility.yul\":21172:21243   */\n      tag_120\n      jump\t// in\n    tag_379:\n        /* \"#utility.yul\":21290:21299   */\n      dup2\n        /* \"#utility.yul\":21284:21288   */\n      dup2\n        /* \"#utility.yul\":21280:21300   */\n      sub\n        /* \"#utility.yul\":21275:21277   */\n      0x20\n        /* \"#utility.yul\":21264:21273   */\n      dup4\n        /* \"#utility.yul\":21260:21278   */\n      add\n        /* \"#utility.yul\":21253:21301   */\n      mstore\n        /* \"#utility.yul\":21318:21406   */\n      tag_380\n        /* \"#utility.yul\":21401:21405   */\n      dup2\n        /* \"#utility.yul\":21392:21398   */\n      dup7\n        /* \"#utility.yul\":21384:21390   */\n      dup9\n        /* \"#utility.yul\":21318:21406   */\n      tag_171\n      jump\t// in\n    tag_380:\n        /* \"#utility.yul\":21310:21406   */\n      swap1\n      pop\n        /* \"#utility.yul\":21416:21488   */\n      tag_381\n        /* \"#utility.yul\":21484:21486   */\n      0x40\n        /* \"#utility.yul\":21473:21482   */\n      dup4\n        /* \"#utility.yul\":21469:21487   */\n      add\n        /* \"#utility.yul\":21460:21466   */\n      dup6\n        /* \"#utility.yul\":21416:21488   */\n      tag_120\n      jump\t// in\n    tag_381:\n        /* \"#utility.yul\":21498:21570   */\n      tag_382\n        /* \"#utility.yul\":21566:21568   */\n      0x60\n        /* \"#utility.yul\":21555:21564   */\n      dup4\n        /* \"#utility.yul\":21551:21569   */\n      add\n        /* \"#utility.yul\":21542:21548   */\n      dup5\n        /* \"#utility.yul\":21498:21570   */\n      tag_120\n      jump\t// in\n    tag_382:\n        /* \"#utility.yul\":20913:21577   */\n      swap7\n      swap6\n      pop\n      pop\n      pop\n      pop\n      pop\n      pop\n      jump\t// out\n\n    auxdata: 0xa264697066735822122027f0bdcc84ff26ba38db1eae90dfa0ef0b14ec1e17662140df6e234f25d700e764736f6c63430008160033\n}\n",
				"bytecode": {
					"linkReferences": {},
					"object": "608060405234801561000f575f80fd5b50335f806101000a81548173ffffffffffffffffffffffffffffffffffffffff021916908373ffffffffffffffffffffffffffffffffffffffff16021790555061157c8061005c5f395ff3fe608060405260043610610054575f3560e01c80634534cd9c14610058578063571a26a014610094578063853828b6146100d75780638da5cb5b146100ed578063d96a094a14610117578063e9835d1514610133575b5f80fd5b348015610063575f80fd5b5061007e60048036038101906100799190610a62565b61015b565b60405161008b9190610a9c565b60405180910390f35b34801561009f575f80fd5b506100ba60048036038101906100b59190610a62565b610386565b6040516100ce989796959493929190610b98565b60405180910390f35b3480156100e2575f80fd5b506100eb61048a565b005b3480156100f8575f80fd5b5061010161057c565b60405161010e9190610c3b565b60405180910390f35b610131600480360381019061012c9190610a62565b61059f565b005b34801561013e575f80fd5b5061015960048036038101906101549190610cb5565b6107f3565b005b5f806001838154811061017157610170610d39565b5b905f5260205f209060080201604051806101000160405290815f82015f9054906101000a900473ffffffffffffffffffffffffffffffffffffffff1673ffffffffffffffffffffffffffffffffffffffff1673ffffffffffffffffffffffffffffffffffffffff168152602001600182015481526020016002820154815260200160038201548152602001600482015481526020016005820154815260200160068201805461021f90610d93565b80601f016020809104026020016040519081016040528092919081815260200182805461024b90610d93565b80156102965780601f1061026d57610100808354040283529160200191610296565b820191905f5260205f20905b81548152906001019060200180831161027957829003601f168201915b50505050508152602001600782015f9054906101000a900460ff16151515158152505090508060e0015115610300576040517f08c379a00000000000000000000000000000000000000000000000000000000081526004016102f790610e0d565b60405180910390fd5b80608001514210610346576040517f08c379a000000000000000000000000000000000000000000000000000000000815260040161033d90610e75565b60405180910390fd5b5f8160600151426103579190610ec0565b90505f8260a001518261036a9190610ef3565b905080836020015161037c9190610ec0565b9350505050919050565b60018181548110610395575f80fd5b905f5260205f2090600802015f91509050805f015f9054906101000a900473ffffffffffffffffffffffffffffffffffffffff16908060010154908060020154908060030154908060040154908060050154908060060180546103f790610d93565b80601f016020809104026020016040519081016040528092919081815260200182805461042390610d93565b801561046e5780601f106104455761010080835404028352916020019161046e565b820191905f5260205f20905b81548152906001019060200180831161045157829003601f168201915b505050505090806007015f9054906101000a900460ff16905088565b5f8054906101000a900473ffffffffffffffffffffffffffffffffffffffff1673ffffffffffffffffffffffffffffffffffffffff163373ffffffffffffffffffffffffffffffffffffffff1614610517576040517f08c379a000000000000000000000000000000000000000000000000000000000815260040161050e90610f7e565b60405180910390fd5b5f8054906101000a900473ffffffffffffffffffffffffffffffffffffffff1673ffffffffffffffffffffffffffffffffffffffff166108fc4790811502906040515f60405180830381858888f19350505050158015610579573d5f803e3d5ffd5b50565b5f8054906101000a900473ffffffffffffffffffffffffffffffffffffffff1681565b5f600182815481106105b4576105b3610d39565b5b905f5260205f209060080201905080600401544210610608576040517f08c379a00000000000000000000000000000000000000000000000000000000081526004016105ff90610fe6565b60405180910390fd5b806007015f9054906101000a900460ff1615610659576040517f08c379a00000000000000000000000000000000000000000000000000000000081526004016106509061104e565b60405180910390fd5b5f6106638361015b565b9050803410156106a8576040517f08c379a000000000000000000000000000000000000000000000000000000000815260040161069f906110dc565b60405180910390fd5b6001826007015f6101000a81548160ff0219169083151502179055508082600201819055505f81346106da9190610ec0565b90505f811115610729573373ffffffffffffffffffffffffffffffffffffffff166108fc8290811502906040515f60405180830381858888f19350505050158015610727573d5f803e3d5ffd5b505b825f015f9054906101000a900473ffffffffffffffffffffffffffffffffffffffff1673ffffffffffffffffffffffffffffffffffffffff166108fc6064600a856107749190610ef3565b61077e9190611127565b846107899190610ec0565b90811502906040515f60405180830381858888f193505050501580156107b1573d5f803e3d5ffd5b507fbafc4bda865d4d1f8d5b16f883e996fde0fe71112fac81503876d353756944008483336040516107e593929190611157565b60405180910390a150505050565b5f8082146108015781610806565b6202a3005b905081856108149190610ef3565b861015610856576040517f08c379a000000000000000000000000000000000000000000000000000000000815260040161084d906111d6565b60405180910390fd5b5f6040518061010001604052803373ffffffffffffffffffffffffffffffffffffffff168152602001888152602001888152602001428152602001844261089d91906111f4565b815260200187815260200186868080601f0160208091040260200160405190810160405280939291908181526020018383808284375f81840152601f19601f8201169050808301925050505050505081526020015f15158152509050600181908060018154018082558091505060019003905f5260205f2090600802015f909190919091505f820151815f015f6101000a81548173ffffffffffffffffffffffffffffffffffffffff021916908373ffffffffffffffffffffffffffffffffffffffff1602179055506020820151816001015560408201518160020155606082015181600301556080820151816004015560a0820151816005015560c08201518160060190816109ad91906113f1565b5060e0820151816007015f6101000a81548160ff02191690831515021790555050507f5bf34ed94988e5dcdc7d1faaa54eb1d3b55f45d5f11457e235afb21a8ebbe73c60018080549050610a019190610ec0565b86868a86604051610a169594939291906114fa565b60405180910390a150505050505050565b5f80fd5b5f80fd5b5f819050919050565b610a4181610a2f565b8114610a4b575f80fd5b50565b5f81359050610a5c81610a38565b92915050565b5f60208284031215610a7757610a76610a27565b5b5f610a8484828501610a4e565b91505092915050565b610a9681610a2f565b82525050565b5f602082019050610aaf5f830184610a8d565b92915050565b5f73ffffffffffffffffffffffffffffffffffffffff82169050919050565b5f610ade82610ab5565b9050919050565b610aee81610ad4565b82525050565b5f81519050919050565b5f82825260208201905092915050565b5f5b83811015610b2b578082015181840152602081019050610b10565b5f8484015250505050565b5f601f19601f8301169050919050565b5f610b5082610af4565b610b5a8185610afe565b9350610b6a818560208601610b0e565b610b7381610b36565b840191505092915050565b5f8115159050919050565b610b9281610b7e565b82525050565b5f61010082019050610bac5f83018b610ae5565b610bb9602083018a610a8d565b610bc66040830189610a8d565b610bd36060830188610a8d565b610be06080830187610a8d565b610bed60a0830186610a8d565b81810360c0830152610bff8185610b46565b9050610c0e60e0830184610b89565b9998505050505050505050565b5f610c2582610ab5565b9050919050565b610c3581610c1b565b82525050565b5f602082019050610c4e5f830184610c2c565b92915050565b5f80fd5b5f80fd5b5f80fd5b5f8083601f840112610c7557610c74610c54565b5b8235905067ffffffffffffffff811115610c9257610c91610c58565b5b602083019150836001820283011115610cae57610cad610c5c565b5b9250929050565b5f805f805f60808688031215610cce57610ccd610a27565b5b5f610cdb88828901610a4e565b9550506020610cec88828901610a4e565b945050604086013567ffffffffffffffff811115610d0d57610d0c610a2b565b5b610d1988828901610c60565b93509350506060610d2c88828901610a4e565b9150509295509295909350565b7f4e487b71000000000000000000000000000000000000000000000000000000005f52603260045260245ffd5b7f4e487b71000000000000000000000000000000000000000000000000000000005f52602260045260245ffd5b5f6002820490506001821680610daa57607f821691505b602082108103610dbd57610dbc610d66565b5b50919050565b7f61756374696f6e20616c72656164792073746f707065640000000000000000005f82015250565b5f610df7601783610afe565b9150610e0282610dc3565b602082019050919050565b5f6020820190508181035f830152610e2481610deb565b9050919050565b7f61756374696f6e20616c726561647920656e64656400000000000000000000005f82015250565b5f610e5f601583610afe565b9150610e6a82610e2b565b602082019050919050565b5f6020820190508181035f830152610e8c81610e53565b9050919050565b7f4e487b71000000000000000000000000000000000000000000000000000000005f52601160045260245ffd5b5f610eca82610a2f565b9150610ed583610a2f565b9250828203905081811115610eed57610eec610e93565b5b92915050565b5f610efd82610a2f565b9150610f0883610a2f565b9250828202610f1681610a2f565b91508282048414831517610f2d57610f2c610e93565b5b5092915050565b7f596f7520617265206e6f7420616c6c6f77656420746f20646f207468697300005f82015250565b5f610f68601e83610afe565b9150610f7382610f34565b602082019050919050565b5f6020820190508181035f830152610f9581610f5c565b9050919050565b7f41756374696f6e20616c726561647920656e64656400000000000000000000005f82015250565b5f610fd0601583610afe565b9150610fdb82610f9c565b602082019050919050565b5f6020820190508181035f830152610ffd81610fc4565b9050919050565b7f41756374696f6e20616c72656164792073746f707065640000000000000000005f82015250565b5f611038601783610afe565b915061104382611004565b602082019050919050565b5f6020820190508181035f8301526110658161102c565b9050919050565b7f4e6f7420656e6f7567682066756e647320746f206275792074686973206974655f8201527f6d00000000000000000000000000000000000000000000000000000000000000602082015250565b5f6110c6602183610afe565b91506110d18261106c565b604082019050919050565b5f6020820190508181035f8301526110f3816110ba565b9050919050565b7f4e487b71000000000000000000000000000000000000000000000000000000005f52601260045260245ffd5b5f61113182610a2f565b915061113c83610a2f565b92508261114c5761114b6110fa565b5b828204905092915050565b5f60608201905061116a5f830186610a8d565b6111776020830185610a8d565b6111846040830184610c2c565b949350505050565b7f696e636f7272656374207374617274696e6720707269636500000000000000005f82015250565b5f6111c0601883610afe565b91506111cb8261118c565b602082019050919050565b5f6020820190508181035f8301526111ed816111b4565b9050919050565b5f6111fe82610a2f565b915061120983610a2f565b925082820190508082111561122157611220610e93565b5b92915050565b7f4e487b71000000000000000000000000000000000000000000000000000000005f52604160045260245ffd5b5f819050815f5260205f209050919050565b5f6020601f8301049050919050565b5f82821b905092915050565b5f600883026112b07fffffffffffffffffffffffffffffffffffffffffffffffffffffffffffffffff82611275565b6112ba8683611275565b95508019841693508086168417925050509392505050565b5f819050919050565b5f6112f56112f06112eb84610a2f565b6112d2565b610a2f565b9050919050565b5f819050919050565b61130e836112db565b61132261131a826112fc565b848454611281565b825550505050565b5f90565b61133661132a565b611341818484611305565b505050565b5b81811015611364576113595f8261132e565b600181019050611347565b5050565b601f8211156113a95761137a81611254565b61138384611266565b81016020851015611392578190505b6113a661139e85611266565b830182611346565b50505b505050565b5f82821c905092915050565b5f6113c95f19846008026113ae565b1980831691505092915050565b5f6113e183836113ba565b9150826002028217905092915050565b6113fa82610af4565b67ffffffffffffffff81111561141357611412611227565b5b61141d8254610d93565b611428828285611368565b5f60209050601f831160018114611459575f8415611447578287015190505b61145185826113d6565b8655506114b8565b601f19841661146786611254565b5f5b8281101561148e57848901518255600182019150602085019450602081019050611469565b868310156114ab57848901516114a7601f8916826113ba565b8355505b6001600288020188555050505b505050505050565b828183375f83830152505050565b5f6114d98385610afe565b93506114e68385846114c0565b6114ef83610b36565b840190509392505050565b5f60808201905061150d5f830188610a8d565b81810360208301526115208186886114ce565b905061152f6040830185610a8d565b61153c6060830184610a8d565b969550505050505056fea264697066735822122027f0bdcc84ff26ba38db1eae90dfa0ef0b14ec1e17662140df6e234f25d700e764736f6c63430008160033",
					"opcodes": "PUSH1 0x80 PUSH1 0x40 MSTORE CALLVALUE DUP1 ISZERO PUSH2 0xF JUMPI PUSH0 DUP1 REVERT JUMPDEST POP CALLER PUSH0 DUP1 PUSH2 0x100 EXP DUP2 SLOAD DUP2 PUSH20 0xFFFFFFFFFFFFFFFFFFFFFFFFFFFFFFFFFFFFFFFF MUL NOT AND SWAP1 DUP4 PUSH20 0xFFFFFFFFFFFFFFFFFFFFFFFFFFFFFFFFFFFFFFFF AND MUL OR SWAP1 SSTORE POP PUSH2 0x157C DUP1 PUSH2 0x5C PUSH0 CODECOPY PUSH0 RETURN INVALID PUSH1 0x80 PUSH1 0x40 MSTORE PUSH1 0x4 CALLDATASIZE LT PUSH2 0x54 JUMPI PUSH0 CALLDATALOAD PUSH1 0xE0 SHR DUP1 PUSH4 0x4534CD9C EQ PUSH2 0x58 JUMPI DUP1 PUSH4 0x571A26A0 EQ PUSH2 0x94 JUMPI DUP1 PUSH4 0x853828B6 EQ PUSH2 0xD7 JUMPI DUP1 PUSH4 0x8DA5CB5B EQ PUSH2 0xED JUMPI DUP1 PUSH4 0xD96A094A EQ PUSH2 0x117 JUMPI DUP1 PUSH4 0xE9835D15 EQ PUSH2 0x133 JUMPI JUMPDEST PUSH0 DUP1 REVERT JUMPDEST CALLVALUE DUP1 ISZERO PUSH2 0x63 JUMPI PUSH0 DUP1 REVERT JUMPDEST POP PUSH2 0x7E PUSH1 0x4 DUP1 CALLDATASIZE SUB DUP2 ADD SWAP1 PUSH2 0x79 SWAP2 SWAP1 PUSH2 0xA62 JUMP JUMPDEST PUSH2 0x15B JUMP JUMPDEST PUSH1 0x40 MLOAD PUSH2 0x8B SWAP2 SWAP1 PUSH2 0xA9C JUMP JUMPDEST PUSH1 0x40 MLOAD DUP1 SWAP2 SUB SWAP1 RETURN JUMPDEST CALLVALUE DUP1 ISZERO PUSH2 0x9F JUMPI PUSH0 DUP1 REVERT JUMPDEST POP PUSH2 0xBA PUSH1 0x4 DUP1 CALLDATASIZE SUB DUP2 ADD SWAP1 PUSH2 0xB5 SWAP2 SWAP1 PUSH2 0xA62 JUMP JUMPDEST PUSH2 0x386 JUMP JUMPDEST PUSH1 0x40 MLOAD PUSH2 0xCE SWAP9 SWAP8 SWAP7 SWAP6 SWAP5 SWAP4 SWAP3 SWAP2 SWAP1 PUSH2 0xB98 JUMP JUMPDEST PUSH1 0x40 MLOAD DUP1 SWAP2 SUB SWAP1 RETURN JUMPDEST CALLVALUE DUP1 ISZERO PUSH2 0xE2 JUMPI PUSH0 DUP1 REVERT JUMPDEST POP PUSH2 0xEB PUSH2 0x48A JUMP JUMPDEST STOP JUMPDEST CALLVALUE DUP1 ISZERO PUSH2 0xF8 JUMPI PUSH0 DUP1 REVERT JUMPDEST POP PUSH2 0x101 PUSH2 0x57C JUMP JUMPDEST PUSH1 0x40 MLOAD PUSH2 0x10E SWAP2 SWAP1 PUSH2 0xC3B JUMP JUMPDEST PUSH1 0x40 MLOAD DUP1 SWAP2 SUB SWAP1 RETURN JUMPDEST PUSH2 0x131 PUSH1 0x4 DUP1 CALLDATASIZE SUB DUP2 ADD SWAP1 PUSH2 0x12C SWAP2 SWAP1 PUSH2 0xA62 JUMP JUMPDEST PUSH2 0x59F JUMP JUMPDEST STOP JUMPDEST CALLVALUE DUP1 ISZERO PUSH2 0x13E JUMPI PUSH0 DUP1 REVERT JUMPDEST POP PUSH2 0x159 PUSH1 0x4 DUP1 CALLDATASIZE SUB DUP2 ADD SWAP1 PUSH2 0x154 SWAP2 SWAP1 PUSH2 0xCB5 JUMP JUMPDEST PUSH2 0x7F3 JUMP JUMPDEST STOP JUMPDEST PUSH0 DUP1 PUSH1 0x1 DUP4 DUP2 SLOAD DUP2 LT PUSH2 0x171 JUMPI PUSH2 0x170 PUSH2 0xD39 JUMP JUMPDEST JUMPDEST SWAP1 PUSH0 MSTORE PUSH1 0x20 PUSH0 KECCAK256 SWAP1 PUSH1 0x8 MUL ADD PUSH1 0x40 MLOAD DUP1 PUSH2 0x100 ADD PUSH1 0x40 MSTORE SWAP1 DUP2 PUSH0 DUP3 ADD PUSH0 SWAP1 SLOAD SWAP1 PUSH2 0x100 EXP SWAP1 DIV PUSH20 0xFFFFFFFFFFFFFFFFFFFFFFFFFFFFFFFFFFFFFFFF AND PUSH20 0xFFFFFFFFFFFFFFFFFFFFFFFFFFFFFFFFFFFFFFFF AND PUSH20 0xFFFFFFFFFFFFFFFFFFFFFFFFFFFFFFFFFFFFFFFF AND DUP2 MSTORE PUSH1 0x20 ADD PUSH1 0x1 DUP3 ADD SLOAD DUP2 MSTORE PUSH1 0x20 ADD PUSH1 0x2 DUP3 ADD SLOAD DUP2 MSTORE PUSH1 0x20 ADD PUSH1 0x3 DUP3 ADD SLOAD DUP2 MSTORE PUSH1 0x20 ADD PUSH1 0x4 DUP3 ADD SLOAD DUP2 MSTORE PUSH1 0x20 ADD PUSH1 0x5 DUP3 ADD SLOAD DUP2 MSTORE PUSH1 0x20 ADD PUSH1 0x6 DUP3 ADD DUP1 SLOAD PUSH2 0x21F SWAP1 PUSH2 0xD93 JUMP JUMPDEST DUP1 PUSH1 0x1F ADD PUSH1 0x20 DUP1 SWAP2 DIV MUL PUSH1 0x20 ADD PUSH1 0x40 MLOAD SWAP1 DUP2 ADD PUSH1 0x40 MSTORE DUP1 SWAP3 SWAP2 SWAP1 DUP2 DUP2 MSTORE PUSH1 0x20 ADD DUP3 DUP1 SLOAD PUSH2 0x24B SWAP1 PUSH2 0xD93 JUMP JUMPDEST DUP1 ISZERO PUSH2 0x296 JUMPI DUP1 PUSH1 0x1F LT PUSH2 0x26D JUMPI PUSH2 0x100 DUP1 DUP4 SLOAD DIV MUL DUP4 MSTORE SWAP2 PUSH1 0x20 ADD SWAP2 PUSH2 0x296 JUMP JUMPDEST DUP3 ADD SWAP2 SWAP1 PUSH0 MSTORE PUSH1 0x20 PUSH0 KECCAK256 SWAP1 JUMPDEST DUP2 SLOAD DUP2 MSTORE SWAP1 PUSH1 0x1 ADD SWAP1 PUSH1 0x20 ADD DUP1 DUP4 GT PUSH2 0x279 JUMPI DUP3 SWAP1 SUB PUSH1 0x1F AND DUP3 ADD SWAP2 JUMPDEST POP POP POP POP POP DUP2 MSTORE PUSH1 0x20 ADD PUSH1 0x7 DUP3 ADD PUSH0 SWAP1 SLOAD SWAP1 PUSH2 0x100 EXP SWAP1 DIV PUSH1 0xFF AND ISZERO ISZERO ISZERO ISZERO DUP2 MSTORE POP POP SWAP1 POP DUP1 PUSH1 0xE0 ADD MLOAD ISZERO PUSH2 0x300 JUMPI PUSH1 0x40 MLOAD PUSH32 0x8C379A000000000000000000000000000000000000000000000000000000000 DUP2 MSTORE PUSH1 0x4 ADD PUSH2 0x2F7 SWAP1 PUSH2 0xE0D JUMP JUMPDEST PUSH1 0x40 MLOAD DUP1 SWAP2 SUB SWAP1 REVERT JUMPDEST DUP1 PUSH1 0x80 ADD MLOAD TIMESTAMP LT PUSH2 0x346 JUMPI PUSH1 0x40 MLOAD PUSH32 0x8C379A000000000000000000000000000000000000000000000000000000000 DUP2 MSTORE PUSH1 0x4 ADD PUSH2 0x33D SWAP1 PUSH2 0xE75 JUMP JUMPDEST PUSH1 0x40 MLOAD DUP1 SWAP2 SUB SWAP1 REVERT JUMPDEST PUSH0 DUP2 PUSH1 0x60 ADD MLOAD TIMESTAMP PUSH2 0x357 SWAP2 SWAP1 PUSH2 0xEC0 JUMP JUMPDEST SWAP1 POP PUSH0 DUP3 PUSH1 0xA0 ADD MLOAD DUP3 PUSH2 0x36A SWAP2 SWAP1 PUSH2 0xEF3 JUMP JUMPDEST SWAP1 POP DUP1 DUP4 PUSH1 0x20 ADD MLOAD PUSH2 0x37C SWAP2 SWAP1 PUSH2 0xEC0 JUMP JUMPDEST SWAP4 POP POP POP POP SWAP2 SWAP1 POP JUMP JUMPDEST PUSH1 0x1 DUP2 DUP2 SLOAD DUP2 LT PUSH2 0x395 JUMPI PUSH0 DUP1 REVERT JUMPDEST SWAP1 PUSH0 MSTORE PUSH1 0x20 PUSH0 KECCAK256 SWAP1 PUSH1 0x8 MUL ADD PUSH0 SWAP2 POP SWAP1 POP DUP1 PUSH0 ADD PUSH0 SWAP1 SLOAD SWAP1 PUSH2 0x100 EXP SWAP1 DIV PUSH20 0xFFFFFFFFFFFFFFFFFFFFFFFFFFFFFFFFFFFFFFFF AND SWAP1 DUP1 PUSH1 0x1 ADD SLOAD SWAP1 DUP1 PUSH1 0x2 ADD SLOAD SWAP1 DUP1 PUSH1 0x3 ADD SLOAD SWAP1 DUP1 PUSH1 0x4 ADD SLOAD SWAP1 DUP1 PUSH1 0x5 ADD SLOAD SWAP1 DUP1 PUSH1 0x6 ADD DUP1 SLOAD PUSH2 0x3F7 SWAP1 PUSH2 0xD93 JUMP JUMPDEST DUP1 PUSH1 0x1F ADD PUSH1 0x20 DUP1 SWAP2 DIV MUL PUSH1 0x20 ADD PUSH1 0x40 MLOAD SWAP1 DUP2 ADD PUSH1 0x40 MSTORE DUP1 SWAP3 SWAP2 SWAP1 DUP2 DUP2 MSTORE PUSH1 0x20 ADD DUP3 DUP1 SLOAD PUSH2 0x423 SWAP1 PUSH2 0xD93 JUMP JUMPDEST DUP1 ISZERO PUSH2 0x46E JUMPI DUP1 PUSH1 0x1F LT PUSH2 0x445 JUMPI PUSH2 0x100 DUP1 DUP4 SLOAD DIV MUL DUP4 MSTORE SWAP2 PUSH1 0x20 ADD SWAP2 PUSH2 0x46E JUMP JUMPDEST DUP3 ADD SWAP2 SWAP1 PUSH0 MSTORE PUSH1 0x20 PUSH0 KECCAK256 SWAP1 JUMPDEST DUP2 SLOAD DUP2 MSTORE SWAP1 PUSH1 0x1 ADD SWAP1 PUSH1 0x20 ADD DUP1 DUP4 GT PUSH2 0x451 JUMPI DUP3 SWAP1 SUB PUSH1 0x1F AND DUP3 ADD SWAP2 JUMPDEST POP POP POP POP POP SWAP1 DUP1 PUSH1 0x7 ADD PUSH0 SWAP1 SLOAD SWAP1 PUSH2 0x100 EXP SWAP1 DIV PUSH1 0xFF AND SWAP1 POP DUP9 JUMP JUMPDEST PUSH0 DUP1 SLOAD SWAP1 PUSH2 0x100 EXP SWAP1 DIV PUSH20 0xFFFFFFFFFFFFFFFFFFFFFFFFFFFFFFFFFFFFFFFF AND PUSH20 0xFFFFFFFFFFFFFFFFFFFFFFFFFFFFFFFFFFFFFFFF AND CALLER PUSH20 0xFFFFFFFFFFFFFFFFFFFFFFFFFFFFFFFFFFFFFFFF AND EQ PUSH2 0x517 JUMPI PUSH1 0x40 MLOAD PUSH32 0x8C379A000000000000000000000000000000000000000000000000000000000 DUP2 MSTORE PUSH1 0x4 ADD PUSH2 0x50E SWAP1 PUSH2 0xF7E JUMP JUMPDEST PUSH1 0x40 MLOAD DUP1 SWAP2 SUB SWAP1 REVERT JUMPDEST PUSH0 DUP1 SLOAD SWAP1 PUSH2 0x100 EXP SWAP1 DIV PUSH20 0xFFFFFFFFFFFFFFFFFFFFFFFFFFFFFFFFFFFFFFFF AND PUSH20 0xFFFFFFFFFFFFFFFFFFFFFFFFFFFFFFFFFFFFFFFF AND PUSH2 0x8FC SELFBALANCE SWAP1 DUP2 ISZERO MUL SWAP1 PUSH1 0x40 MLOAD PUSH0 PUSH1 0x40 MLOAD DUP1 DUP4 SUB DUP2 DUP6 DUP9 DUP9 CALL SWAP4 POP POP POP POP ISZERO DUP1 ISZERO PUSH2 0x579 JUMPI RETURNDATASIZE PUSH0 DUP1 RETURNDATACOPY RETURNDATASIZE PUSH0 REVERT JUMPDEST POP JUMP JUMPDEST PUSH0 DUP1 SLOAD SWAP1 PUSH2 0x100 EXP SWAP1 DIV PUSH20 0xFFFFFFFFFFFFFFFFFFFFFFFFFFFFFFFFFFFFFFFF AND DUP2 JUMP JUMPDEST PUSH0 PUSH1 0x1 DUP3 DUP2 SLOAD DUP2 LT PUSH2 0x5B4 JUMPI PUSH2 0x5B3 PUSH2 0xD39 JUMP JUMPDEST JUMPDEST SWAP1 PUSH0 MSTORE PUSH1 0x20 PUSH0 KECCAK256 SWAP1 PUSH1 0x8 MUL ADD SWAP1 POP DUP1 PUSH1 0x4 ADD SLOAD TIMESTAMP LT PUSH2 0x608 JUMPI PUSH1 0x40 MLOAD PUSH32 0x8C379A000000000000000000000000000000000000000000000000000000000 DUP2 MSTORE PUSH1 0x4 ADD PUSH2 0x5FF SWAP1 PUSH2 0xFE6 JUMP JUMPDEST PUSH1 0x40 MLOAD DUP1 SWAP2 SUB SWAP1 REVERT JUMPDEST DUP1 PUSH1 0x7 ADD PUSH0 SWAP1 SLOAD SWAP1 PUSH2 0x100 EXP SWAP1 DIV PUSH1 0xFF AND ISZERO PUSH2 0x659 JUMPI PUSH1 0x40 MLOAD PUSH32 0x8C379A000000000000000000000000000000000000000000000000000000000 DUP2 MSTORE PUSH1 0x4 ADD PUSH2 0x650 SWAP1 PUSH2 0x104E JUMP JUMPDEST PUSH1 0x40 MLOAD DUP1 SWAP2 SUB SWAP1 REVERT JUMPDEST PUSH0 PUSH2 0x663 DUP4 PUSH2 0x15B JUMP JUMPDEST SWAP1 POP DUP1 CALLVALUE LT ISZERO PUSH2 0x6A8 JUMPI PUSH1 0x40 MLOAD PUSH32 0x8C379A000000000000000000000000000000000000000000000000000000000 DUP2 MSTORE PUSH1 0x4 ADD PUSH2 0x69F SWAP1 PUSH2 0x10DC JUMP JUMPDEST PUSH1 0x40 MLOAD DUP1 SWAP2 SUB SWAP1 REVERT JUMPDEST PUSH1 0x1 DUP3 PUSH1 0x7 ADD PUSH0 PUSH2 0x100 EXP DUP2 SLOAD DUP2 PUSH1 0xFF MUL NOT AND SWAP1 DUP4 ISZERO ISZERO MUL OR SWAP1 SSTORE POP DUP1 DUP3 PUSH1 0x2 ADD DUP2 SWAP1 SSTORE POP PUSH0 DUP2 CALLVALUE PUSH2 0x6DA SWAP2 SWAP1 PUSH2 0xEC0 JUMP JUMPDEST SWAP1 POP PUSH0 DUP2 GT ISZERO PUSH2 0x729 JUMPI CALLER PUSH20 0xFFFFFFFFFFFFFFFFFFFFFFFFFFFFFFFFFFFFFFFF AND PUSH2 0x8FC DUP3 SWAP1 DUP2 ISZERO MUL SWAP1 PUSH1 0x40 MLOAD PUSH0 PUSH1 0x40 MLOAD DUP1 DUP4 SUB DUP2 DUP6 DUP9 DUP9 CALL SWAP4 POP POP POP POP ISZERO DUP1 ISZERO PUSH2 0x727 JUMPI RETURNDATASIZE PUSH0 DUP1 RETURNDATACOPY RETURNDATASIZE PUSH0 REVERT JUMPDEST POP JUMPDEST DUP3 PUSH0 ADD PUSH0 SWAP1 SLOAD SWAP1 PUSH2 0x100 EXP SWAP1 DIV PUSH20 0xFFFFFFFFFFFFFFFFFFFFFFFFFFFFFFFFFFFFFFFF AND PUSH20 0xFFFFFFFFFFFFFFFFFFFFFFFFFFFFFFFFFFFFFFFF AND PUSH2 0x8FC PUSH1 0x64 PUSH1 0xA DUP6 PUSH2 0x774 SWAP2 SWAP1 PUSH2 0xEF3 JUMP JUMPDEST PUSH2 0x77E SWAP2 SWAP1 PUSH2 0x1127 JUMP JUMPDEST DUP5 PUSH2 0x789 SWAP2 SWAP1 PUSH2 0xEC0 JUMP JUMPDEST SWAP1 DUP2 ISZERO MUL SWAP1 PUSH1 0x40 MLOAD PUSH0 PUSH1 0x40 MLOAD DUP1 DUP4 SUB DUP2 DUP6 DUP9 DUP9 CALL SWAP4 POP POP POP POP ISZERO DUP1 ISZERO PUSH2 0x7B1 JUMPI RETURNDATASIZE PUSH0 DUP1 RETURNDATACOPY RETURNDATASIZE PUSH0 REVERT JUMPDEST POP PUSH32 0xBAFC4BDA865D4D1F8D5B16F883E996FDE0FE71112FAC81503876D35375694400 DUP5 DUP4 CALLER PUSH1 0x40 MLOAD PUSH2 0x7E5 SWAP4 SWAP3 SWAP2 SWAP1 PUSH2 0x1157 JUMP JUMPDEST PUSH1 0x40 MLOAD DUP1 SWAP2 SUB SWAP1 LOG1 POP POP POP POP JUMP JUMPDEST PUSH0 DUP1 DUP3 EQ PUSH2 0x801 JUMPI DUP2 PUSH2 0x806 JUMP JUMPDEST PUSH3 0x2A300 JUMPDEST SWAP1 POP DUP2 DUP6 PUSH2 0x814 SWAP2 SWAP1 PUSH2 0xEF3 JUMP JUMPDEST DUP7 LT ISZERO PUSH2 0x856 JUMPI PUSH1 0x40 MLOAD PUSH32 0x8C379A000000000000000000000000000000000000000000000000000000000 DUP2 MSTORE PUSH1 0x4 ADD PUSH2 0x84D SWAP1 PUSH2 0x11D6 JUMP JUMPDEST PUSH1 0x40 MLOAD DUP1 SWAP2 SUB SWAP1 REVERT JUMPDEST PUSH0 PUSH1 0x40 MLOAD DUP1 PUSH2 0x100 ADD PUSH1 0x40 MSTORE DUP1 CALLER PUSH20 0xFFFFFFFFFFFFFFFFFFFFFFFFFFFFFFFFFFFFFFFF AND DUP2 MSTORE PUSH1 0x20 ADD DUP9 DUP2 MSTORE PUSH1 0x20 ADD DUP9 DUP2 MSTORE PUSH1 0x20 ADD TIMESTAMP DUP2 MSTORE PUSH1 0x20 ADD DUP5 TIMESTAMP PUSH2 0x89D SWAP2 SWAP1 PUSH2 0x11F4 JUMP JUMPDEST DUP2 MSTORE PUSH1 0x20 ADD DUP8 DUP2 MSTORE PUSH1 0x20 ADD DUP7 DUP7 DUP1 DUP1 PUSH1 0x1F ADD PUSH1 0x20 DUP1 SWAP2 DIV MUL PUSH1 0x20 ADD PUSH1 0x40 MLOAD SWAP1 DUP2 ADD PUSH1 0x40 MSTORE DUP1 SWAP4 SWAP3 SWAP2 SWAP1 DUP2 DUP2 MSTORE PUSH1 0x20 ADD DUP4 DUP4 DUP1 DUP3 DUP5 CALLDATACOPY PUSH0 DUP2 DUP5 ADD MSTORE PUSH1 0x1F NOT PUSH1 0x1F DUP3 ADD AND SWAP1 POP DUP1 DUP4 ADD SWAP3 POP POP POP POP POP POP POP DUP2 MSTORE PUSH1 0x20 ADD PUSH0 ISZERO ISZERO DUP2 MSTORE POP SWAP1 POP PUSH1 0x1 DUP2 SWAP1 DUP1 PUSH1 0x1 DUP2 SLOAD ADD DUP1 DUP3 SSTORE DUP1 SWAP2 POP POP PUSH1 0x1 SWAP1 SUB SWAP1 PUSH0 MSTORE PUSH1 0x20 PUSH0 KECCAK256 SWAP1 PUSH1 0x8 MUL ADD PUSH0 SWAP1 SWAP2 SWAP1 SWAP2 SWAP1 SWAP2 POP PUSH0 DUP3 ADD MLOAD DUP2 PUSH0 ADD PUSH0 PUSH2 0x100 EXP DUP2 SLOAD DUP2 PUSH20 0xFFFFFFFFFFFFFFFFFFFFFFFFFFFFFFFFFFFFFFFF MUL NOT AND SWAP1 DUP4 PUSH20 0xFFFFFFFFFFFFFFFFFFFFFFFFFFFFFFFFFFFFFFFF AND MUL OR SWAP1 SSTORE POP PUSH1 0x20 DUP3 ADD MLOAD DUP2 PUSH1 0x1 ADD SSTORE PUSH1 0x40 DUP3 ADD MLOAD DUP2 PUSH1 0x2 ADD SSTORE PUSH1 0x60 DUP3 ADD MLOAD DUP2 PUSH1 0x3 ADD SSTORE PUSH1 0x80 DUP3 ADD MLOAD DUP2 PUSH1 0x4 ADD SSTORE PUSH1 0xA0 DUP3 ADD MLOAD DUP2 PUSH1 0x5 ADD SSTORE PUSH1 0xC0 DUP3 ADD MLOAD DUP2 PUSH1 0x6 ADD SWAP1 DUP2 PUSH2 0x9AD SWAP2 SWAP1 PUSH2 0x13F1 JUMP JUMPDEST POP PUSH1 0xE0 DUP3 ADD MLOAD DUP2 PUSH1 0x7 ADD PUSH0 PUSH2 0x100 EXP DUP2 SLOAD DUP2 PUSH1 0xFF MUL NOT AND SWAP1 DUP4 ISZERO ISZERO MUL OR SWAP1 SSTORE POP POP POP PUSH32 0x5BF34ED94988E5DCDC7D1FAAA54EB1D3B55F45D5F11457E235AFB21A8EBBE73C PUSH1 0x1 DUP1 DUP1 SLOAD SWAP1 POP PUSH2 0xA01 SWAP2 SWAP1 PUSH2 0xEC0 JUMP JUMPDEST DUP7 DUP7 DUP11 DUP7 PUSH1 0x40 MLOAD PUSH2 0xA16 SWAP6 SWAP5 SWAP4 SWAP3 SWAP2 SWAP1 PUSH2 0x14FA JUMP JUMPDEST PUSH1 0x40 MLOAD DUP1 SWAP2 SUB SWAP1 LOG1 POP POP POP POP POP POP POP JUMP JUMPDEST PUSH0 DUP1 REVERT JUMPDEST PUSH0 DUP1 REVERT JUMPDEST PUSH0 DUP2 SWAP1 POP SWAP2 SWAP1 POP JUMP JUMPDEST PUSH2 0xA41 DUP2 PUSH2 0xA2F JUMP JUMPDEST DUP2 EQ PUSH2 0xA4B JUMPI PUSH0 DUP1 REVERT JUMPDEST POP JUMP JUMPDEST PUSH0 DUP2 CALLDATALOAD SWAP1 POP PUSH2 0xA5C DUP2 PUSH2 0xA38 JUMP JUMPDEST SWAP3 SWAP2 POP POP JUMP JUMPDEST PUSH0 PUSH1 0x20 DUP3 DUP5 SUB SLT ISZERO PUSH2 0xA77 JUMPI PUSH2 0xA76 PUSH2 0xA27 JUMP JUMPDEST JUMPDEST PUSH0 PUSH2 0xA84 DUP5 DUP3 DUP6 ADD PUSH2 0xA4E JUMP JUMPDEST SWAP2 POP POP SWAP3 SWAP2 POP POP JUMP JUMPDEST PUSH2 0xA96 DUP2 PUSH2 0xA2F JUMP JUMPDEST DUP3 MSTORE POP POP JUMP JUMPDEST PUSH0 PUSH1 0x20 DUP3 ADD SWAP1 POP PUSH2 0xAAF PUSH0 DUP4 ADD DUP5 PUSH2 0xA8D JUMP JUMPDEST SWAP3 SWAP2 POP POP JUMP JUMPDEST PUSH0 PUSH20 0xFFFFFFFFFFFFFFFFFFFFFFFFFFFFFFFFFFFFFFFF DUP3 AND SWAP1 POP SWAP2 SWAP1 POP JUMP JUMPDEST PUSH0 PUSH2 0xADE DUP3 PUSH2 0xAB5 JUMP JUMPDEST SWAP1 POP SWAP2 SWAP1 POP JUMP JUMPDEST PUSH2 0xAEE DUP2 PUSH2 0xAD4 JUMP JUMPDEST DUP3 MSTORE POP POP JUMP JUMPDEST PUSH0 DUP2 MLOAD SWAP1 POP SWAP2 SWAP1 POP JUMP JUMPDEST PUSH0 DUP3 DUP3 MSTORE PUSH1 0x20 DUP3 ADD SWAP1 POP SWAP3 SWAP2 POP POP JUMP JUMPDEST PUSH0 JUMPDEST DUP4 DUP2 LT ISZERO PUSH2 0xB2B JUMPI DUP1 DUP3 ADD MLOAD DUP2 DUP5 ADD MSTORE PUSH1 0x20 DUP2 ADD SWAP1 POP PUSH2 0xB10 JUMP JUMPDEST PUSH0 DUP5 DUP5 ADD MSTORE POP POP POP POP JUMP JUMPDEST PUSH0 PUSH1 0x1F NOT PUSH1 0x1F DUP4 ADD AND SWAP1 POP SWAP2 SWAP1 POP JUMP JUMPDEST PUSH0 PUSH2 0xB50 DUP3 PUSH2 0xAF4 JUMP JUMPDEST PUSH2 0xB5A DUP2 DUP6 PUSH2 0xAFE JUMP JUMPDEST SWAP4 POP PUSH2 0xB6A DUP2 DUP6 PUSH1 0x20 DUP7 ADD PUSH2 0xB0E JUMP JUMPDEST PUSH2 0xB73 DUP2 PUSH2 0xB36 JUMP JUMPDEST DUP5 ADD SWAP2 POP POP SWAP3 SWAP2 POP POP JUMP JUMPDEST PUSH0 DUP2 ISZERO ISZERO SWAP1 POP SWAP2 SWAP1 POP JUMP JUMPDEST PUSH2 0xB92 DUP2 PUSH2 0xB7E JUMP JUMPDEST DUP3 MSTORE POP POP JUMP JUMPDEST PUSH0 PUSH2 0x100 DUP3 ADD SWAP1 POP PUSH2 0xBAC PUSH0 DUP4 ADD DUP12 PUSH2 0xAE5 JUMP JUMPDEST PUSH2 0xBB9 PUSH1 0x20 DUP4 ADD DUP11 PUSH2 0xA8D JUMP JUMPDEST PUSH2 0xBC6 PUSH1 0x40 DUP4 ADD DUP10 PUSH2 0xA8D JUMP JUMPDEST PUSH2 0xBD3 PUSH1 0x60 DUP4 ADD DUP9 PUSH2 0xA8D JUMP JUMPDEST PUSH2 0xBE0 PUSH1 0x80 DUP4 ADD DUP8 PUSH2 0xA8D JUMP JUMPDEST PUSH2 0xBED PUSH1 0xA0 DUP4 ADD DUP7 PUSH2 0xA8D JUMP JUMPDEST DUP2 DUP2 SUB PUSH1 0xC0 DUP4 ADD MSTORE PUSH2 0xBFF DUP2 DUP6 PUSH2 0xB46 JUMP JUMPDEST SWAP1 POP PUSH2 0xC0E PUSH1 0xE0 DUP4 ADD DUP5 PUSH2 0xB89 JUMP JUMPDEST SWAP10 SWAP9 POP POP POP POP POP POP POP POP POP JUMP JUMPDEST PUSH0 PUSH2 0xC25 DUP3 PUSH2 0xAB5 JUMP JUMPDEST SWAP1 POP SWAP2 SWAP1 POP JUMP JUMPDEST PUSH2 0xC35 DUP2 PUSH2 0xC1B JUMP JUMPDEST DUP3 MSTORE POP POP JUMP JUMPDEST PUSH0 PUSH1 0x20 DUP3 ADD SWAP1 POP PUSH2 0xC4E PUSH0 DUP4 ADD DUP5 PUSH2 0xC2C JUMP JUMPDEST SWAP3 SWAP2 POP POP JUMP JUMPDEST PUSH0 DUP1 REVERT JUMPDEST PUSH0 DUP1 REVERT JUMPDEST PUSH0 DUP1 REVERT JUMPDEST PUSH0 DUP1 DUP4 PUSH1 0x1F DUP5 ADD SLT PUSH2 0xC75 JUMPI PUSH2 0xC74 PUSH2 0xC54 JUMP JUMPDEST JUMPDEST DUP3 CALLDATALOAD SWAP1 POP PUSH8 0xFFFFFFFFFFFFFFFF DUP2 GT ISZERO PUSH2 0xC92 JUMPI PUSH2 0xC91 PUSH2 0xC58 JUMP JUMPDEST JUMPDEST PUSH1 0x20 DUP4 ADD SWAP2 POP DUP4 PUSH1 0x1 DUP3 MUL DUP4 ADD GT ISZERO PUSH2 0xCAE JUMPI PUSH2 0xCAD PUSH2 0xC5C JUMP JUMPDEST JUMPDEST SWAP3 POP SWAP3 SWAP1 POP JUMP JUMPDEST PUSH0 DUP1 PUSH0 DUP1 PUSH0 PUSH1 0x80 DUP7 DUP9 SUB SLT ISZERO PUSH2 0xCCE JUMPI PUSH2 0xCCD PUSH2 0xA27 JUMP JUMPDEST JUMPDEST PUSH0 PUSH2 0xCDB DUP9 DUP3 DUP10 ADD PUSH2 0xA4E JUMP JUMPDEST SWAP6 POP POP PUSH1 0x20 PUSH2 0xCEC DUP9 DUP3 DUP10 ADD PUSH2 0xA4E JUMP JUMPDEST SWAP5 POP POP PUSH1 0x40 DUP7 ADD CALLDATALOAD PUSH8 0xFFFFFFFFFFFFFFFF DUP2 GT ISZERO PUSH2 0xD0D JUMPI PUSH2 0xD0C PUSH2 0xA2B JUMP JUMPDEST JUMPDEST PUSH2 0xD19 DUP9 DUP3 DUP10 ADD PUSH2 0xC60 JUMP JUMPDEST SWAP4 POP SWAP4 POP POP PUSH1 0x60 PUSH2 0xD2C DUP9 DUP3 DUP10 ADD PUSH2 0xA4E JUMP JUMPDEST SWAP2 POP POP SWAP3 SWAP6 POP SWAP3 SWAP6 SWAP1 SWAP4 POP JUMP JUMPDEST PUSH32 0x4E487B7100000000000000000000000000000000000000000000000000000000 PUSH0 MSTORE PUSH1 0x32 PUSH1 0x4 MSTORE PUSH1 0x24 PUSH0 REVERT JUMPDEST PUSH32 0x4E487B7100000000000000000000000000000000000000000000000000000000 PUSH0 MSTORE PUSH1 0x22 PUSH1 0x4 MSTORE PUSH1 0x24 PUSH0 REVERT JUMPDEST PUSH0 PUSH1 0x2 DUP3 DIV SWAP1 POP PUSH1 0x1 DUP3 AND DUP1 PUSH2 0xDAA JUMPI PUSH1 0x7F DUP3 AND SWAP2 POP JUMPDEST PUSH1 0x20 DUP3 LT DUP2 SUB PUSH2 0xDBD JUMPI PUSH2 0xDBC PUSH2 0xD66 JUMP JUMPDEST JUMPDEST POP SWAP2 SWAP1 POP JUMP JUMPDEST PUSH32 0x61756374696F6E20616C72656164792073746F70706564000000000000000000 PUSH0 DUP3 ADD MSTORE POP JUMP JUMPDEST PUSH0 PUSH2 0xDF7 PUSH1 0x17 DUP4 PUSH2 0xAFE JUMP JUMPDEST SWAP2 POP PUSH2 0xE02 DUP3 PUSH2 0xDC3 JUMP JUMPDEST PUSH1 0x20 DUP3 ADD SWAP1 POP SWAP2 SWAP1 POP JUMP JUMPDEST PUSH0 PUSH1 0x20 DUP3 ADD SWAP1 POP DUP2 DUP2 SUB PUSH0 DUP4 ADD MSTORE PUSH2 0xE24 DUP2 PUSH2 0xDEB JUMP JUMPDEST SWAP1 POP SWAP2 SWAP1 POP JUMP JUMPDEST PUSH32 0x61756374696F6E20616C726561647920656E6465640000000000000000000000 PUSH0 DUP3 ADD MSTORE POP JUMP JUMPDEST PUSH0 PUSH2 0xE5F PUSH1 0x15 DUP4 PUSH2 0xAFE JUMP JUMPDEST SWAP2 POP PUSH2 0xE6A DUP3 PUSH2 0xE2B JUMP JUMPDEST PUSH1 0x20 DUP3 ADD SWAP1 POP SWAP2 SWAP1 POP JUMP JUMPDEST PUSH0 PUSH1 0x20 DUP3 ADD SWAP1 POP DUP2 DUP2 SUB PUSH0 DUP4 ADD MSTORE PUSH2 0xE8C DUP2 PUSH2 0xE53 JUMP JUMPDEST SWAP1 POP SWAP2 SWAP1 POP JUMP JUMPDEST PUSH32 0x4E487B7100000000000000000000000000000000000000000000000000000000 PUSH0 MSTORE PUSH1 0x11 PUSH1 0x4 MSTORE PUSH1 0x24 PUSH0 REVERT JUMPDEST PUSH0 PUSH2 0xECA DUP3 PUSH2 0xA2F JUMP JUMPDEST SWAP2 POP PUSH2 0xED5 DUP4 PUSH2 0xA2F JUMP JUMPDEST SWAP3 POP DUP3 DUP3 SUB SWAP1 POP DUP2 DUP2 GT ISZERO PUSH2 0xEED JUMPI PUSH2 0xEEC PUSH2 0xE93 JUMP JUMPDEST JUMPDEST SWAP3 SWAP2 POP POP JUMP JUMPDEST PUSH0 PUSH2 0xEFD DUP3 PUSH2 0xA2F JUMP JUMPDEST SWAP2 POP PUSH2 0xF08 DUP4 PUSH2 0xA2F JUMP JUMPDEST SWAP3 POP DUP3 DUP3 MUL PUSH2 0xF16 DUP2 PUSH2 0xA2F JUMP JUMPDEST SWAP2 POP DUP3 DUP3 DIV DUP5 EQ DUP4 ISZERO OR PUSH2 0xF2D JUMPI PUSH2 0xF2C PUSH2 0xE93 JUMP JUMPDEST JUMPDEST POP SWAP3 SWAP2 POP POP JUMP JUMPDEST PUSH32 0x596F7520617265206E6F7420616C6C6F77656420746F20646F20746869730000 PUSH0 DUP3 ADD MSTORE POP JUMP JUMPDEST PUSH0 PUSH2 0xF68 PUSH1 0x1E DUP4 PUSH2 0xAFE JUMP JUMPDEST SWAP2 POP PUSH2 0xF73 DUP3 PUSH2 0xF34 JUMP JUMPDEST PUSH1 0x20 DUP3 ADD SWAP1 POP SWAP2 SWAP1 POP JUMP JUMPDEST PUSH0 PUSH1 0x20 DUP3 ADD SWAP1 POP DUP2 DUP2 SUB PUSH0 DUP4 ADD MSTORE PUSH2 0xF95 DUP2 PUSH2 0xF5C JUMP JUMPDEST SWAP1 POP SWAP2 SWAP1 POP JUMP JUMPDEST PUSH32 0x41756374696F6E20616C726561647920656E6465640000000000000000000000 PUSH0 DUP3 ADD MSTORE POP JUMP JUMPDEST PUSH0 PUSH2 0xFD0 PUSH1 0x15 DUP4 PUSH2 0xAFE JUMP JUMPDEST SWAP2 POP PUSH2 0xFDB DUP3 PUSH2 0xF9C JUMP JUMPDEST PUSH1 0x20 DUP3 ADD SWAP1 POP SWAP2 SWAP1 POP JUMP JUMPDEST PUSH0 PUSH1 0x20 DUP3 ADD SWAP1 POP DUP2 DUP2 SUB PUSH0 DUP4 ADD MSTORE PUSH2 0xFFD DUP2 PUSH2 0xFC4 JUMP JUMPDEST SWAP1 POP SWAP2 SWAP1 POP JUMP JUMPDEST PUSH32 0x41756374696F6E20616C72656164792073746F70706564000000000000000000 PUSH0 DUP3 ADD MSTORE POP JUMP JUMPDEST PUSH0 PUSH2 0x1038 PUSH1 0x17 DUP4 PUSH2 0xAFE JUMP JUMPDEST SWAP2 POP PUSH2 0x1043 DUP3 PUSH2 0x1004 JUMP JUMPDEST PUSH1 0x20 DUP3 ADD SWAP1 POP SWAP2 SWAP1 POP JUMP JUMPDEST PUSH0 PUSH1 0x20 DUP3 ADD SWAP1 POP DUP2 DUP2 SUB PUSH0 DUP4 ADD MSTORE PUSH2 0x1065 DUP2 PUSH2 0x102C JUMP JUMPDEST SWAP1 POP SWAP2 SWAP1 POP JUMP JUMPDEST PUSH32 0x4E6F7420656E6F7567682066756E647320746F20627579207468697320697465 PUSH0 DUP3 ADD MSTORE PUSH32 0x6D00000000000000000000000000000000000000000000000000000000000000 PUSH1 0x20 DUP3 ADD MSTORE POP JUMP JUMPDEST PUSH0 PUSH2 0x10C6 PUSH1 0x21 DUP4 PUSH2 0xAFE JUMP JUMPDEST SWAP2 POP PUSH2 0x10D1 DUP3 PUSH2 0x106C JUMP JUMPDEST PUSH1 0x40 DUP3 ADD SWAP1 POP SWAP2 SWAP1 POP JUMP JUMPDEST PUSH0 PUSH1 0x20 DUP3 ADD SWAP1 POP DUP2 DUP2 SUB PUSH0 DUP4 ADD MSTORE PUSH2 0x10F3 DUP2 PUSH2 0x10BA JUMP JUMPDEST SWAP1 POP SWAP2 SWAP1 POP JUMP JUMPDEST PUSH32 0x4E487B7100000000000000000000000000000000000000000000000000000000 PUSH0 MSTORE PUSH1 0x12 PUSH1 0x4 MSTORE PUSH1 0x24 PUSH0 REVERT JUMPDEST PUSH0 PUSH2 0x1131 DUP3 PUSH2 0xA2F JUMP JUMPDEST SWAP2 POP PUSH2 0x113C DUP4 PUSH2 0xA2F JUMP JUMPDEST SWAP3 POP DUP3 PUSH2 0x114C JUMPI PUSH2 0x114B PUSH2 0x10FA JUMP JUMPDEST JUMPDEST DUP3 DUP3 DIV SWAP1 POP SWAP3 SWAP2 POP POP JUMP JUMPDEST PUSH0 PUSH1 0x60 DUP3 ADD SWAP1 POP PUSH2 0x116A PUSH0 DUP4 ADD DUP7 PUSH2 0xA8D JUMP JUMPDEST PUSH2 0x1177 PUSH1 0x20 DUP4 ADD DUP6 PUSH2 0xA8D JUMP JUMPDEST PUSH2 0x1184 PUSH1 0x40 DUP4 ADD DUP5 PUSH2 0xC2C JUMP JUMPDEST SWAP5 SWAP4 POP POP POP POP JUMP JUMPDEST PUSH32 0x696E636F7272656374207374617274696E672070726963650000000000000000 PUSH0 DUP3 ADD MSTORE POP JUMP JUMPDEST PUSH0 PUSH2 0x11C0 PUSH1 0x18 DUP4 PUSH2 0xAFE JUMP JUMPDEST SWAP2 POP PUSH2 0x11CB DUP3 PUSH2 0x118C JUMP JUMPDEST PUSH1 0x20 DUP3 ADD SWAP1 POP SWAP2 SWAP1 POP JUMP JUMPDEST PUSH0 PUSH1 0x20 DUP3 ADD SWAP1 POP DUP2 DUP2 SUB PUSH0 DUP4 ADD MSTORE PUSH2 0x11ED DUP2 PUSH2 0x11B4 JUMP JUMPDEST SWAP1 POP SWAP2 SWAP1 POP JUMP JUMPDEST PUSH0 PUSH2 0x11FE DUP3 PUSH2 0xA2F JUMP JUMPDEST SWAP2 POP PUSH2 0x1209 DUP4 PUSH2 0xA2F JUMP JUMPDEST SWAP3 POP DUP3 DUP3 ADD SWAP1 POP DUP1 DUP3 GT ISZERO PUSH2 0x1221 JUMPI PUSH2 0x1220 PUSH2 0xE93 JUMP JUMPDEST JUMPDEST SWAP3 SWAP2 POP POP JUMP JUMPDEST PUSH32 0x4E487B7100000000000000000000000000000000000000000000000000000000 PUSH0 MSTORE PUSH1 0x41 PUSH1 0x4 MSTORE PUSH1 0x24 PUSH0 REVERT JUMPDEST PUSH0 DUP2 SWAP1 POP DUP2 PUSH0 MSTORE PUSH1 0x20 PUSH0 KECCAK256 SWAP1 POP SWAP2 SWAP1 POP JUMP JUMPDEST PUSH0 PUSH1 0x20 PUSH1 0x1F DUP4 ADD DIV SWAP1 POP SWAP2 SWAP1 POP JUMP JUMPDEST PUSH0 DUP3 DUP3 SHL SWAP1 POP SWAP3 SWAP2 POP POP JUMP JUMPDEST PUSH0 PUSH1 0x8 DUP4 MUL PUSH2 0x12B0 PUSH32 0xFFFFFFFFFFFFFFFFFFFFFFFFFFFFFFFFFFFFFFFFFFFFFFFFFFFFFFFFFFFFFFFF DUP3 PUSH2 0x1275 JUMP JUMPDEST PUSH2 0x12BA DUP7 DUP4 PUSH2 0x1275 JUMP JUMPDEST SWAP6 POP DUP1 NOT DUP5 AND SWAP4 POP DUP1 DUP7 AND DUP5 OR SWAP3 POP POP POP SWAP4 SWAP3 POP POP POP JUMP JUMPDEST PUSH0 DUP2 SWAP1 POP SWAP2 SWAP1 POP JUMP JUMPDEST PUSH0 PUSH2 0x12F5 PUSH2 0x12F0 PUSH2 0x12EB DUP5 PUSH2 0xA2F JUMP JUMPDEST PUSH2 0x12D2 JUMP JUMPDEST PUSH2 0xA2F JUMP JUMPDEST SWAP1 POP SWAP2 SWAP1 POP JUMP JUMPDEST PUSH0 DUP2 SWAP1 POP SWAP2 SWAP1 POP JUMP JUMPDEST PUSH2 0x130E DUP4 PUSH2 0x12DB JUMP JUMPDEST PUSH2 0x1322 PUSH2 0x131A DUP3 PUSH2 0x12FC JUMP JUMPDEST DUP5 DUP5 SLOAD PUSH2 0x1281 JUMP JUMPDEST DUP3 SSTORE POP POP POP POP JUMP JUMPDEST PUSH0 SWAP1 JUMP JUMPDEST PUSH2 0x1336 PUSH2 0x132A JUMP JUMPDEST PUSH2 0x1341 DUP2 DUP5 DUP5 PUSH2 0x1305 JUMP JUMPDEST POP POP POP JUMP JUMPDEST JUMPDEST DUP2 DUP2 LT ISZERO PUSH2 0x1364 JUMPI PUSH2 0x1359 PUSH0 DUP3 PUSH2 0x132E JUMP JUMPDEST PUSH1 0x1 DUP2 ADD SWAP1 POP PUSH2 0x1347 JUMP JUMPDEST POP POP JUMP JUMPDEST PUSH1 0x1F DUP3 GT ISZERO PUSH2 0x13A9 JUMPI PUSH2 0x137A DUP2 PUSH2 0x1254 JUMP JUMPDEST PUSH2 0x1383 DUP5 PUSH2 0x1266 JUMP JUMPDEST DUP2 ADD PUSH1 0x20 DUP6 LT ISZERO PUSH2 0x1392 JUMPI DUP2 SWAP1 POP JUMPDEST PUSH2 0x13A6 PUSH2 0x139E DUP6 PUSH2 0x1266 JUMP JUMPDEST DUP4 ADD DUP3 PUSH2 0x1346 JUMP JUMPDEST POP POP JUMPDEST POP POP POP JUMP JUMPDEST PUSH0 DUP3 DUP3 SHR SWAP1 POP SWAP3 SWAP2 POP POP JUMP JUMPDEST PUSH0 PUSH2 0x13C9 PUSH0 NOT DUP5 PUSH1 0x8 MUL PUSH2 0x13AE JUMP JUMPDEST NOT DUP1 DUP4 AND SWAP2 POP POP SWAP3 SWAP2 POP POP JUMP JUMPDEST PUSH0 PUSH2 0x13E1 DUP4 DUP4 PUSH2 0x13BA JUMP JUMPDEST SWAP2 POP DUP3 PUSH1 0x2 MUL DUP3 OR SWAP1 POP SWAP3 SWAP2 POP POP JUMP JUMPDEST PUSH2 0x13FA DUP3 PUSH2 0xAF4 JUMP JUMPDEST PUSH8 0xFFFFFFFFFFFFFFFF DUP2 GT ISZERO PUSH2 0x1413 JUMPI PUSH2 0x1412 PUSH2 0x1227 JUMP JUMPDEST JUMPDEST PUSH2 0x141D DUP3 SLOAD PUSH2 0xD93 JUMP JUMPDEST PUSH2 0x1428 DUP3 DUP3 DUP6 PUSH2 0x1368 JUMP JUMPDEST PUSH0 PUSH1 0x20 SWAP1 POP PUSH1 0x1F DUP4 GT PUSH1 0x1 DUP2 EQ PUSH2 0x1459 JUMPI PUSH0 DUP5 ISZERO PUSH2 0x1447 JUMPI DUP3 DUP8 ADD MLOAD SWAP1 POP JUMPDEST PUSH2 0x1451 DUP6 DUP3 PUSH2 0x13D6 JUMP JUMPDEST DUP7 SSTORE POP PUSH2 0x14B8 JUMP JUMPDEST PUSH1 0x1F NOT DUP5 AND PUSH2 0x1467 DUP7 PUSH2 0x1254 JUMP JUMPDEST PUSH0 JUMPDEST DUP3 DUP2 LT ISZERO PUSH2 0x148E JUMPI DUP5 DUP10 ADD MLOAD DUP3 SSTORE PUSH1 0x1 DUP3 ADD SWAP2 POP PUSH1 0x20 DUP6 ADD SWAP5 POP PUSH1 0x20 DUP2 ADD SWAP1 POP PUSH2 0x1469 JUMP JUMPDEST DUP7 DUP4 LT ISZERO PUSH2 0x14AB JUMPI DUP5 DUP10 ADD MLOAD PUSH2 0x14A7 PUSH1 0x1F DUP10 AND DUP3 PUSH2 0x13BA JUMP JUMPDEST DUP4 SSTORE POP JUMPDEST PUSH1 0x1 PUSH1 0x2 DUP9 MUL ADD DUP9 SSTORE POP POP POP JUMPDEST POP POP POP POP POP POP JUMP JUMPDEST DUP3 DUP2 DUP4 CALLDATACOPY PUSH0 DUP4 DUP4 ADD MSTORE POP POP POP JUMP JUMPDEST PUSH0 PUSH2 0x14D9 DUP4 DUP6 PUSH2 0xAFE JUMP JUMPDEST SWAP4 POP PUSH2 0x14E6 DUP4 DUP6 DUP5 PUSH2 0x14C0 JUMP JUMPDEST PUSH2 0x14EF DUP4 PUSH2 0xB36 JUMP JUMPDEST DUP5 ADD SWAP1 POP SWAP4 SWAP3 POP POP POP JUMP JUMPDEST PUSH0 PUSH1 0x80 DUP3 ADD SWAP1 POP PUSH2 0x150D PUSH0 DUP4 ADD DUP9 PUSH2 0xA8D JUMP JUMPDEST DUP2 DUP2 SUB PUSH1 0x20 DUP4 ADD MSTORE PUSH2 0x1520 DUP2 DUP7 DUP9 PUSH2 0x14CE JUMP JUMPDEST SWAP1 POP PUSH2 0x152F PUSH1 0x40 DUP4 ADD DUP6 PUSH2 0xA8D JUMP JUMPDEST PUSH2 0x153C PUSH1 0x60 DUP4 ADD DUP5 PUSH2 0xA8D JUMP JUMPDEST SWAP7 SWAP6 POP POP POP POP POP POP JUMP INVALID LOG2 PUSH5 0x6970667358 0x22 SLT KECCAK256 0x27 CREATE 0xBD 0xCC DUP5 SELFDESTRUCT 0x26 0xBA CODESIZE 0xDB 0x1E 0xAE SWAP1 0xDF LOG0 0xEF SIGNEXTEND EQ 0xEC 0x1E OR PUSH7 0x2140DF6E234F25 0xD7 STOP 0xE7 PUSH5 0x736F6C6343 STOP ADDMOD AND STOP CALLER "
				},
				"gasEstimates": {
					"creation": {
						"codeDepositCost": "1100000",
						"executionCost": "25403",
						"totalCost": "1125403"
					},
					"external": {
						"auctions(uint256)": "infinite",
						"buy(uint256)": "infinite",
						"createAuction(uint256,uint256,string,uint256)": "infinite",
						"getPriceFor(uint256)": "infinite",
						"owner()": "2549",
						"withdrawAll()": "infinite"
					}
				},
				"methodIdentifiers": {
					"auctions(uint256)": "571a26a0",
					"buy(uint256)": "d96a094a",
					"createAuction(uint256,uint256,string,uint256)": "e9835d15",
					"getPriceFor(uint256)": "4534cd9c",
					"owner()": "8da5cb5b",
					"withdrawAll()": "853828b6"
				}
			},
			"storageLayout": {
				"storage": [
					{
						"astId": 3,
						"contract": "auction/contracts/AucEngine.sol:AucEngine",
						"label": "owner",
						"offset": 0,
						"slot": "0",
						"type": "t_address"
					},
					{
						"astId": 30,
						"contract": "auction/contracts/AucEngine.sol:AucEngine",
						"label": "auctions",
						"offset": 0,
						"slot": "1",
						"type": "t_array(t_struct(Auction)26_storage)dyn_storage"
					}
				],
				"types": {
					"t_address": {
						"encoding": "inplace",
						"label": "address",
						"numberOfBytes": "20"
					},
					"t_address_payable": {
						"encoding": "inplace",
						"label": "address payable",
						"numberOfBytes": "20"
					},
					"t_array(t_struct(Auction)26_storage)dyn_storage": {
						"base": "t_struct(Auction)26_storage",
						"encoding": "dynamic_array",
						"label": "struct AucEngine.Auction[]",
						"numberOfBytes": "32"
					},
					"t_bool": {
						"encoding": "inplace",
						"label": "bool",
						"numberOfBytes": "1"
					},
					"t_string_storage": {
						"encoding": "bytes",
						"label": "string",
						"numberOfBytes": "32"
					},
					"t_struct(Auction)26_storage": {
						"encoding": "inplace",
						"label": "struct AucEngine.Auction",
						"members": [
							{
								"astId": 11,
								"contract": "auction/contracts/AucEngine.sol:AucEngine",
								"label": "seller",
								"offset": 0,
								"slot": "0",
								"type": "t_address_payable"
							},
							{
								"astId": 13,
								"contract": "auction/contracts/AucEngine.sol:AucEngine",
								"label": "startPrice",
								"offset": 0,
								"slot": "1",
								"type": "t_uint256"
							},
							{
								"astId": 15,
								"contract": "auction/contracts/AucEngine.sol:AucEngine",
								"label": "finalPrice",
								"offset": 0,
								"slot": "2",
								"type": "t_uint256"
							},
							{
								"astId": 17,
								"contract": "auction/contracts/AucEngine.sol:AucEngine",
								"label": "startAt",
								"offset": 0,
								"slot": "3",
								"type": "t_uint256"
							},
							{
								"astId": 19,
								"contract": "auction/contracts/AucEngine.sol:AucEngine",
								"label": "endsAt",
								"offset": 0,
								"slot": "4",
								"type": "t_uint256"
							},
							{
								"astId": 21,
								"contract": "auction/contracts/AucEngine.sol:AucEngine",
								"label": "discountRate",
								"offset": 0,
								"slot": "5",
								"type": "t_uint256"
							},
							{
								"astId": 23,
								"contract": "auction/contracts/AucEngine.sol:AucEngine",
								"label": "item",
								"offset": 0,
								"slot": "6",
								"type": "t_string_storage"
							},
							{
								"astId": 25,
								"contract": "auction/contracts/AucEngine.sol:AucEngine",
								"label": "stopped",
								"offset": 0,
								"slot": "7",
								"type": "t_bool"
							}
						],
						"numberOfBytes": "256"
					},
					"t_uint256": {
						"encoding": "inplace",
						"label": "uint256",
						"numberOfBytes": "32"
					}
				}
			},
			"userdoc": {
				"kind": "user",
				"methods": {},
				"version": 1
			}
		}
	}
}